:020000040000fa
:10000000f0ff01202db0000163b5000169b50001ca
:1000100075b500017bb5000181b50001000000004d
:1000200000000000000000000000000079890001cd
:100030006fb5000100000000998a0001078b0001e4
:10004000db920001db920001db920001db920001f8
:10005000db9200016d7f0001db920001db92000169
:10006000db920001db920001db920001db920001d8
:10007000db920001db9200013d600001db92000198
:10008000db920001db920001db9200015190000144
:10009000db920001db920001db920001db920001a8
:1000a000db920001db920001db920001db92000198
:1000b000db920001db920001db920001db92000188
:1000c000db920001db920001db920001db92000178
:1000d000db920001db920001db920001db92000168
:020000040000fa
:020000040004f6
:045f8800ffff000017
:020000040000fa
:020000040004f6
:045f8c0000400e843f
:020000040000fa
:020000040004f6
:045f900038fc745f06
:020000040000fa
:020000040004f6
:045f940038440a146f
:020000040000fa
:020000040004f6
:045f98000300007191
:020000040000fa
:020000040004f6
:045f9c000000000001
:020000040000fa
:020000040004f6
:045fbc0000000010d1
:020000040000fa
:020000040100f9
:10000000f8b500bff8bc08bc9e467047c9b10001f6
:10001000f8b500bff8bc08bc9e467047a5b100010a
:020000040000fa
:020000040100f9
:0800200004860000010000004d
:020000040000fa
:020000040100f9
:1000280080b58cb004aff860b9603b601346fb80c4
:10003800fb889b0018460af081fa78617b69002bdf
:1000480013d054200af07afaf861fb69002b08d023
:1000580054220021f8690bf05bfbfb697a691a638b
:1000680005e078690af0c2fa01e00023fb61fb6948
:10007800002b13d0fa8800230393fb690293fb6ad1
:100088000193bb6a00933b68b968f86800f00ef802
:10009800f86900f07bf80123bb6102e04ff0ff3301
:1000a800bb61bb6918462037bd4680bd80b586b0a8
:1000b80000aff860b9607a603b60bb6a186b7b6818
:1000c8009b001a46a5210bf023fbbb6a1a6b7b68c1
:1000d80003f18043013b9b0013443b613b6923f0e0
:1000e80007033b61bb68002b1ed000237b6112e035
:1000f800ba687b6913441978ba6a7b691344343344
:100108000a461a70ba687b6913441b78002b06d01c
:100118007b6901337b617b690f2be9d900e000bf64
:10012800bb6a002283f843203b6a042b01d90423cd
:100138003b62bb6a3a6ada62bb6a3a6a5a64bb6a69
:100148000433184609f03efebb6a1833184609f016
:1001580039febb6aba6a1a613b6ac3f10502bb6a17
:100168009a61bb6aba6a5a623a68f968386908f0eb
:10017800b3fb0246bb6a1a607b6a002b02d07b6a1b
:10018800ba6a1a6000bf1837bd4680bd80b584b012
:1001980000af786008f049fc3e4b1b6801333d4acc
:1001a80013603d4b1b68002b09d13b4a7b681360e9
:1001b800384b1b68012b10d101f018f90de0374bb3
:1001c8001b68002b09d1344b1b68da6a7b68db6a31
:1001d8009a4202d8304a7b681360314b1b6801335e
:1001e8002f4a13607b68db6a01229a402d4b1b68fb
:1001f80013432c4a13607b68da6a2b4913469b0029
:1002080013449b000b4404331b68fb607b68fa684b
:100218009a60fb689a687b68da60fb689b687a6812
:1002280004325a607b681a1dfb689a607b68da6a38
:1002380013469b0013449b001b4a1a447b685a616f
:100248007b68da6a184913469b0013449b000b44e9
:100258001b68591c144813469b0013449b00034415
:10026800196008f0fbfb0d4b1b68002b0ed00a4be6
:100278001b68da6a7b68db6a9a4207d20b4b4ff03d
:1002880080521a60bff34f8fbff36f8f00bf1037d4
:10029800bd4680bdeca2002014a20020f8a20020d8
:1002a80008a30020f4a2002018a2002004ed00e01a
:1002b80080b584b000af786008f0b7fb7b68002b8e
:1002c80002d1344b1b6800e07b68fb60fb68043399
:1002d800184609f0e1fd0346002b15d1fb68da6ae0
:1002e8002d4913469b0013449b000b441b68002bad
:1002f8000ad1fb68db6a012202fa03f3da43274bcf
:100308001b681340254a1360fb689b6a002b04d0c6
:10031800fb681833184609f0bffd214b1b680133f1
:100328001f4a13601b4b1b68fa689a420bd1fb6883
:10033800043319461b4809f052fd1b4b1b68013357
:10034800194a136006e0194b1b68013b174a1360f2
:1003580001f0c8f808f082fb0e4b1b68fa689a4255
:1003680002d0f86801f0aef8114b1b68002b0cd0d6
:10037800084b1b68fa689a4207d10e4b4ff080521f
:100388001a60bff34f8fbff36f8f00bf1037bd46a2
:1003980080bd00bf14a2002018a20020f4a20020f3
:1003a80008a30020c0a20020d4a20020eca20020b4
:1003b800f8a2002004ed00e080b586b000af7860b8
:1003c800396000237b6100f0f3fa224b1b683b6124
:1003d8007b681b683a681344fb607b681b683a6952
:1003e8009a420bd27b681b68fa689a4211d2fa6863
:1003f8003b699a420dd901237b610ae07b681b683f
:10040800fa689a4203d3fa683b699a4201d90123f0
:100418007b617b68fa681a607b69002b06d0fa68f2
:100428003b69d31a0021184601f082fe00f0cefa8b
:10043800b860bb68002b07d1074b4ff080521a6099
:10044800bff34f8fbff36f8f7b6918461837bd46d0
:1004580080bd00bff0a2002004ed00e080b584b0ac
:1004680000af78600023fb607b68002b08d000f0a9
:100478009ffa0021786801f05bfe00f0a7faf860a7
:10048800fb68002b07d1064b4ff080521a60bff370
:100498004f8fbff36f8f00bf1037bd4680bd00bfc1
:1004a80004ed00e080b584b000af786008f0bdfad4
:1004b8007b68002b02d1074b1b6800e07b68fb6060
:1004c800fb68db6abb6008f0c9fabb6818461037de
:1004d800bd4680bd14a2002080b489b000af78600a
:1004e800eff311824ff0200383f31188bff36f8f6e
:1004f800bff34f8f3a61fb603b69fb617b68002b60
:1005080002d10a4b1b6800e07b68bb61bb69db6af0
:100518007b61fb69bb60bb6883f311887b69184604
:100528002437bd465df8047b704700bf14a2002045
:1005380080b588b000af786039600023fb613b6804
:10054800042b01d904233b6008f06ffa7b68002b69
:1005580002d1554b1b6800e07b68bb61bb695b6cd3
:100568007b617a693b689a4200f098803a687b69b7
:100578009a420dd94c4b1b68ba699a420fd04a4b24
:100588001b68db6a3a689a4209d30123fb6106e0db
:10059800454b1b68ba699a4201d10123fb61bb69cb
:1005a800db6a3b61bb695a6cbb69db6a9a4202d160
:1005b800bb693a68da62bb693a685a64bb699b6985
:1005c800002b04db3b68c3f10502bb699a61bb6978
:1005d80059693a6913469b0013449b00334a1344f4
:1005e800994250d1bb690433184609f055fc0346bb
:1005f800002b09d101223b6902fa03f3da432c4ba1
:100608001b6813402a4a1360bb69db6a01229a40bf
:10061800274b1b681343264a1360bb69da6a2349d0
:1006280013469b0013449b000b4404331b68fb6078
:10063800bb69fa689a60fb689a68bb69da60fb680c
:100648009b68ba6904325a60bb691a1dfb689a60d4
:10065800bb69da6a13469b0013449b00134a1a4489
:10066800bb695a61bb69da6a104913469b00134497
:100678009b000b441b68591c0c4813469b001344f1
:100688009b0003441960fb69002b07d0094b4ff00e
:1006980080521a60bff34f8fbff36f8f08f0def9f7
:1006a80000bf2037bd4680bd14a2002018a200203c
:1006b800f4a2002004ed00e080b584b000af7860bb
:1006c80008f0b3f97b68002b02d13b4b1b6800e0b4
:1006d8007b68bb60bb680433184609f0ddfb034642
:1006e800002b15d1bb68da6a344913469b001344c2
:1006f8009b000b441b68002b0ad1bb68db6a0122f4
:1007080002fa03f3da432e4b1b6813402c4a13609a
:10071800bb689b6a002b04d0bb681833184609f0e5
:10072800bbfbbb6804331946264809f058fb002375
:10073800fb6010e0ba68fb68134450331b78dbb2e7
:10074800012b05d1ba68fb681344503300221a7094
:10075800fb680133fb60fb68002bebdd08f07ef9da
:10076800194b1b68002b05d008f05ff900f0bafea2
:1007780008f074f9104b1b68ba689a4218d1124bea
:100788001b68002b08d0114b4ff080521a60bff342
:100798004f8fbff36f8f0be00a4b1a680c4b1b6827
:1007a8009a4203d1044b00221a6001e000f05efb7c
:1007b80000bf1037bd4680bd14a2002018a200203b
:1007c800f4a20020d8a20020f8a2002004ed00e046
:1007d800eca2002080b485b000af78600023fb60f5
:1007e8007b68bb60bb685b690a4a93420ad1bb68f5
:1007f8009b6a094a934205d0bb689b6a002b01d1ca
:100808000123fb60fb6818461437bd465df8047b7e
:10081800704700bfd8a20020aca2002080b584b0e9
:1008280000af78607b68fb60344b1b68fa689a42bb
:100838005fd0fb68002b5cd008f0f7f8f868fff78a
:10084800c9ff0346002b52d0fb680433184609f051
:1008580023fbfb68db6a01229a40294b1b68134380
:10086800274a1360fb68da6a264913469b0013443b
:100878009b000b4404331b68bb60fb68ba689a6032
:10088800bb689a68fb68da60bb689b68fa680432e0
:100898005a60fb681a1dbb689a60fb68da6a1346df
:1008a8009b0013449b00174a1a44fb685a61fb6873
:1008b800da6a144913469b0013449b000b441b68d7
:1008c800591c104813469b0013449b0003441960ad
:1008d800fb68da6a094b1b68db6a9a4207d30a4b42
:1008e8004ff080521a60bff34f8fbff36f8f08f03d
:1008f800b5f800bf1037bd4680bd00bf14a2002068
:10090800f4a2002018a2002004ed00e080b584b015
:1009180002af144b01930023009300238022124955
:100928001248fff77dfb78607b68012b14d14ff0ec
:10093800200383f31188bff36f8fbff34f8f3b60a2
:100948000b4b4ff0ff321a600a4b01221a600a4b18
:1009580000221a6008f037f8084b1b6800bf0837f8
:10096800bd4680bd10a30020dcb70001c5130001ff
:100978000ca30020f8a20020f0a200205ca6002012
:1009880080b582b000af4ff0200383f31188bff326
:100998006f8fbff34f8f7b60044b00221a6008f003
:1009a8003df800bf0837bd4680bd00bff8a2002053
:1009b80080b400af044b1b680133034a136000bfc7
:1009c800bd465df8047b704714a3002080b586b04f
:1009d80000af00237b6100233b6108f026f8684bd9
:1009e8001b68013b664a1360654b1b68002b40f08f
:1009f800c080644b1b68002b00f0bb808ae0624b10
:100a0800db68db687b617b699b6abb607b69db6950
:100a18007a69126a9a607b691b6a7a69d2695a6034
:100a2800bb685a687b6918339a4203d17b691a6a92
:100a3800bb685a607b6900229a62bb681b685a1eb1
:100a4800bb681a607b695b697b607b699b687a69b4
:100a5800d2689a607b69db687a6992685a607b68b9
:100a68005a687b6904339a4203d17b69da687b68e8
:100a78005a607b6900225a617b681b685a1e7b6832
:100a88001a607b69db6a01229a40404b1b6813435a
:100a98003e4a13607b69da6a3d4913469b0013445a
:100aa8009b000b4404331b683b607b693a689a607f
:100ab8003b689a687b69da603b689b687a690432ac
:100ac8005a607b691a1d3b689a607b69da6a13462b
:100ad8009b0013449b002e4a1a447b695a617b6928
:100ae800da6a2b4913469b0013449b000b441b688e
:100af800591c274813469b0013449b000344196064
:100b08007b69da6a234b1b68db6a9a4202d3224b61
:100b180001221a601c4b1b68002b7ff470af7b69a5
:100b2800002b01d000f0defc1c4b1b68fb60fb684f
:100b3800002b10d000f094f80346002b02d0164b7f
:100b480001221a60fb68013bfb60fb68002bf1d1b6
:100b5800124b00221a60104b1b68002b09d001238e
:100b68003b610f4b4ff080521a60bff34f8fbff3ba
:100b78006f8f07f073ff3b6918461837bd4680bd75
:100b880014a30020eca20020aca20020f4a20020b4
:100b980018a2002014a2002000a30020fca200201c
:100ba80004ed00e080b483b000af054b1b687b60a8
:100bb8007b6818460c37bd465df8047b704700bf5c
:100bc800f0a2002080b483b000af00237b60054b07
:100bd8001b683b603b6818460c37bd465df8047bd4
:100be800704700bff0a2002080b400af034b1b6821
:100bf8001846bd465df8047b704700bfeca2002094
:100c080080b485b000af78607b68002b02d1064bba
:100c18001b6800e07b68fb60fb68343318461437b8
:100c2800bd465df8047b704714a2002080b584b0ef
:100c380000af7860fff7bcfe07f0f7fe074b1a68b5
:100c48007b681344054a136007f008fffff7befef0
:100c5800f860fb6818461037bd4680bdfca200202e
:100c680080b588b000af0023fb61754b1b68002b73
:100c780040f0dc80734b1b680133bb61714abb6970
:100c88001360bb69002b10d16f4b1b687b616f4be6
:100c98001b686d4a13606d4a7b6913606c4b1b6857
:100ca80001336b4a136000f01dfc6a4b1b68ba697c
:100cb8009a42c0f0a680644b1b681b68002b04d1c5
:100cc800644b4ff0ff321a609be05f4b1b68db6898
:100cd800db683b613b695b68fb60ba69fb689a4209
:100ce80003d25c4afb6813608be03b695b69bb60bd
:100cf8003b699b683a69d2689a603b69db683a69e4
:100d080092685a60bb685a683b6904339a4203d1b7
:100d18003b69da68bb685a603b6900225a61bb6864
:100d28001b685a1ebb681a603b699b6a002b1ed061
:100d38003b699b6a7b603b69db693a69126a9a6026
:100d48003b691b6a3a69d2695a607b685a683b6991
:100d580018339a4203d13b691a6a7b685a603b6927
:100d680000229a627b681b685a1e7b681a603b697e
:100d7800db6a01229a40384b1b681343364a1360da
:100d88003b69da6a354913469b0013449b000b44c0
:100d980004331b683b603b693a689a603b689a6811
:100da8003b69da603b689b683a6904325a603b6980
:100db8001a1d3b689a603b69da6a13469b00134424
:100dc8009b00264a1a443b695a613b69da6a2349ff
:100dd80013469b0013449b000b441b68591c1f4877
:100de80013469b0013449b00034419603b69da6a6d
:100df8001b4b1b68db6a9a427ff65daf0123fb61e0
:100e080059e7174b1b68da6a144913469b001344c9
:100e18009b000b441b68012b01d90123fb61114b7b
:100e28001b68002b07d00123fb6104e00e4b1b68f5
:100e380001330d4a1360fb6918462037bd4680bd53
:100e480014a30020f0a20020a4a20020a8a2002041
:100e580004a300200ca30020f4a2002018a2002064
:100e680014a2002000a30020fca2002080b586b0b8
:100e780000af2f4b1b68002b03d02e4b01221a60aa
:100e880051e02c4b00221a602b4b1b681b6b7b61bb
:100e98004ff0a5333b617b691b683a699a4211d1cf
:100ea8007b6904331b683a699a420bd17b69083322
:100eb8001b683a699a4205d17b690c331b683a6909
:100ec8009a4208d01c4b1a681b4b1b6834331946ce
:100ed800104609f08cfe194b1b687b607b68b3fadf
:100ee80083f3fb70fb78c3f11f03fb60fa681346ba
:100ef8009b0013449b00124a1344bb60bb685b68a9
:100f08005a68bb685a60bb685a68bb6808339a421b
:100f180004d1bb685b685a68bb685a60bb685b6889
:100f2800db68054a136000bf1837bd4680bd00bfa7
:100f380014a3002000a3002014a20020f4a2002083
:100f480018a2002080b582b000af78603960074be6
:100f58001b6818331946786808f065ff012138685e
:100f680001f0e6f800bf0837bd4680bd14a2002096
:100f780080b586b000aff860b9607a60174b1b681f
:100f8800ba6842f000429a61fb685b687b61134b68
:100f98001b687a69da61114b1b687a6992681a6270
:100fa8000e4b1a687b699b6818325a600b4b1b689a
:100fb80003f118027b699a60084b1b68fa689a6209
:100fc800fb681b685a1cfb681a600121786801f0ed
:100fd800aff800bf1837bd4680bd00bf14a200207f
:100fe80080b489b000af78607b68db68db68bb6180
:100ff800bb699b6a7b61bb69db69ba69126a9a60e3
:10100800bb691b6aba69d2695a607b695a68bb694d
:1010180018339a4203d1bb691a6a7b695a60bb6963
:1010280000229a627b691b685a1e7b691a604a4bc8
:101038001b68002b5ed1bb695b693b61bb699b6820
:10104800ba69d2689a60bb69db68ba6992685a6003
:101058003b695a68bb6904339a4203d1bb69da68b1
:101068003b695a60bb6900225a613b691b685a1e7a
:101078003b691a60bb69db6a01229a40374b1b68df
:101088001343364a1360bb69da6a354913469b0035
:1010980013449b000b4404331b68fb60bb69fa686c
:1010a8009a60fb689a68bb69da60fb689b68ba69f2
:1010b80004325a60bb691a1dfb689a60bb69da6a18
:1010c80013469b0013449b00254a1a44bb695a6186
:1010d800bb69da6a224913469b0013449b000b4400
:1010e8001b68591c1e4813469b0013449b0003446d
:1010f80019601be01b4b5b68bb60bb69ba68da61af
:10110800bb689a68bb691a62bb689b68ba6918327f
:101118005a60bb6903f11802bb689a60bb69114a3f
:101128009a62104b1b6801330e4a1360bb69da6a76
:101138000d4b1b68db6a9a4205d90123fb610b4bf7
:1011480001221a6001e00023fb61fb69184624377d
:10115800bd465df8047b704714a30020f4a200206c
:1011680018a20020aca2002014a2002000a3002096
:1011780080b487b000af786039603b6843f00042c4
:101188007b681a607b68db687b617b681b693b61f5
:101198007b685b687a6892689a607b689b687a6803
:1011a80052685a603b695b687a689a4203d17b68e7
:1011b8009a683b695a607b6800221a613b691b6820
:1011c8005a1e3b691a607b695b69fb607b699b6897
:1011d8007a69d2689a607b69db687a6992685a6032
:1011e800fb685a687b6904339a4203d17b69da68e1
:1011f800fb685a607b6900225a61fb681b685a1eab
:10120800fb681a607b69db6a01229a40254b1b68e0
:101218001343244a13607b69da6a234913469b0007
:1012280013449b000b4404331b68bb607b69ba689a
:101238009a60bb689a687b69da60bb689b687a6960
:1012480004325a607b691a1dbb689a607b69da6a46
:1012580013469b0013449b00134a1a447b695a6146
:101268007b69da6a104913469b0013449b000b44c0
:101278001b68591c0c4813469b0013449b000344ed
:1012880019607b69da6a094b1b68db6a9a4202d9e2
:10129800074b01221a6000bf1c37bd465df8047b6e
:1012a800704700bff4a2002018a2002014a200205a
:1012b80000a3002080b582b000af786007f0b5fbce
:1012c800064b1a687b681a60054b1a687b685a6077
:1012d80007f0c4fb00bf0837bd4680bd04a300204b
:1012e800f0a2002080b483b000af7860064b1a6883
:1012f8007b681a60054b1a687b685a6000bf0c3718
:10130800bd465df8047b704704a30020f0a20020ce
:1013180080b586b000af7860396007f086fb1f4b58
:101328001b683b617b685b683a69d31afb603b6862
:101338001b68b3f1ff3f02d100237b6126e07b6885
:101348001a68174b1b689a420ad07b685b683a692f
:101358009a4205d301237b613b6800221a6015e09d
:101368003b681b68fa689a420bd23b681a68fb68ac
:10137800d21a3b681a607868fff7b4ff00237b61d4
:1013880004e03b6800221a6001237b6107f066fbda
:101398007b6918461837bd4680bd00bff0a2002003
:1013a80004a3002080b400af034b01221a6000bfe1
:1013b800bd465df8047b704700a3002080b582b06d
:1013c80000af786000f052f8064b1b68012bf9d982
:1013d800054b4ff080521a60bff34f8fbff36f8fea
:1013e800f0e700bf18a2002004ed00e080b582b04d
:1013f80000af00237b600ce07a6813469b0013441f
:101408009b00124a1344184608f0bcfc7b68013361
:101418007b607b68042befd90d4808f0b3fc0d48be
:1014280008f0b0fc0c4808f0adfc0c4808f0aafc29
:101438000b4808f0a7fc0b4b054a1a600a4b054af3
:101448001a6000bf0837bd4680bd00bf18a2002043
:101458007ca2002090a20020aca20020c0a2002004
:10146800d8a20020a4a20020a8a2002080b582b0a3
:1014780000af19e007f0d9fa0f4bdb68db687b6037
:101488007b680433184608f007fd0c4b1b68013bca
:101498000a4a13600a4b1b68013b094a136007f0ac
:1014a800ddfa786800f00ef8054b1b68002be1d1d7
:1014b80000bf0837bd4680bdc0a20020eca20020b6
:1014c800d4a2002080b582b000af78607b681b6b27
:1014d800184609f08bf8786809f088f800bf0837d3
:1014e800bd4680bd80b400af0a4b1b681b68002b4b
:1014f80004d1094b4ff0ff321a6005e0054b1b6819
:10150800db681b68044a136000bfbd465df8047bb6
:10151800704700bfa4a200200ca3002080b483b0b1
:1015280000af054b1b687b607b6818460c37bd46cf
:101538005df8047b704700bf14a2002080b586b018
:1015480000af78607b683b6100237b617b68002b80
:1015580000f087803b69da6a444b1b68db6a9a4271
:1015680076d23b699b69002b06db404b1b68db6a24
:10157800c3f105023b699a613b6959693b69da6abb
:1015880013469b0013449b00394a1344994257d190
:101598003b690433184608f07ffc0346002b0ad148
:1015a8003b69db6a012202fa03f3da43314b1b6819
:1015b8001340304a13602d4b1b68da6a3b69da62c4
:1015c8003b69db6a01229a402a4b1b681343294a6c
:1015d80013603b69da6a264913469b0013449b0053
:1015e8000b4404331b68fb603b69fa689a60fb682c
:1015f8009a683b69da60fb689b683a6904325a600a
:101608003b691a1dfb689a603b69da6a13469b00be
:1016180013449b00164a1a443b695a613b69da6acb
:10162800134913469b0013449b000b441b68591c29
:101638000f4813469b0013449b000344196004e0c1
:101648000a4b1b68da6a3b69da6201237b6108e0ae
:101658003b695a6c054b1b68db6a9a4201d201232d
:101668007b617b6918461837bd4680bd14a20020ef
:1016780018a20020f4a2002080b586b000af7860e0
:101688007b683b6100237b617b68002b6cd03b69e6
:101698009b6c5a1e3b699a643b69da6a3b695b6cce
:1016a8009a4261d03b699b6c002b5dd13b69043346
:1016b800184608f0f1fb0346002b0ad13b69db6aa8
:1016c800012202fa03f3da432a4b1b681340294a22
:1016d80013603b695a6c3b69da623b69db6ac3f1a8
:1016e80005023b699a613b69db6a01229a40214bfa
:1016f8001b6813431f4a13603b69da6a1e49134685
:101708009b0013449b000b4404331b68fb603b693c
:10171800fa689a60fb689a683b69da60fb689b68bc
:101728003a6904325a603b691a1dfb689a603b6942
:10173800da6a13469b0013449b000f4a1a443b691c
:101748005a613b69da6a0c4913469b0013449b00b3
:101758000b441b68591c084813469b0013449b0004
:101768000344196001237b617b6918461837bd461d
:1017780080bd00bff4a2002018a2002080b588b068
:1017880000af786039607b68bb6101237b617b684f
:10179800002b00f08180bb695b6c3a689a4202d9e1
:1017a8003b68fb6102e0bb695b6cfb61bb69db6aa0
:1017b800fa699a4270d0bb699b6c7a699a426bd17c
:1017c800bb69db6a3b61bb69fa69da62bb699b6921
:1017d800002b04dbfb69c3f10502bb699a61bb6995
:1017e80059693a6913469b0013449b002c4a1344d9
:1017f800994251d1bb690433184608f04dfb0346a2
:10180800002b0ad1bb69db6a012202fa03f3da432f
:10181800244b1b681340234a1360bb69db6a01220f
:101828009a40204b1b6813431e4a1360bb69da6a4f
:101838001b4913469b0013449b000b4404331b684d
:10184800fb60bb69fa689a60fb689a68bb69da60f2
:10185800fb689b68ba6904325a60bb691a1dfb6849
:101868009a60bb69da6a13469b0013449b000c4ad2
:101878001a44bb695a61bb69da6a094913469b0075
:1018880013449b000b441b68591c054813469b00d6
:1018980013449b000344196000bf2037bd4680bd38
:1018a80018a20020f4a2002080b483b000af094b36
:1018b8001b689b697b60074b1b68da6a054b1b68d2
:1018c800c2f105029a617b6818460c37bd465df87f
:1018d800047b704714a2002080b400af074b1b683c
:1018e800002b04d0054b1b689a6c01329a64034b99
:1018f8001b681846bd465df8047b704714a200209b
:1019080080b586b000aff860b9607a6007f08df8ee
:10191800284b1a68fb6812339b0013445b68002b42
:1019280015d1244b1a68fb681344503301221a70ee
:101938007b68002b0bd00121786800f0f9fb1e4b67
:101948004ff080521a60bff34f8fbff36f8f07f0cd
:1019580085f807f06af8174b1a68fb6812339b0082
:1019680013445b687b617b69002b14d0bb68002b38
:1019780008d0104b1a68fb6812339b0013440022ee
:101988005a6008e00b4b19687b695a1efb681233d2
:101998009b000b445a60074b1a68fb68134450338a
:1019a80000221a7007f05af87b6918461837bd46a6
:1019b80080bd00bf14a2002004ed00e080b586b011
:1019c80000aff860b9607a603b6007f02ef8344bde
:1019d8001a68fb68134450331b78dbb2022b24d0ff
:1019e8002f4b1a68fb6812339b0013445968bb6875
:1019f800db431940fb6812339b0013445960284ba2
:101a08001a68fb681344503301221a703b6a002b92
:101a18000bd00121386a00f08bfb224b4ff080522b
:101a28001a60bff34f8fbff36f8f07f017f806f0f8
:101a3800fcff3b68002b08d0194b1a68fb6812336f
:101a48009b0013445a683b681a60154b1a68fb6878
:101a5800134450331b78dbb2022b02d000237b6186
:101a680010e00f4b1a68fb6812339b001344596847
:101a78007b68db431940fb6812339b0013445960b1
:101a880001237b61064b1a68fb681344503300221c
:101a98001a7006f0e3ff7b6918461837bd4680bd0b
:101aa80014a2002004ed00e080b58ab000aff86011
:101ab800b9607a60fb7001237b62fb683b6206f0c9
:101ac800b4ff3b6b002b07d03a6abb6812339b000c
:101ad80013445a683b6b1a603a6abb681344503324
:101ae8001b78fb773a6abb681344503302221a709a
:101af800fb78042b3fd801a252f823f07f1b00018a
:101b0800191b0001371b0001531b0001631b000157
:101b18003a6abb6812339b0013445a687b681a43bd
:101b2800396abb6812339b000b445a6024e03a6a56
:101b3800bb6812339b0013445b685a1c396abb6844
:101b480012339b000b445a6016e03a6abb681233a2
:101b58009b0013447a685a600ee0fb7f022b07d083
:101b68003a6abb6812339b0013447a685a6003e0f0
:101b780000237b6200e000bffb7f012b6cd13b6a36
:101b88005b69bb613b6a9b683a6ad2689a603b6a48
:101b9800db683a6a92685a60bb695a683b6a0433e0
:101ba8009a4203d13b6ada68bb695a603b6a0022f1
:101bb8005a61bb691b685a1ebb691a603b6adb6abb
:101bc80001229a40284b1b681343274a13603b6a3b
:101bd800da6a264913469b0013449b000b440433de
:101be8001b687b613b6a7a699a607b699a683b6a81
:101bf800da607b699b683a6a04325a603b6a1a1d4c
:101c08007b699a603b6ada6a13469b0013449b001f
:101c1800164a1a443b6a5a613b6ada6a1349134600
:101c28009b0013449b000b441b68591c0f48134628
:101c38009b0013449b00034419603b6ada6a0c4b0f
:101c48001b68db6a9a4207d90a4b4ff080521a6028
:101c5800bff34f8fbff36f8f06f000ff7b6a184604
:101c68002837bd4680bd00bff4a2002018a200207e
:101c780014a2002004ed00e080b48fb000aff8603b
:101c8800b9607a60fb7001237b63fb683b63eff309
:101c980011824ff0200383f31188bff36f8fbff3d6
:101ca8004f8fba617b61bb69fb623b6c002b07d02d
:101cb8003a6bbb6812339b0013445a683b6c1a603a
:101cc8003a6bbb68134450331b7887f82b303a6b58
:101cd800bb681344503302221a70fb78042b41d896
:101ce80001a252f823f000bf6d1d0001051d00017f
:101cf800231d00013f1d00014f1d00013a6bbb6809
:101d080012339b0013445a687b681a43396bbb68cb
:101d180012339b000b445a6025e03a6bbb681233c0
:101d28009b0013445b685a1c396bbb6812339b00d9
:101d38000b445a6017e03a6bbb6812339b0013449c
:101d48007a685a600fe097f82b30022b07d03a6b6d
:101d5800bb6812339b0013447a685a6003e000237f
:101d68007b6300e000bf97f82b30012b40f08f8099
:101d78004d4b1b68002b5ed13b6b5b697b623b6bf9
:101d88009b683a6bd2689a603b6bdb683a6b9268e7
:101d98005a607b6a5a683b6b04339a4203d13b6ba7
:101da800da687b6a5a603b6b00225a617b6a1b685f
:101db8005a1e7b6a1a603b6bdb6a01229a403b4bd6
:101dc8001b681343394a13603b6bda6a3849134678
:101dd8009b0013449b000b4404331b683b623b6b22
:101de8003a6a9a603b6a9a683b6bda603b6a9b681e
:101df8003a6b04325a603b6b1a1d3b6a9a603b6b24
:101e0800da6a13469b0013449b00294a1a443b6b29
:101e18005a613b6bda6a264913469b0013449b00c0
:101e28000b441b68591c224813469b0013449b0013
:101e3800034419601be01f4b5b68fb613b6bfa694d
:101e4800da61fb699a683b6b1a62fb699b683a6bbb
:101e580018325a603b6b03f11802fb699a603b6bbe
:101e6800144a9a62134b1b680133124a13603b6b86
:101e7800da6a114b1b68db6a9a4208d97b6c002b23
:101e880002d07b6c01221a600c4b01221a60fb6a9b
:101e98003b613b6983f311887b6b18463c37bd4631
:101ea8005df8047b704700bf14a30020f4a2002053
:101eb80018a20020aca2002014a2002000a3002039
:101ec80080b48fb000aff860b9607a60fb687b635c
:101ed800eff311824ff0200383f31188bff36f8f64
:101ee800bff34f8ffa61bb61fb693b637a6bbb68d9
:101ef800134450331b7887f82f307a6bbb68134430
:101f0800503302221a707a6bbb6812339b00134459
:101f18005b685a1c796bbb6812339b000b445a6090
:101f280097f82f30012b40f08f804d4b1b68002b0a
:101f38005ed17b6b5b69bb627b6b9b687a6bd2689b
:101f48009a607b6bdb687a6b92685a60bb6a5a68e6
:101f58007b6b04339a4203d17b6bda68bb6a5a60a5
:101f68007b6b00225a61bb6a1b685a1ebb6a1a60e7
:101f78007b6bdb6a01229a403a4b1b681343394a50
:101f880013607b6bda6a384913469b0013449b0045
:101f98000b4404331b687b627b6b7a6a9a607b6aaa
:101fa8009a687b6bda607b6a9b687a6b04325a604a
:101fb8007b6b1a1d7b6a9a607b6bda6a13469b00ff
:101fc80013449b00284a1a447b6b5a617b6bda6a7c
:101fd800254913469b0013449b000b441b68591c5e
:101fe800214813469b0013449b00034419601be0df
:101ff8001e4b5b683b627b6b3a6ada613b6a9a68a4
:102008007b6b1a623b6a9b687a6b18325a607b6bef
:1020180003f118023b6a9a607b6b144a9a62134b6d
:102028001b680133114a13607b6bda6a104b1b681b
:10203800db6a9a4208d97b68002b02d07b680122b0
:102048001a600c4b01221a603b6b7b617b6983f33e
:10205800118800bf3c37bd465df8047b704700bf60
:1020680014a30020f4a2002018a20020aca2002093
:1020780014a2002000a3002080b584b000af7860cf
:1020880039607b68002b02d1104b1b6800e07b682d
:10209800bb6006f0cafcba683b68134450331b782f
:1020a800dbb2022b08d1ba683b68134450330022d4
:1020b8001a700123fb6001e00023fb6006f0cefcf0
:1020c800fb6818461037bd4680bd00bf14a200202b
:1020d80080b586b000aff860b9607a60fb68002b05
:1020e80002d1124b1b6800e0fb687b6106f09dfc87
:1020f8007a69bb6812339b0013445b683b617a6959
:10210800bb6812339b0013445a687b68db431a4050
:102118007969bb6812339b000b445a6006f09efc39
:102128003b6918461837bd4680bd00bf14a2002081
:1021380080b586b000af78603960364b1b687b612c
:10214800354b1b680433184607f0a6fe0346002be0
:102158000bd1314b1b68db6a012202fa03f3da4325
:102168002e4b1b6813402d4a13607b68b3f1ff3f69
:1021780024d13b68002b21d0294b5b683b61264b5f
:102188001b683a699a60244b1b683a699268da605e
:10219800214b1a683b699b6804325a601e4b1b68c6
:1021a8001a1d3b699a601c4b1b681d4a5a611c4bdf
:1021b8001b6801331a4a136000bf26e07a697b68fe
:1021c8001344fb60144b1b68fa685a60fa687b6911
:1021d8009a4209d2134b1a680f4b1b6804331946ed
:1021e800104607f020fe10e00f4b1a680a4b1b68d8
:1021f80004331946104607f016fe0c4b1b68fa68a4
:102208009a4202d2094afb68136000bf1837bd46dc
:1022180080bd00bff0a2002014a20020f4a200207c
:10222800d8a20020a8a20020a4a200200ca300206d
:020000040000fa
:020000040100f9
:1022380080b584b000af78600b46fb70fb78fb601c
:102248007b681b0903f58803223318027b6803f0b7
:102258000f03012202fa03f17b6803f00f03fa6807
:1022680002fa03f31a4605f04bfd00bf1037bd46ce
:1022780080bd80b500af0a4b1b68ff2b09d0094908
:102288000a2004f08dfe064b1b6801211846fff753
:10229800cfff034b5b681846fef7e0f800bf80bd30
:1022a80078a400203c68000180b500af0a4b1b6889
:1022b800ff2b09d009490a2004f072fe064b1b685f
:1022c80000211846fff7b4ff034b5b681846fef77a
:1022d800c5f800bf80bd00bf78a400204868000191
:1022e80080b584b000af7860786800f02df80023de
:1022f800fb6008e0114afb684ff6ff7122f81310e3
:10230800fb680133fb60fb681f2bf3dd0023bb6018
:1023180008e00b4abb684ff6ff7122f81310bb6840
:102328000133bb60bb681f2bf3dd06490a2004f0ac
:102338008bfe00bf1037bd4680bd00bff8a300204c
:1023480038a400205468000180b582b000af7860de
:1023580089490a2004f024fe7b681b68874a1360b9
:102368007b681b6903f07f03844a13617b68db6821
:10237800824ad3607b689b68804a93607b689b69cc
:1023880003f007037d4a93617b685b6903f00703e9
:102398007a4a53617b685b68784a53607b68db697b
:1023a80003f00103754ad3617b681b6a734a1362a1
:1023b8007b6893f82420714b83f824207b689b6a00
:1023c80003f003036d4a93627b6893f82c206b4bf0
:1023d80083f82c207b681b6b03f00703674a1363a1
:1023e8007b6893f83420654b83f834207b6893f836
:1023f8003520624b83f835207b689b6b03f0010323
:102408005e4a93637b6893f83c205c4b83f83c20de
:102418007b681b6c03f00103584a13647b685b6c90
:1024280003f00103554a53647b689b6c03f01f0358
:10243800524a93647b68db6c03f07f034f4ad36492
:102448007b681b6d4d4a13657b685b6d4b4a536512
:102458007b689b6d494a93657b68db6d474ad3650a
:10246800464bd3ed167a9fed467af4eec77af1ee35
:1024780010fa02dd414b434a9a65404b9b6d184662
:1024880008f098ff36a3d3e9002308f03eff03467f
:10249800002b02d0394b3c4a9a65384bd3ed177a5a
:1024a8009fed377af4eec77af1ee10fa02dd334b7e
:1024b800344ada65314bdb6d184608f07bff28a3f8
:1024c800d3e9002308f021ff0346002b02d02b4b51
:1024d8002d4ada65294b1b6d184608f06bff22a3bd
:1024e800d3e9002308f0f5fe0346002b02d0234b66
:1024f800264a1a65214b1b6d184608f05bff1ca382
:10250800d3e9002308f001ff0346002b02d01b4b40
:102518001f4a1a65194b5b6d184608f04bff12a34a
:10252800d3e9002308f0d5fe0346002b02d0134b55
:10253800164a5a65114b5b6d184608f03bff0ca311
:10254800d3e9002308f0e1fe0346002b00d102e0a6
:102558000a4b0f4a5a6500bf0837bd4680bd00bf09
:102568009a999999991943c03333333333e37740b0
:1025780066666666661271c07068000178a40020fd
:102588000000fa420000fa42cdcc18c29a19bf43a3
:10259800008088c380b487b000af786039600023ba
:1025a800fb7500233b6121e03b697a6813441a7884
:1025b800fb7d5340fb750823fb6011e097f917304a
:1025c800002b07dafb7d5b005bb283f007035bb28d
:1025d800fb7502e0fb7d5b00fb75fb68013bfb6064
:1025e800fb68002bead13b6901333b613b693a68e0
:1025f8009a42d9d8fb7d18461c37bd465df8047b46
:10260800704780b584b000af0346fb711e4b1b6951
:10261800dbb25b00dbb23b72fb797b720023bb72df
:1026280007f108030233fb6007f10803022118468b
:10263800fff7b0ff03461a46fb681a70124b1b6976
:1026480098b207f1080301330222194606f038fb55
:102658000346fb720c4bdb681846fdf7fffefb7a5e
:10266800002b07d0084b1a697b7a08490a2004f026
:1026780097fc03e006490a2004f08efdfb7a184611
:102688001037bd4680bd00bf78a4002088680001cf
:10269800a868000190b58db004af03460a46fb71e7
:1026a8001346bb802d4b1b69dbb25b00dbb23b736f
:1026b800fb797b730023bb730023fb7300233b74fc
:1026c80007f10c030233fb6107f10c030333bb6111
:1026d80007f10c0304337b61bb88dab2fb691a701b
:1026e800bb881b0a9bb2dab2bb691a7007f10c03ec
:1026f80004211846fff74eff03461a467b691a70f5
:10270800164b1b6998b207f10c03013304221946d2
:1027180006f0d6fa0346fb74104bdb681846fdf743
:102728009dfefb7c002b0fd00c4b1a697b7b1c4653
:10273800bb7bf97b387c02900191009323460849c2
:102748000a2004f02dfc03e006490a2004f024fdc9
:10275800fb7c18462437bd4690bd00bf78a40020f6
:10276800c4680001f468000190b58db004af034659
:102778003960fb713a4b1b69dbb25b00dbb23b7221
:10278800fb797b72364b1b69dbb25b00dbb2013332
:10279800dbb2bb720023fb7200233b7300237b7305
:1027a8002f4b1b6998b207f10803da1c07f10803dd
:1027b800591c032300931346012206f01ffa03460f
:1027c800fb77274bdb681846fdf748fefb7f002b9d
:1027d8003cd007f108030333bb6107f10803043356
:1027e8007b6107f1080305333b617b691b781b029a
:1027f8001ab2bb691b781bb213431bb29ab23b686f
:102808001a80174b1a697b7a1c46fb7a397b787bce
:10281800029001910093234612490a2004f0c0fb5c
:1028280007f1080305211846fff7b4fe03461a46c8
:102838003b691b789a4205d10b490a2004f0b0fb8a
:10284800012308e009490a2004f0a6fc08490a20e7
:1028580004f0a2fc002318462437bd4690bd00bff3
:1028680078a400200c6900013c6900015c69000142
:102878007869000180b584b000af03460a46fb7151
:102888001346bb8097f9073003f01f035bb243f090
:1028980020035bb2fb73ba88fb7b11461846fff72f
:1028a800f9fe034618461037bd4680bd80b584b092
:1028b80000af03463960fb7197f9073003f01f0337
:1028c8005bb243f020035bb2fb73fb7b39681846ad
:1028d800fff74aff034618461037bd4680bd80b54e
:1028e80084b000af03463960fb71fb7903f01f0326
:1028f800fb73fb7b39681846fff736ff034618461b
:102908001037bd4680bd80b582b000af00237b6024
:1029180019e07b68d8b27b685b000f4a13441946fc
:10292800fff7ddff034683f00103dbb2002b07d07e
:10293800094a7b684ff6ff7122f81310002306e05e
:102948007b6801337b607b681f2be2dd012318461f
:102958000837bd4680bd00bf38a4002080b582b0ce
:1029680000af00237b6019e07b68d8b27b685b000e
:102978000e4a13441946fff799ff034683f00103f3
:10298800dbb2002b07d0094a7b684ff6ff7122f8ab
:102998001310002306e07b6801337b607b681f2be4
:1029a800e2dd012318460837bd4680bdf8a30020a4
:1029b80080b582b000af03463a60fb800b467b715e
:1029c8007b7900211846fff755ff0346002b1dd0e1
:1029d800fa887b7911461846fff74cff0346002b0f
:1029e80014d07b7939681846fff760ff0346002b3f
:1029f8000cd03b681b88fa889a4201d101230ae06f
:102a0800fa887b7906490a2004f0c6fb3b684ff632
:102a1800ff721a80002318460837bd4680bd00bfe4
:102a28009069000180b584b000af03463960fb802f
:102a38001346bb800c4b5a89fb881340fb81ba882c
:102a48003b6802fa03f31ab2b7f90e3013431bb20c
:102a5800fb81fb89054a05211846fff7a9ff0346b4
:102a680018461037bd4680bdf8a3002002a40020f8
:102a780080b584b000af0346fb80134b5b891b1203
:102a88009bb203f00703fb81fb8803f00703fb807d
:102a9800fa89fb889a4212d0fb881a4608214ff619
:102aa800ff00fff7bfff0346002b06d0fb881a463e
:102ab80006490a2004f0c8fa01e0002300e00123d7
:102ac80018461037bd4680bdf8a30020c069000134
:102ad80080b584b000af0346fb80124b5b8903f0de
:102ae8000703fb81fb8803f00703fb80fa89fb8857
:102af8009a4212d0fb881a4600214ff6f870fff769
:102b080091ff0346002b06d0fb881a4606490a2087
:102b180004f09afa01e0002300e001231846103778
:102b2800bd4680bdf8a30020d869000180b584b0f7
:102b380000af0346fb80134b5b899b119bb203f0ec
:102b48000103fb81fb8803f00103fb80fa89fb8802
:102b58009a4212d0fb881a4606214ff6bf70fff73b
:102b680061ff0346002b06d0fb881a4606490a2057
:102b780004f06afa01e0002300e001231846103748
:102b8800bd4680bdf8a30020f069000180b584b07f
:102b980000af0346fb71124b5b89db109bb203f05d
:102ba8000103fb81fb79bb81fa89bb899a4212d068
:102bb800bb891a4603214ff6f770fff733ff034628
:102bc800002b06d0bb891a4606490a2004f03cfab5
:102bd80001e0002300e0012318461037bd4680bd00
:102be800f8a300200c6a000180b584b000af03464a
:102bf800fb80134b5b891b119bb203f00303fb8122
:102c0800fb8803f00303fb80fa89fb889a4212d001
:102c1800fb881a4604214ff6cf70fff703ff0346df
:102c2800002b06d0fb881a4606490a2004f00cfa45
:102c380001e0002300e0012318461037bd4680bd9f
:102c4800f8a30020346a000180b584b000af0346c1
:102c5800fb80134b5b89db119bb203f00103fb8103
:102c6800fb8803f00103fb80fa89fb889a4212d0a3
:102c7800fb881a4607214ff67f70fff7d3fe0346fd
:102c8800002b06d0fb881a4606490a2004f0dcf916
:102c980001e0002300e0012318461037bd4680bd3f
:102ca800f8a30020506a000180b584b000af034645
:102cb800fb80134b5b89db129bb203f00703fb819c
:102cc800fb8803f00703fb80fa89fb889a4212d03d
:102cd800fb881a460b214cf2ff70fff7a3fe034650
:102ce800002b06d0fb881a4606490a2004f0acf9e6
:102cf80001e0002300e0012318461037bd4680bddf
:102d0800f8a300206c6a000180b584b000af0346c8
:102d1800fb71124b5b899b139bb203f00103fb8190
:102d2800fb79bb81fa89bb899a4212d0bb891a46c2
:102d38000e214bf6ff70fff775fe0346002b06d0f9
:102d4800bb891a4606490a2004f07ef901e00023ef
:102d580000e0012318461037bd4680bdf8a30020c7
:102d6800846a000180b584b000af0346fb71114b43
:102d78005b89db0bfb81fb79bb81fa89bb899a42b2
:102d880012d0bb891a460f2147f6ff70fff74afe9b
:102d98000346002b06d0bb891a4607490a2004f0cf
:102da80053f901e0002300e0012318461037bd461f
:102db80080bd00bff8a30020a06a000190b585b0cf
:102dc80000af87ed010ad7ed017ab7ee007af4ee8d
:102dd800c77af1ee10fa02dd4ff07e537b60786817
:102de80008f0e8fa3aa3d3e9002308f08efa03467c
:102df800002b01d02e4b7b60d7ed017a9fed2d7a09
:102e080067ee877a17ee900a08f0d4fa4ff00002be
:102e1800294b06f03ff903460c461846214608f0b0
:102e2800c1fb0346fb81254b1b89fa899a4201d1d4
:102e3800012337e06020fff7e4fb0346002b25d091
:102e4800fb891f4a04211846fff7b2fd0346002bf1
:102e58001cd01a4bdb8b1b4a0f211846fff7a8fd25
:102e68000346002b12d06120fff7cbfb0346002b53
:102e78000cd0786808f09efa03460c461a4623469a
:102e880011490a2004f0e0f801230be0786808f003
:102e980091fa03460c461a4623460c490a2004f0c8
:102ea8007bf9002318461437bd4690bdaff3008068
:102eb800cdcc4c3d00ff7f470000e03ff8a3002049
:102ec80000a4002016a40020c46a0001e46a0001de
:102ed8009a9999999999a93f80b582b000af03460c
:102ee800fb80134b9b8bfa889a4201d101231ae08d
:102ef800fb88104a0e211846fff75afd034683f057
:102f08000103dbb2002b07d0fb881a460a490a20c6
:102f180004f042f9002306e0fb881a4607490a2014
:102f280004f092f8012318460837bd4680bd00bf5b
:102f3800f8a3002014a40020086b0001306b0001e6
:102f480090b585b000af87ed010a786808f032facd
:102f580035a3d3e9002308f0bcf90346002b01d0c0
:102f68002b4b7b60786808f025fa25a3d3e900236a
:102f780008f0cbf90346002b01d0264b7b6078681c
:102f880008f018fa20a3d3e9002306f083f80346d3
:102f98000c46184621464ff000021f4b07f0a4f9d3
:102fa80003460c461846214608f0fcfa0346fb8106
:102fb8001a4b1b88fa899a4201d101231ae0fb892e
:102fc800164a00211846fff7f3fc034683f0010375
:102fd800dbb2002b07d0fb891a4611490a2004f0fe
:102fe800dbf8002306e0fb891a460e490a2004f0a4
:102ff8002bf8012318461437bd4690bdaff3008067
:1030080066666666661271c06666666666127140b6
:103018009a19bf43008088c300005940f8a30020d4
:10302800506b0001706b00013333333333e3774067
:1030380090b585b000af87ed010a786808f0baf955
:1030480036a3d3e9002308f044f90346002b01d046
:103058002b4b7b60786808f0adf925a3d3e90023f2
:1030680008f053f90346002b01d0264b7b607868a3
:1030780008f0a0f920a3d3e9002306f00bf80346d3
:103088000c46184621464ff000021f4b07f02cf95a
:1030980003460c461846214608f084fa0346fb818d
:1030a8001a4b5b88fa899a4201d101231ae0fb89fd
:1030b800174a01211846fff77bfc034683f00103fa
:1030c800dbb2002b07d0fb891a4612490a2004f00c
:1030d80063f8002306e0fb891a460f490a2003f02b
:1030e800b3ff012318461437bd4690bdaff30080e7
:1030f80066666666661271c06666666666127140c6
:103108009a19bf43008088c300005940f8a30020e3
:10311800faa300208c6b0001ac6b0001333333330e
:1031280033e3774090b585b000af87ed010ad7ed5e
:10313800017a9fed377af4eec77af1ee10fa01dde5
:10314800344b7b60786808f035f92da3d3e9002368
:1031580008f0dbf80346002b01d02f4b7b60786822
:1031680008f028f928a3d3e9002305f093ff0346c4
:103178000c46184621464ff00002284b07f0b4f8d9
:1031880003460c461846214608f00cfa0346fb8114
:10319800fb89dbb2fb81224bdb88dbb2bb81fb897d
:1031a8001b021ab2b7f90c3013431bb2bb811c4b7c
:1031b800db88ba899a4201d101231ae0bb89194aee
:1031c80003211846fff7f4fb034683f00103dbb243
:1031d800002b07d0fb891a4613490a2003f0dcffad
:1031e800002306e0fb891a4610490a2003f02cff49
:1031f800012318461437bd4690bd00bfaff30080c9
:103208009a999999991943c09a9999999919434002
:103218000000fa420000fa42cdcc18c20000f93f83
:10322800f8a30020fea30020c86b0001e86b000192
:1032380090b585b000af87ed010ad7ed017a9fed13
:10324800387af4eec77af1ee10fa01dd354b7b607f
:10325800786808f0aff82ea3d3e9002308f055f8f2
:103268000346002b01d0304b7b60786808f0a2f849
:1032780029a3d3e9002305f00dff03460c461846a1
:1032880021464ff00002294b07f02ef803460c4662
:103298001846214608f086f90346fb81fb89dbb214
:1032a800fb81234bdb8823f0ff03bb81b7f90e308a
:1032b800dbb21ab2b7f90c3013431bb2bb811c4bfb
:1032c800db88ba899a4201d101231ae0bb89194add
:1032d80003211846fff76cfb034683f00103dbb2ba
:1032e800002b07d0fb891a4613490a2003f054ff24
:1032f800002306e0fb891a4610490a2003f0a4fec1
:10330800012318461437bd4690bd00bfaff30080b7
:103318009a999999991943c09a99999999194340f1
:103328000000fa420000fa42cdcc18c20000f93f72
:10333800f8a30020fea30020046c0001246c000107
:1033480080b584b000af03463960fb801346bb806c
:103358000e4b9a88fb881340fb81ba88fb88db43b5
:103368009bb21a403b6802fa03f31ab2b7f90e305f
:1033780013431bb2fb81fb89054a02211846fff75c
:1033880017fb034618461037bd4680bdf8a300203a
:10339800fca3002080b584b000af0346fb80124b2d
:1033a8009b8803f00103fb81fb8803f00103fb808a
:1033b800fa89fb889a4212d0fb881a4600214ff6f8
:1033c800fe70fff7bdff0346002b06d0fb881a46a8
:1033d80006490a2003f038fe01e0002300e001233b
:1033e80018461037bd4680bdf8a30020406c000188
:1033f80080b584b000af0346fb71124b9b885b100d
:103408009bb203f00103fb81fb79bb81fa89bb897d
:103418009a4212d0bb891a4601214ff6fd70fff778
:103428008fff0346002b06d0bb891a4606490a209f
:1034380003f00afe01e0002300e0012318461037dc
:10344800bd4680bdf8a30020606c000180b584b043
:1034580000af0346fb80134b9b889b109bb203f085
:103468000103fb81fb8803f00103fb80fa89fb88d9
:103478009a4212d0fb881a4602214ff6fb70fff7da
:103488005fff0346002b06d0fb881a4606490a2030
:1034980003f0dafd01e0002300e0012318461037ad
:1034a800bd4680bdf8a300207c6c000180b584b0c7
:1034b80000af0346fb80134b9b88db109bb203f0e5
:1034c8000103fb81fb8803f00103fb80fa89fb8879
:1034d8009a4212d0fb881a4603214ff6f770fff77d
:1034e8002fff0346002b06d0fb881a4606490a2000
:1034f80003f0aafd01e0002300e00123184610377d
:10350800bd4680bdf8a30020946c000180b584b04e
:1035180000af0346fb80134b9b881b119bb203f043
:103528001f03fb81fb8803f01f03fb80fa89fb88dc
:103538009a4212d0fb881a4604214ff60f60fff713
:10354800fffe0346002b06d0fb881a4606490a20d0
:1035580003f07afd01e0002300e00123184610374c
:10356800bd4680bdf8a30020b06c000180b584b0d2
:1035780000af0346fb80124b9b885b0afb81fb88ec
:1035880003f07f03fb80fa89fb889a4212d0fb88fc
:103598001a4609214ff48070fff7d2fe0346002b2c
:1035a80006d0fb881a4607490a2003f04dfd01e0c2
:1035b800002300e0012318461037bd4680bd00bf38
:1035c800f8a30020d86c000180b584b000af786003
:1035d8000123fb737868fef783fefef74afefff7c8
:1035e800bdf9034683f00103dbb2002b01d00123b0
:1035f800fce0fff788f9034683f00103dbb2002bf8
:1036080001d00223f2e0fb7b002b07d0794b5b69ea
:103618009bb21846fff72cfa0346fb73fb7b002b83
:1036280007d0744b9b699bb21846fff751fa0346c3
:10363800fb73fb7b002b07d06e4bdb699bb21846f4
:10364800fff774fa0346fb73fb7b002b07d0694b2b
:1036580093f824301846fff799fa0346fb73fb7b6f
:10366800002b07d0634b9b6a9bb21846fff7bcfa46
:103678000346fb73fb7b002b08d05e4b93f82c3082
:103688009bb21846fff7e0fa0346fb73fb7b002b5f
:1036980007d0584b93f834301846fff735fb0346ec
:1036a800fb73fb7b002b07d0524b93f83530184641
:1036b800fff758fb0346fb73fb7b002b07d04d4bf2
:1036c8001b6b9bb21846fff7effa0346fb73fb7bb5
:1036d800002b07d0474b9b6b9bb21846fff75afe4f
:1036e8000346fb73fb7b002b07d0424b93f83c301f
:1036f8001846fff77dfe0346fb73fb7b002b07d0c4
:103708003c4b1b6c9bb21846fff7a0fe0346fb73ad
:10371800fb7b002b07d0374b5b6c9bb21846fff73f
:10372800c5fe0346fb73fb7b002b07d0314b9b6c1c
:103738009bb21846fff7eafe0346fb73fb7b002ba0
:1037480007d02c4bdb6c9bb21846fff70fff0346e4
:10375800fb73fb7b002b08d0264bd3ed147ab0ee1d
:10376800670afff7edfb0346fb73fb7b002b08d0d2
:10377800204bd3ed157ab0ee670afff759fc0346e4
:10378800fb73fb7b002b08d01a4bd3ed167ab0eef7
:10379800670afff7c7fc0346fb73fb7b002b08d0c7
:1037a800144bd3ed177ab0ee670afff741fd0346d5
:1037b800fb73fb7b002b08d00e4bd3ed087ab0eee1
:1037c800670afff7fbfa0346fb73fb7b83f00103f1
:1037d800dbb2002b01d0042308e0fef765fdfef7fd
:1037e80048fd05490a2003f02ffc0023184610372e
:1037f800bd4680bd78a40020fc6c000180b500aff8
:10380800fef752fd02490a2003f01efc00bf80bdee
:10381800206d000190b583b000af78602c49062078
:10382800fff75df8034683f00103dbb2002b05d0f8
:10383800284b4ff6ff729a8102233ee0254b9b8965
:103848001bb29bb2db0bdab2224b9b8942f2ac7102
:103858008b4294bf01230023dbb21343dbb2002b5e
:1038680001d0082329e01b4b9b8907ee903af8ee1c
:10387800677a9fed197a67ee877a17ee900a07f054
:1038880099fd11a3d3e9002307f0a8ff03460c46ce
:103898001846214607f014fc02467b681a607b68cc
:1038a8001b68184607f086fd03460c461a46234651
:1038b8000a490a2003f0c8fb002318460c37bd4606
:1038c80090bd00bfaff30080666666666612714001
:1038d80044a4002038a400200ad7a33c2c6d000182
:1038e80090b583b000af78602b490720fef7f7ff4b
:1038f800034683f00103dbb2002b05d0274b4ff6bc
:10390800ff72da8102233ee0244bdb891bb29bb2b3
:10391800db0bdab2214bdb8942f2ac718b4294bfec
:1039280001230023dbb21343dbb2002b01d00823b1
:1039380029e01a4bdb8907ee903af8ee677a9fed9b
:10394800187a67ee877a17ee900a07f033fd10a30e
:10395800d3e9002307f042ff03460c4618462146e8
:1039680007f0aefb02467b681a607b681b68184646
:1039780007f020fd03460c461a46234609490a204b
:1039880003f062fb002318460c37bd4690bd00bf0c
:10399800666666666612714046a4002038a4002058
:1039a8000ad7a33c446d000190b583b000af78609e
:1039b800314b5b8903f04003002b05d17b684ff046
:1039c80000021a6000234ee02c490820fef787ff0a
:1039d800034683f00103dbb2002b05d0284b4ff6da
:1039e800ff721a8202233ee0254b1b8a1bb29bb250
:1039f800db0bdab2224b1b8a42f2ac718b4294bfca
:103a080001230023dbb21343dbb2002b01d00823d0
:103a180029e01b4b1b8a07ee903af8ee677a9fed78
:103a2800197a67ee877a17ee900a07f0c3fc10a39d
:103a3800d3e9002307f0d2fe03460c461846214678
:103a480007f03efb02467b681a607b681b681846d5
:103a580007f0b0fc03460c461a4623460a490a20da
:103a680003f0f2fa002318460c37bd4690bd00bf9c
:103a78006666666666127140f8a3002048a40020b6
:103a880038a400200ad7a33c5c6d000180b582b041
:103a980000af78600f490420fef721ff034683f04a
:103aa8000103dbb2002b05d00b4b4ff6ff721a81d6
:103ab80002230be0084b1a897b681a807b681b88f5
:103ac8001a4606490a2003f0bffa002318460837a9
:103ad800bd4680bd40a4002038a40020746d0001bc
:103ae80080b582b000af7860154b5b8903f0400366
:103af800002b04d17b6800221a8000231be01149a7
:103b08000520fef7ecfe034683f00103dbb2002b31
:103b180005d00d4b4ff6ff725a8102230be00a4b7a
:103b28005a897b681a807b681b881a4607490a20cd
:103b380003f08afa002318460837bd4680bd00bf47
:103b4800f8a3002042a4002038a40020906d0001b2
:103b5800f0b585b000af4ff000014ff00002c7e9a3
:103b6800021200227a6024e017497a681c3231f880
:103b7800122091b24ff000027868c000a0f1200e28
:103b8800c0f1200c02fa00f401fa0efe44ea0e0419
:103b980021fa0cfc44ea0c0401fa00f3d7e90212fa
:103ba80041ea030542ea0406c7e902567a68013287
:103bb8007a607a68032ad7ddd7e9023418462146a5
:0c3bc8001437bd46f0bd00bff8a300207c
:020000040000fa
:020000040100f9
:103bd40080b483b000af0346fb80fb880133fb80d5
:103be400fb884ff6ff72934201d10123fb80fb88cf
:103bf40018460c37bd465df8047b704780b483b02b
:103c040000af03460a46fb801346bb80fb881a04b8
:103c1400bb88134318460c37bd465df8047b7047d8
:103c240080b500af0f4b93f83030002b16d14ff610
:103c3400ff710d4804f019fb0346012b0cd1094b0d
:103c440093f90830184606f0cdf903461a46054b99
:103c540083f83120012302e0002300e00123184609
:103c640080bd00bf18a3002050a3002080b500af82
:103c7400094b93f90820084b93f831301946104644
:103c840006f0d2f9044b93f83030002b02d10348ec
:103c940004f00efb00bf80bd18a3002050a3002039
:103ca40080b485b000af78600023fb607b68b3f11b
:103cb400ff3f17d07b68002b14d07b689bb2042b8a
:103cc40010d87b689bb25b010a4a1344fb60fb6813
:103cd400db697a689a4205d1fb681b78002b01d016
:103ce400fb6800e0002318461437bd465df8047bea
:103cf400704700bf58a300202de9f04f8db000afee
:103d04004ff000034ff00004c7e90a344a4bfb614b
:103d1400fb695b6bbb61fb695a69fb691a61bb692f
:103d2400002b2bd0bb699b68b3f5004f11d3fb6903
:103d34005b694ff0000447f6ff714ff0000258181a
:103d4400b86044eb0203fb60d7e90234c7e90a34e4
:103d540022e0bb699b687b61fb695b6919464ff094
:103d640000027b694ff00004c818386042eb04037a
:103d74007b60d7e90034c7e90a340de0fb695b696d
:103d84004ff0000447f6ff714ff0000213eb010af5
:103d940044eb020bc7e90aabfb695b689b69984774
:103da40003469bb24ff00004c7e90834fb691b6962
:103db4004ff00004d7e90812a24208bf99420bd27f
:103dc400d7e908344ff6ff714ff0000213eb0108f6
:103dd40044eb0209c7e90889fb691b6a19464ff0dd
:103de4000002d7e90834cd1842eb0406d7e90a34b7
:103df400b44208bfab4206d23a6afb691b6a1a4452
:103e0400fb69da6102e0ba6afb69da61fb69db69c2
:103e14009bb2002b02d1fb690122da61fb695b686a
:103e24005b69fa69d26992b21046984700bf343789
:103e3400bd46bde8f08f00bf18a3002080b489b050
:103e440000af7860224b3b613b695b6bfb610023f5
:103e5400bb610023fb753b695b6bfb6104e0fb69a1
:103e6400bb61fb699b69fb61fb69002b03d0fa69a9
:103e74007b689a42f3d1fb69002b01d1fb7d21e0e1
:103e84007b689b69002b0ad07b689b68fb607b681e
:103e94009b6999687b689b69fa680a449a60bb6964
:103ea400002b07d13b695b6b9a693b695a63012319
:103eb400fb7503e07b689a69bb699a617b680022a1
:103ec4009a61fb7d18462437bd465df8047b704734
:103ed40018a300202de9f0038ab000af78604ff0fa
:103ee40000034ff00004c7e90834394b3b613b69d8
:103ef4005b6bfb610023bb610023fb757b68002bbc
:103f040001d1fb7d5de07b689b68fb60fb69002b56
:103f14002ad17b68fa689a603b697a685a630123fc
:103f2400fb754de0fb699b6819464ff00002d7e929
:103f34000834cd1842eb0406fb684ff00004b44289
:103f440008bfab4214d3fb699b684ff00004d7e968
:103f5400081211eb030842eb0409c7e90889fb695d
:103f6400bb61fb699b69fb61fb69002bdad100e053
:103f740000bfbb69002b08d13b697a685a637b6830
:103f8400fa699a610123fb7506e0bb699a697b684b
:103f94009a61bb697a689a613b6afa68d21a7b684b
:103fa4009a607b689b69002b0ad07b689b68fb60e6
:103fb4007b689b6999687b689b69fa688a1a9a602e
:103fc400fb7d18462837bd46bde8f003704700bfa7
:103fd40018a3002080b487b000af78600e4b3b611b
:103fe40000237b613b691b69fb607a68fb689a422a
:103ff40004d97a68fb68d31a7b6105e07a68fb68a8
:10400400d31a03f580337b617b6918461c37bd46a0
:104014005df8047b704700bf18a3002080b588b00a
:1040240000af7860264b3b613b695b6bfb6100230f
:10403400bb6100237b617b685b7883f00103dbb2a7
:10404400002b0ad000237b6135e0fb699b68ba69c9
:104054001344bb61fb699b69fb61fb69002b03d0c3
:10406400fa697b689a42f0d1fb699b68ba69134488
:10407400bb613b695b689b6998470346fb60f868d2
:10408400fff7a8ff7861ba697b699a4204d3ba69d9
:104094007b69d31abb6101e00023bb61fb695b68e8
:1040a400ba699a4205d8fb695a68bb69d31a7b611d
:1040b40001e000237b617b6918462037bd4680bd43
:1040c40018a3002080b485b000af7860184bbb60a3
:1040d4000023fb60bb685b6bfb6018e0fb689b68bc
:1040e4007a689a4208d8fb689a687b68d21afb6897
:1040f4009a6000237b6007e0fb689b687a68d31aa8
:104104007b60fb6800229a60fb689b69fb60fb682c
:10411400002b02d07b68002be0d1bb685a69bb68d6
:104124001a6100bf1437bd465df8047b704700bfb9
:1041340018a30020f0b587b000af7860204b7b61f6
:1041440000233b610023fb737b695b689b69984791
:1041540003461a467b695a617b695b691846fff717
:1041640039ff38613869fff7adff05f027ff0346d3
:10417400bb737b69d3e90a123b694ff00004cd1885
:1041840042eb04067b69c3e90a56bb7b184605f07b
:104194001cff7868fff79efe0346fb73fb7b002b36
:1041a40009d005f00bff0346bb73fff7a5fdbb7bee
:1041b400184605f00aff00bf1c37bd46f0bd00bf1e
:1041c40018a3002080b582b000af1f4b3b603b6852
:1041d4005b6b7b602ee07b689b68002b2ed17b6839
:1041e40001221a757b6801225a757b689b78002b23
:1041f40009d17b68db68002b05d07b68db69184636
:1042040000f0e4fb09e07868fff718fe7b689b7810
:10421400002b02d17b6800225a707b68db68002b7c
:1042240005d07b68db687a681269104698473b685a
:104234005b6b7b607b68002bcdd100e000bf00bfcf
:104244000837bd4680bd00bf18a3002080b584b0e8
:1042540000af78607868fff735fffff7b3ff0023fe
:10426400fb732de0fb7b1a4a5b01134415331b7867
:10427400dbb2002b21d0fb7b154a5b0113441533c1
:1042840000221a70fb7b124a5b01134402331b7831
:10429400012b12d1fa7bfb7b0d4952010a440432f3
:1042a40012680b495b010b4408331a60fb7b5b010a
:1042b400074a13441846fff70dfefb7b0133fb73db
:1042c400fb7b042bced900bf1037bd4680bd00bf99
:1042d40058a30020f0b587b000af78603960224b56
:1042e4007b617b695b6b3b610023fb607b695b6883
:1042f4009b69984703461a467b695a617b695b69e7
:104304001846fff767fef8607b69d3e90a12fb6879
:104314004ff00004cd1842eb04067b69c3e90a564a
:104324003b69002b12d07b6993f830300133dab249
:104334007b6983f83020f868fff788ff7b6993f87e
:104344003030013bdab27b6983f8302005f036fe69
:104354000346fb72fff7d0fcfb7a184605f035fee6
:1043640000bf1c37bd46f0bd18a3002080b588b03f
:1043740000aff860b9607a603b604ff0ff33fb61d7
:1043840000237b61fff74cfc034683f00103dbb29f
:10439400002b01d0fb6958e02e4b93f90030022b1f
:1043a40050d1bb68002b4dd0ba68fb689a4249d300
:1043b400294bbb6142e0bb691b7883f00103dbb28c
:1043c400002b35d0bb6901221a70bb6900225a70d8
:1043d400bb6900221a75bb6900225a75bb6997f83c
:1043e40028209a70bb69ba685a60bb697a68da6037
:1043f400bb693a681a61ba68fb68d21abb699a60e9
:10440400164b1b887a6992b211461846fff7f6fbe1
:104414000246bb69da61114b1b881846fff7d8fbcb
:1044240003461a460d4b1a80bb69db69fb6109e040
:104434007b6901337b61bb692033bb61bb69084a7b
:104444009342b8d3fff712fcfb6918462037bd46e8
:1044540080bd00bf18a3002058a3002002a600209e
:10446400f8a300202de9f04f89b000af7860444be9
:10447400fb617b68bb61bb691a68fb695a60fb69b5
:104484005b68db6898470246fb69da60fb69db68b6
:104494001d464ff000062b4634464ff000014ff006
:1044a4000002e20042ea5372d9000b4614465b1b39
:1044b40064eb06044ff000014ff00002620142ea8f
:1044c400d36259015b1842eb040413eb050a44eb75
:1044d400060bc7e904abd7e904012a4a4ff00003ed
:1044e40006f0ceff03460c4613f1020844f100091e
:1044f400c7e90289ba68fb691a62bb6993f90420a7
:10450400fb691a72fb6900221a61fb694ff6ff729c
:104514009a61fb6947f6ff72da61fa694ff00003aa
:104524004ff00004c2e90a34fb6900225a63fb69b4
:10453400002283f83020fb695b681b680021124865
:104544009847fb695b681b69002b07d0fb695b68b4
:104554001b69fa69926992b210469847fb695b68d5
:104564005b69fa69d26992b210469847fb695b6845
:104574005b68984700bf2437bd46bde8f08f00bf95
:1045840018a30020006cdc02d942000180b582b07f
:1045940000af03463960fb803b68002b02d0fb88e8
:1045a400002b02d04ff0ff3314e00c4803f031fe2f
:1045b4000346012b02d04ff0ff330be03868fff7be
:1045c40051ffa0220021064807f0a4f8054b02225f
:1045d4001a70044b18460837bd4680bd50a300200e
:1045e40058a3002018a3002080b584b000af7860e1
:1045f4000e4bfb607b68fa689a4212d1fb685b68d9
:104604009b689847a0220021094807f083f84022bc
:104614000021064807f07ef8fb6800221a7000bfec
:1046240000e000bf1037bd4680bd00bf18a30020c6
:1046340058a3002080b485b000af7860094bbb60fc
:104644000023fb737b68ba689a4202d1bb681b786b
:10465400fb7397f90f3018461437bd465df8047b99
:10466400704700bf18a3002080b400af034bdb6881
:104674001846bd465df8047b704700bf18a30020b0
:10468400f0b587b000af154b7b614ff000034ff0de
:104694000004c7e9023405f091fc0346fb717b6911
:1046a4005b689b69984703461846fff793fc38609c
:1046b4007b69d3e90a123b684ff00004cd1842eb42
:1046c4000406c7e90256fb79184605f07efcd7e9d3
:1046d4000234184621461c37bd46f0bd18a30020fd
:1046e40090b583b000affff7cbff03460c467b6069
:1046f4007b6818460c37bd4690bd90b585b000afb9
:10470400786005f05bfc0346fb737b684ff00004a4
:10471400054ac2e90a34fb7b184605f056fc00bf83
:104724001437bd4690bd00bf18a300202de9f04307
:1047340083b000af78607b681d464ff000062b46bf
:1047440034464ff000014ff00002620142ead362a6
:1047540059010b4614465b1b64eb06044ff0000141
:104764004ff00002620242ead35259020b46144649
:104774005b1946eb04044ff000014ff00002a20164
:1047840042ea93629901c91a62eb040211eb05082b
:1047940042eb0609084bdb684ff000041a46234637
:1047a4004046494606f06cfe03460c4618460c3754
:1047b400bd46bde8f08300bf18a30020f0b583b068
:1047c40000af78607b6819464ff000020b46144630
:1047d4004ff000054ff00006660146ead3665d011e
:1047e4002b4634465b1a64eb02044ff000054ff08d
:1047f4000006a60046ea93769d002b4634465b18d5
:1048040042eb04044ff000014ff00002e20042eae0
:104814005372d9000b46144618462146064bdb68f2
:104824004ff000041a46234606f02afe03460c46bf
:1048340018460c37bd46f0bd18a30020b0b582b0b1
:1048440000af78607b6819464ff000020b4bdb68c1
:104854004ff0000403fb02f501fb04f00544a1fb47
:1048640003016b181946064a4ff0000306f008fed0
:1048740003460c4618460837bd46b0bd18a30020b1
:1048840040420f00b0b582b000af78607b68194633
:104894004ff000020c4bdb684ff0000403fb02f501
:1048a40001fb04f00544a1fb03016b1819464ff406
:1048b4007a724ff0000306f0e3fd03460c461846f7
:1048c4000837bd46b0bd00bf18a3002080b586b030
:1048d40002aff860b9607a603b603b7e002b05d183
:1048e4007b68002b02d14ff0ff3308e03b7e00933e
:1048f4003b687a68b968f868fff738fd03461846dc
:104904001037bd4680bd80b586b000aff860b96091
:104914007a603b6000233b610123fb75fff780f95c
:10492400034683f00103dbb2002b01d0fb7d47e09b
:1049340097f82430002b06d13b68002b03d1fff7f6
:1049440095f9fb7d3ce0f868fff7aaf938613b690b
:10495400002b32d07b68002b2fd07a68bb689a4238
:104964002bd33869fff76afa3b6900221a753b6951
:1049740000225a753b6997f824209a703b697a683b
:104984005a607a68bb68d21a3b699a603b693a6894
:10499400da603b693a6a1a610b4b93f83030002baa
:1049a40003d13869fff7c6fb02e03869fff792fad2
:1049b4003b6901225a700023fb75fff757f9fb7d11
:1049c40018461837bd4680bd18a3002080b584b0b2
:1049d40000af78600023bb600123fb73fff720f96d
:1049e400034683f00103dbb2002b01d0fb7b1ee006
:1049f4007868fff755f9b860bb68002b14d0bb6822
:104a04005b78002b05d0b868fff718fabb68002262
:104a14005a70bb6800221a75bb6800225a75bb68bd
:104a240000221a700023fb73fff720f9fb7b184662
:104a34001037bd4680bd80b584b000af78600023d8
:104a4400bb600123fb73fff7ebf8034683f001031c
:104a5400dbb2002b01d0fb7b2fe07868fff720f955
:104a6400b860bb68002b25d0bb685b7883f001037a
:104a7400dbb2002b1cd0bb689b68002b03d1bb6846
:104a84005a68bb689a600f4b93f83030002b03d1ff
:104a9400b868fff74ffb02e0b868fff71bfabb6882
:104aa40000221a75bb6800225a75bb6801225a702d
:104ab4000023fb73fff7daf8fb7b18461037bd467b
:104ac40080bd00bf18a3002080b584b000af78601b
:104ad4000023bb600123fb73fff7a2f8034683f0b6
:104ae4000103dbb2002b01d0fb7b1fe07868fff7ea
:104af400d7f8b860bb68002b15d0bb685b78002b77
:104b04000fd0b868fff79af9bb6800221a75bb6822
:104b140000225a75bb6800225a70bb685a68bb6889
:104b24009a600023fb73fff7a1f8fb7b184610374c
:104b3400bd4680bd80b586b000af78603960002383
:104b44003b610123fb75fff76bf8034683f0010318
:104b5400dbb2002b01d0fb7d15e03b68002b0fd0ae
:104b64007868fff79df838613b69002b08d03869f5
:104b7400fff754faf8603b68fa681a600023fb7583
:104b8400fff774f8fb7d18461837bd4680bd80b525
:104b940084b000af78600023bb600023fb73fff791
:104ba4003ff8034683f00103dbb2002b01d0fb7b0b
:104bb4000fe07868fff774f8b860bb68002b05d085
:104bc400bb681b7dfb73bb6800221a75fff74ef8a8
:104bd400fb7b18461037bd4680bd80b586b002af5a
:104be400786039600123fb733b68002b02d07b683b
:104bf400002b01d1fb7b1ae07868fff71ffe01460a
:104c040000230093002300220020fff7affb02469d
:104c14003b681a603b681b68b3f1ff3f06d03b68f2
:104c24001b681846fff707ff0023fb73fb7b18463e
:104c34001037bd4680bd80b586b002af786039605c
:104c44000123fb733b68002b02d07b68002b01d14e
:104c5400fb7b1ae07868fff715fe014600230093fa
:104c6400002300220020fff781fb02463b681a6004
:104c74003b681b68b3f1ff3f06d03b681b681846ce
:104c8400fff7d9fe0023fb73fb7b18461037bd46a4
:104c940080bd80b584b000af78600023fb73786872
:104ca400fff775ff0346002b04d07868fff78efeec
:104cb4000123fb73fb7b18461037bd4680bd80b5ce
:104cc40088b002aff860b9607a60fb704ff0ff33d0
:104cd4007b61fb78002b04d1fb68002b01d17b693d
:104ce40016e07b68002b12d07868fff7a7fd014619
:104cf400fb780093bb68fa680020fff737fb786104
:104d04007b69b3f1ff3f02d07869fff794fe7b69ba
:104d140018461837bd4680bd80b588b002aff8602c
:104d2400b9607a60fb704ff0ff337b61fb78002b36
:104d340004d1fb68002b01d17b6916e07b68002b52
:104d440012d07868fff79efd0146fb780093bb689c
:104d5400fa680020fff70afb78617b69b3f1ff3f33
:104d640002d07869fff767fe7b6918461837bd469d
:044d740080bd00bf3f
:020000040000fa
:020000040100f9
:104d780080b584b000af786039600123fb607b6840
:104d8800bb60bb68002b5dd0bb68db6b002b59d0c8
:104d9800bb681a6cbb68db6b0021a3fb0223002bea
:104da80000d001210b46002b4cd103f03efebb681e
:104db8001a68bb68db6bb968096c01fb03f31a441a
:104dc800bb689a60bb6800229a63bb681a68bb68b4
:104dd8005a60bb681a68bb68db6b013bb968096c31
:104de80001fb03f31a44bb68da60bb68ff2283f84f
:104df8004420bb68ff2283f845203b68002b14d170
:104e0800bb681b69002b1ad0bb6810331846fcf727
:104e1800e7f80346002b12d00e4b4ff080521a6071
:104e2800bff34f8fbff36f8f09e0bb68103318468d
:104e380004f0a8ffbb682433184604f0a3ff03f06e
:104e48000dfe01e00023fb60fb6818461037bd46e5
:104e580080bd00bf04ed00e080b58ab002aff86005
:104e6800b9601346fb710023fb61fb68002b2dd052
:104e78000021ba68fb68a3fb0223002b00d00121a4
:104e88000b46002b22d1fb68ba6802fb03f313f12f
:104e9800490f1bd8fb68ba6802fb03f3bb61bb6907
:104ea8004833184605f04afbf861fb69002b0dd022
:104eb800fb697b617b6948337b61fa79fb69009305
:104ec80013467a69b968f86800f005f8fb6918466e
:104ed8002037bd4680bd80b584b000aff860b960aa
:104ee8007a60fb70bb68002b03d1bb69ba691a6092
:104ef80002e0bb697a681a60bb69fa68da63bb6961
:104f0800ba681a640121b869fff732ff00bf103789
:104f1800bd4680bd80b582b000af78607b68002b4d
:104f28000ed07b6800229a607b6800221a607b683a
:104f38000022da60002300220021786800f069f876
:104f480000bf0837bd4680bd80b586b000af0346b8
:104f5800fb7101237b6100233b61fb791a463969a8
:104f68007869fff779fff860f868fff7d3fffb6807
:104f780018461837bd4680bd80b584b000af78604c
:104f88007b68bb6003f051fdbb681b68002b03d135
:104f9800bb689b68fb6001e00023fb6003f05efddb
:104fa800fb6818461037bd4680bd80b485b000af99
:104fb80078607b681b68002b03d17b689b68fb606b
:104fc80001e00023fb60fb6818461437bd465df816
:104fd800047b704780b584b000af786039600023e7
:104fe800fb607b68002b0fd03a687b689a420bd82d
:104ff800022200217868fff72ffff860fb68002b7a
:1050080002d0fb683a689a63fb6818461037bd46b9
:1050180080bd80b58ab000aff860b9607a603b6047
:1050280000237b62fb683b6203f0fffc3b6a9a6be0
:105038003b6adb6b9a4202d33b68022b29d13a6860
:10504800b968386a00f04afcf8613b6a5b6a002b71
:1050580010d03b6a24331846fbf7c2ff0346002be7
:1050680013d0404b4ff080521a60bff34f8fbff3fd
:105078006f8f0ae0fb69002b07d03a4b4ff0805244
:105088001a60bff34f8fbff36f8f03f0e7fc012364
:1050980063e07b68002b03d103f0e0fc00235ce0b5
:1050a8007b6a002b06d107f114031846fcf71af99e
:1050b80001237b6203f0d2fcfbf77afc03f0b5fc1a
:1050c8003b6a93f844305bb2b3f1ff3f03d13b6acc
:1050d800002283f844203b6a93f845305bb2b3f171
:1050e800ff3f03d13b6a002283f8452003f0b6fc5a
:1050f8003a1d07f1140311461846fcf709f903464f
:10510800002b24d1386a00f0f7fc0346002b18d096
:105118003b6a10337a6811461846fbf713ff386a62
:1051280000f06cfcfbf752fc0346002b7ff47cafcd
:105138000c4b4ff080521a60bff34f8fbff36f8f45
:1051480072e7386a00f05afcfbf740fc6ce7386af3
:1051580000f054fcfbf73afc002318462837bd46fc
:1051680080bd00bf04ed00e080b58eb000aff860f0
:10517800b9607a603b60fb683b63eff311824ff0e4
:10518800200383f31188bff36f8fbff34f8ffa614a
:10519800bb61fb69fb623b6b9a6b3b6bdb6b9a42b7
:1051a80002d33b68022b37d13b6b93f8453087f825
:1051b8002b303b6b9b6b7b623a68b968386b00f0ad
:1051c8008dfb97f92b30b3f1ff3f12d13b6b5b6a34
:1051d800002b1ed03b6b24331846fbf701ff034618
:1051e800002b16d07b68002b13d07b6801221a6035
:1051f8000fe0fbf7f9fc386297f92b303a6a9a42cc
:1052080007d997f82b300133dbb25ab23b6b83f8de
:10521800452001237b6301e000237b63fb6a7b61fc
:105228007b6983f311887b6b18463837bd4680bd90
:1052380080b58cb000af786039607b68bb62eff3f3
:1052480011824ff0200383f31188bff36f8fbff3f0
:105258004f8f7a613b617b697b62bb6a9b6b3b6268
:10526800bb6adb6b3a6a9a4231d2bb6a93f8453023
:10527800fb773b6a5a1cbb6a9a6397f91f30b3f1f4
:10528800ff3f12d1bb6a5b6a002b1dd0bb6a243377
:105298001846fbf7a5fe0346002b15d03b68002bec
:1052a80012d03b6801221a600ee0fbf79dfcb86142
:1052b80097f91f30ba699a4206d9fb7f0133dbb2ee
:1052c8005ab2bb6a83f845200123fb6201e0002340
:1052d800fb627b6afb60fb6883f31188fb6a1846f4
:1052e8003037bd4680bd80b58ab000aff860b96080
:1052f8007a6000237b62fb683b6203f096fb3b6aa3
:105308009b6bfb61fb69002b1fd0b968386a00f002
:105318004ffbfb695a1e3b6a9a633b6a1b69002b69
:105328000fd03b6a10331846fbf75afe0346002b92
:1053380007d03d4b4ff080521a60bff34f8fbff339
:105348006f8f03f08bfb012369e07b68002b03d18f
:1053580003f084fb002362e07b6a002b06d107f18f
:1053680014031846fbf7beff01237b6203f076fbac
:10537800fbf71efb03f059fb3b6a93f844305bb222
:10538800b3f1ff3f03d13b6a002283f844203b6a14
:1053980093f845305bb2b3f1ff3f03d13b6a00227b
:1053a80083f8452003f05afb3a1d07f11403114610
:1053b8001846fbf7adff0346002b23d1386a00f0ef
:1053c8006ffb0346002b17d03b6a24337a681146db
:1053d8001846fbf7b7fd386a00f010fbfbf7f6fa42
:1053e8000346002b89d1104b4ff080521a60bff34f
:1053f8004f8fbff36f8f80e7386a00f0fffafbf733
:10540800e5fa7ae7386a00f0f9fafbf7dffa386a62
:1054180000f046fb0346002b3ff46faf002318460d
:105428002837bd4680bd00bf04ed00e080b58ab0d6
:1054380000af7860396000237b627b68fb610023e2
:105448003b6203f0f2fafb699b6bbb61bb69002b03
:1054580024d0bb695a1efb699a63fb691b68002b41
:1054680004d1fcf739fa0246fb699a60fb691b69ab
:10547800002b0fd0fb6910331846fbf7b1fd03462c
:10548800002b07d04c4b4ff080521a60bff34f8f60
:10549800bff36f8f03f0e2fa012389e03b68002b2a
:1054a80003d103f0dbfa002382e07b6a002b06d1ec
:1054b80007f10c031846fbf715ff01237b6203f085
:1054c800cdfafbf775fa03f0b0fafb6993f84430ac
:1054d8005bb2b3f1ff3f03d1fb69002283f844209c
:1054e800fb6993f845305bb2b3f1ff3f03d1fb6929
:1054f800002283f8452003f0b1fa3a4607f10c037d
:1055080011461846fbf704ff0346002b32d1f86911
:1055180000f0c6fa0346002b26d0fb691b68002b57
:1055280009d103f082fafb699b681846fcf706f874
:10553800386203f093fafb6924333a681146184637
:10554800fbf700fdf86900f059fafbf73ffa03464c
:10555800002b7ff476af184b4ff080521a60bff3e0
:105568004f8fbff36f8f6ce7f86900f047fafbf7ce
:105578002dfa66e7f86900f041fafbf727faf869af
:1055880000f08efa0346002b3ff45baf3b6a002b1a
:105598000dd003f04afaf86900f088f97861fb69e0
:1055a8009b6879691846fcf7e9f803f057fa002375
:1055b80018462837bd4680bd04ed00e080b58ab0a6
:1055c80000aff860b9607a6000237b62fb683b62d9
:1055d80003f02bfa3b6a9b6bfb61fb69002b21d024
:1055e8003b6adb68bb61b968386a00f0e1f93b6a7d
:1055f800ba69da603b6a5b6a002b0fd03b6a2433d6
:105608001846fbf7edfc0346002b07d03c4b4ff048
:1056180080521a60bff34f8fbff36f8f03f01efaeb
:10562800012369e07b68002b03d103f017fa0023fc
:1056380062e07b6a002b06d107f110031846fbf7de
:1056480051fe01237b6203f009fafbf7b1f903f07d
:10565800ecf93b6a93f844305bb2b3f1ff3f03d1f6
:105668003b6a002283f844203b6a93f845305bb2da
:10567800b3f1ff3f03d13b6a002283f8452003f0d2
:10568800edf93a1d07f1100311461846fbf740fee5
:105698000346002b23d1386a00f002fa0346002b98
:1056a80017d03b6a24337a6811461846fbf74afc40
:1056b800386a00f0a3f9fbf789f90346002b87d174
:1056c8000f4b4ff080521a60bff34f8fbff36f8fad
:1056d8007ee7386a00f092f9fbf778f978e7386adc
:1056e80000f08cf9fbf772f9386a00f0d9f9034633
:1056f800002b3ff46daf002318462837bd4680bd08
:1057080004ed00e080b58eb000aff860b9607a6053
:10571800fb683b63eff311824ff0200383f311889a
:10572800bff36f8fbff34f8ffa61bb61fb69fb62f9
:105738003b6b9b6bbb62bb6a002b37d03b6b93f810
:10574800443087f82730b968386b00f031f9bb6a04
:105758005a1e3b6b9a6397f92730b3f1ff3f12d17a
:105768003b6b1b69002b1ed03b6b10331846fbf7b5
:1057780037fc0346002b16d07b68002b13d07b68c0
:1057880001221a600fe0fbf72ffa386297f92730e9
:105798003a6a9a4207d997f827300133dbb25ab2ee
:1057a8003b6b83f8442001237b6301e000237b6388
:1057b800fb6a7b617b6983f311887b6b18463837fa
:1057c800bd4680bd80b58ab000af786039607b681f
:1057d8003b62eff311824ff0200383f31188bff38c
:1057e8006f8fbff34f8f7a613b617b69fb613b6ac7
:1057f8009b6b002b0cd03b6adb68bb613968386a4d
:1058080000f0d6f83b6aba69da6001237b6201e0ee
:1058180000237b62fb69fb60fb6883f311887b6a6a
:1058280018462837bd4680bd80b584b000af786083
:1058380003f0fbf87b689b6bfb6003f00ff9fb68d8
:1058480018461037bd4680bd80b584b000af78607b
:105858007b68fb6003f0e9f8fb68da6bfb689b6b1d
:10586800d31abb6003f0faf8bb6818461037bd4678
:1058780080bd80b485b000af78607b68fb60fb6852
:105888009b6bbb60bb6818461437bd465df8047b4c
:10589800704780b584b000af78607b68fb60f868bb
:1058a80004f0a4fe00bf1037bd4680bd80b485b0ab
:1058b80000af78607b685b6a002b06d07b681b6b47
:1058c8001b68c3f10503fb6001e00023fb60fb6874
:1058d80018461437bd465df8047b704780b586b01e
:1058e80000aff860b9607a6000237b61fb689b6b4e
:1058f8003b61fb681b6c002b0dd1fb681b68002b00
:105908004dd1fb689b681846fbf7b6fe7861fb68cb
:1059180000229a6043e07b68002b19d1fb68586825
