:020000040000fa
:10000000f0ff0120b1ab0001fbb1000101b2000122
:100010000db2000113b2000119b20001000000008e
:1000200000000000000000000000000099850001b1
:1000300007b2000100000000b98600012787000117
:10004000e7a80001e7a80001e7a80001e7a8000170
:10005000e7a800018d7b0001e7a80001e7a80001e7
:10006000e7a80001e7a80001e7a80001e7a8000150
:10007000e7a80001e7a800019d5b0001e7a80001d7
:10008000e7a80001e7a80001e7a80001c589000171
:10009000e7a80001e7a80001e7a80001e7a8000120
:1000a000e7a80001e7a80001e7a80001e7a8000110
:1000b000e7a80001e7a80001e7a80001e7a8000100
:1000c000e7a80001e7a80001e7a80001e7a80001f0
:1000d000e7a80001e7a80001e7a80001e7a80001e0
:020000040000fa
:020000040004f6
:045f8800ffff000017
:020000040000fa
:020000040004f6
:045f8c0000400e843f
:020000040000fa
:020000040004f6
:045f900038fc745f06
:020000040000fa
:020000040004f6
:045f940038440a146f
:020000040000fa
:020000040004f6
:045f98000300007191
:020000040000fa
:020000040004f6
:045f9c000000000001
:020000040000fa
:020000040004f6
:045fbc0000000010d1
:020000040000fa
:020000040100f9
:10000000f8b500bff8bc08bc9e467047e5ad0001de
:10001000f8b500bff8bc08bc9e467047c1ad0001f2
:020000040000fa
:020000040100f9
:08002000248200000100000031
:020000040000fa
:020000040100f9
:1000280080b58cb004aff860b9603b601346fb80c4
:10003800fb889b00184609f047ff78617b69002b15
:1000480013d0542009f040fff861fb69002b08d059
:1000580054220021f8690bf0bdf9fb697a691a632b
:1000680005e0786909f088ff01e00023fb61fb697e
:10007800002b13d0fa8800230393fb690293fb6ad1
:100088000193bb6a00933b68b968f86800f00ef802
:10009800f86900f07bf80123bb6102e04ff0ff3301
:1000a800bb61bb6918462037bd4680bd80b586b0a8
:1000b80000aff860b9607a603b60bb6a186b7b6818
:1000c8009b001a46a5210bf085f9bb6a1a6b7b6861
:1000d80003f18043013b9b0013443b613b6923f0e0
:1000e80007033b61bb68002b1ed000237b6112e035
:1000f800ba687b6913441978ba6a7b691344343344
:100108000a461a70ba687b6913441b78002b06d01c
:100118007b6901337b617b690f2be9d900e000bf64
:10012800bb6a002283f843203b6a042b01d90423cd
:100138003b62bb6a3a6ada62bb6a3a6a5a64bb6a69
:100148000433184609f050fcbb6a1833184609f006
:100158004bfcbb6aba6a1a613b6ac3f10502bb6a07
:100168009a61bb6aba6a5a623a68f968386908f0eb
:10017800c3f90246bb6a1a607b6a002b02d07b6a0d
:10018800ba6a1a6000bf1837bd4680bd80b584b012
:1001980000af786008f059fa3e4b1b6801333d4abe
:1001a80013603d4b1b68002b09d13b4a7b681360e9
:1001b800384b1b68012b10d101f018f90de0374bb3
:1001c8001b68002b09d1344b1b68da6a7b68db6a31
:1001d8009a4202d8304a7b681360314b1b6801335e
:1001e8002f4a13607b68db6a01229a402d4b1b68fb
:1001f80013432c4a13607b68da6a2b4913469b0029
:1002080013449b000b4404331b68fb607b68fa684b
:100218009a60fb689a687b68da60fb689b687a6812
:1002280004325a607b681a1dfb689a607b68da6a38
:1002380013469b0013449b001b4a1a447b685a616f
:100248007b68da6a184913469b0013449b000b44e9
:100258001b68591c144813469b0013449b00034415
:10026800196008f00bfa0d4b1b68002b0ed00a4bd7
:100278001b68da6a7b68db6a9a4207d20b4b4ff03d
:1002880080521a60bff34f8fbff36f8f00bf1037d4
:10029800bd4680bdf4a600201ca6002000a70020b3
:1002a80010a70020fca6002020a6002004ed00e0f6
:1002b80080b584b000af786008f0c7f97b68002b80
:1002c80002d1344b1b6800e07b68fb60fb68043399
:1002d800184609f0f3fb0346002b15d1fb68da6ad0
:1002e8002d4913469b0013449b000b441b68002bad
:1002f8000ad1fb68db6a012202fa03f3da43274bcf
:100308001b681340254a1360fb689b6a002b04d0c6
:10031800fb681833184609f0d1fb214b1b680133e1
:100328001f4a13601b4b1b68fa689a420bd1fb6883
:10033800043319461b4809f064fb1b4b1b68013347
:10034800194a136006e0194b1b68013b174a1360f2
:1003580001f0c8f808f092f90e4b1b68fa689a4247
:1003680002d0f86801f0aef8114b1b68002b0cd0d6
:10037800084b1b68fa689a4207d10e4b4ff080521f
:100388001a60bff34f8fbff36f8f00bf1037bd46a2
:1003980080bd00bf1ca6002020a60020fca60020cf
:1003a80010a70020c8a60020dca60020f4a6002084
:1003b80000a7002004ed00e080b586b000af7860ab
:1003c800396000237b6100f0f3fa224b1b683b6124
:1003d8007b681b683a681344fb607b681b683a6952
:1003e8009a420bd27b681b68fa689a4211d2fa6863
:1003f8003b699a420dd901237b610ae07b681b683f
:10040800fa689a4203d3fa683b699a4201d90123f0
:100418007b617b68fa681a607b69002b06d0fa68f2
:100428003b69d31a0021184601f082fe00f0cefa8b
:10043800b860bb68002b07d1074b4ff080521a6099
:10044800bff34f8fbff36f8f7b6918461837bd46d0
:1004580080bd00bff8a6002004ed00e080b584b0a0
:1004680000af78600023fb607b68002b08d000f0a9
:100478009ffa0021786801f05bfe00f0a7faf860a7
:10048800fb68002b07d1064b4ff080521a60bff370
:100498004f8fbff36f8f00bf1037bd4680bd00bfc1
:1004a80004ed00e080b584b000af786008f0cdf8c6
:1004b8007b68002b02d1074b1b6800e07b68fb6060
:1004c800fb68db6abb6008f0d9f8bb6818461037d0
:1004d800bd4680bd1ca6002080b489b000af7860fe
:1004e800eff311824ff0200383f31188bff36f8f6e
:1004f800bff34f8f3a61fb603b69fb617b68002b60
:1005080002d10a4b1b6800e07b68bb61bb69db6af0
:100518007b61fb69bb60bb6883f311887b69184604
:100528002437bd465df8047b704700bf1ca6002039
:1005380080b588b000af786039600023fb613b6804
:10054800042b01d904233b6008f07ff87b68002b5b
:1005580002d1554b1b6800e07b68bb61bb695b6cd3
:100568007b617a693b689a4200f098803a687b69b7
:100578009a420dd94c4b1b68ba699a420fd04a4b24
:100588001b68db6a3a689a4209d30123fb6106e0db
:10059800454b1b68ba699a4201d10123fb61bb69cb
:1005a800db6a3b61bb695a6cbb69db6a9a4202d160
:1005b800bb693a68da62bb693a685a64bb699b6985
:1005c800002b04db3b68c3f10502bb699a61bb6978
:1005d80059693a6913469b0013449b00334a1344f4
:1005e800994250d1bb690433184609f067fa0346ab
:1005f800002b09d101223b6902fa03f3da432c4ba1
:100608001b6813402a4a1360bb69db6a01229a40bf
:10061800274b1b681343264a1360bb69da6a2349d0
:1006280013469b0013449b000b4404331b68fb6078
:10063800bb69fa689a60fb689a68bb69da60fb680c
:100648009b68ba6904325a60bb691a1dfb689a60d4
:10065800bb69da6a13469b0013449b00134a1a4489
:10066800bb695a61bb69da6a104913469b00134497
:100678009b000b441b68591c0c4813469b001344f1
:100688009b0003441960fb69002b07d0094b4ff00e
:1006980080521a60bff34f8fbff36f8f07f0eeffe2
:1006a80000bf2037bd4680bd1ca6002020a6002024
:1006b800fca6002004ed00e080b584b000af7860af
:1006c80007f0c3ff7b68002b02d13b4b1b6800e09f
:1006d8007b68bb60bb680433184609f0eff9034632
:1006e800002b15d1bb68da6a344913469b001344c2
:1006f8009b000b441b68002b0ad1bb68db6a0122f4
:1007080002fa03f3da432e4b1b6813402c4a13609a
:10071800bb689b6a002b04d0bb681833184609f0e5
:10072800cdf9bb6804331946264809f06af9002355
:10073800fb6010e0ba68fb68134450331b78dbb2e7
:10074800012b05d1ba68fb681344503300221a7094
:10075800fb680133fb60fb68002bebdd07f08effc5
:10076800194b1b68002b05d007f06fff00f0bafe8d
:1007780007f084ff104b1b68ba689a4218d1124bd5
:100788001b68002b08d0114b4ff080521a60bff342
:100798004f8fbff36f8f0be00a4b1a680c4b1b6827
:1007a8009a4203d1044b00221a6001e000f05efb7c
:1007b80000bf1037bd4680bd1ca6002020a6002023
:1007c800fca60020e0a6002000a7002004ed00e021
:1007d800f4a6002080b485b000af78600023fb60e9
:1007e8007b68bb60bb685b690a4a93420ad1bb68f5
:1007f8009b6a094a934205d0bb689b6a002b01d1ca
:100808000123fb60fb6818461437bd465df8047b7e
:10081800704700bfe0a60020b4a6002080b584b0d1
:1008280000af78607b68fb60344b1b68fa689a42bb
:100838005fd0fb68002b5cd007f007fff868fff774
:10084800c9ff0346002b52d0fb680433184609f051
:1008580035f9fb68db6a01229a40294b1b68134370
:10086800274a1360fb68da6a264913469b0013443b
:100878009b000b4404331b68bb60fb68ba689a6032
:10088800bb689a68fb68da60bb689b68fa680432e0
:100898005a60fb681a1dbb689a60fb68da6a1346df
:1008a8009b0013449b00174a1a44fb685a61fb6873
:1008b800da6a144913469b0013449b000b441b68d7
:1008c800591c104813469b0013449b0003441960ad
:1008d800fb68da6a094b1b68db6a9a4207d30a4b42
:1008e8004ff080521a60bff34f8fbff36f8f07f03e
:1008f800c5fe00bf1037bd4680bd00bf1ca6002046
:10090800fca6002020a6002004ed00e080b584b0fd
:1009180002af144b01930023009300238022124955
:100928001248fff77dfb78607b68012b14d14ff0ec
:10093800200383f31188bff36f8fbff34f8f3b60a2
:100948000b4b4ff0ff321a600a4b01221a600a4b18
:1009580000221a6007f047fe084b1b6800bf0837e3
:10096800bd4680bd18a70020bcb40001c513000116
:1009780014a7002000a70020f8a60020acaa002099
:1009880080b582b000af4ff0200383f31188bff326
:100998006f8fbff34f8f7b60044b00221a6007f004
:1009a8004dfe00bf0837bd4680bd00bf00a7002030
:1009b80080b400af044b1b680133034a136000bfc7
:1009c800bd465df8047b70471ca7002080b586b043
:1009d80000af00237b6100233b6107f036fe684bc4
:1009e8001b68013b664a1360654b1b68002b40f08f
:1009f800c080644b1b68002b00f0bb808ae0624b10
:100a0800db68db687b617b699b6abb607b69db6950
:100a18007a69126a9a607b691b6a7a69d2695a6034
:100a2800bb685a687b6918339a4203d17b691a6a92
:100a3800bb685a607b6900229a62bb681b685a1eb1
:100a4800bb681a607b695b697b607b699b687a69b4
:100a5800d2689a607b69db687a6992685a607b68b9
:100a68005a687b6904339a4203d17b69da687b68e8
:100a78005a607b6900225a617b681b685a1e7b6832
:100a88001a607b69db6a01229a40404b1b6813435a
:100a98003e4a13607b69da6a3d4913469b0013445a
:100aa8009b000b4404331b683b607b693a689a607f
:100ab8003b689a687b69da603b689b687a690432ac
:100ac8005a607b691a1d3b689a607b69da6a13462b
:100ad8009b0013449b002e4a1a447b695a617b6928
:100ae800da6a2b4913469b0013449b000b441b688e
:100af800591c274813469b0013449b000344196064
:100b08007b69da6a234b1b68db6a9a4202d3224b61
:100b180001221a601c4b1b68002b7ff470af7b69a5
:100b2800002b01d000f0defc1c4b1b68fb60fb684f
:100b3800002b10d000f094f80346002b02d0164b7f
:100b480001221a60fb68013bfb60fb68002bf1d1b6
:100b5800124b00221a60104b1b68002b09d001238e
:100b68003b610f4b4ff080521a60bff34f8fbff3ba
:100b78006f8f07f083fd3b6918461837bd4680bd67
:100b88001ca70020f4a60020b4a60020fca6002084
:100b980020a600201ca6002008a7002004a70020eb
:100ba80004ed00e080b483b000af054b1b687b60a8
:100bb8007b6818460c37bd465df8047b704700bf5c
:100bc800f8a6002080b483b000af00237b60054bfb
:100bd8001b683b603b6818460c37bd465df8047bd4
:100be800704700bff8a6002080b400af034b1b6815
:100bf8001846bd465df8047b704700bff4a6002088
:100c080080b485b000af78607b68002b02d1064bba
:100c18001b6800e07b68fb60fb68343318461437b8
:100c2800bd465df8047b70471ca6002080b584b0e3
:100c380000af7860fff7bcfe07f007fd074b1a68a6
:100c48007b681344054a136007f018fdfff7befee2
:100c5800f860fb6818461037bd4680bd04a7002021
:100c680080b588b000af0023fb61754b1b68002b73
:100c780040f0dc80734b1b680133bb61714abb6970
:100c88001360bb69002b10d16f4b1b687b616f4be6
:100c98001b686d4a13606d4a7b6913606c4b1b6857
:100ca80001336b4a136000f01dfc6a4b1b68ba697c
:100cb8009a42c0f0a680644b1b681b68002b04d1c5
:100cc800644b4ff0ff321a609be05f4b1b68db6898
:100cd800db683b613b695b68fb60ba69fb689a4209
:100ce80003d25c4afb6813608be03b695b69bb60bd
:100cf8003b699b683a69d2689a603b69db683a69e4
:100d080092685a60bb685a683b6904339a4203d1b7
:100d18003b69da68bb685a603b6900225a61bb6864
:100d28001b685a1ebb681a603b699b6a002b1ed061
:100d38003b699b6a7b603b69db693a69126a9a6026
:100d48003b691b6a3a69d2695a607b685a683b6991
:100d580018339a4203d13b691a6a7b685a603b6927
:100d680000229a627b681b685a1e7b681a603b697e
:100d7800db6a01229a40384b1b681343364a1360da
:100d88003b69da6a354913469b0013449b000b44c0
:100d980004331b683b603b693a689a603b689a6811
:100da8003b69da603b689b683a6904325a603b6980
:100db8001a1d3b689a603b69da6a13469b00134424
:100dc8009b00264a1a443b695a613b69da6a2349ff
:100dd80013469b0013449b000b441b68591c1f4877
:100de80013469b0013449b00034419603b69da6a6d
:100df8001b4b1b68db6a9a427ff65daf0123fb61e0
:100e080059e7174b1b68da6a144913469b001344c9
:100e18009b000b441b68012b01d90123fb61114b7b
:100e28001b68002b07d00123fb6104e00e4b1b68f5
:100e380001330d4a1360fb6918462037bd4680bd53
:100e48001ca70020f8a60020aca60020b0a6002011
:100e58000ca7002014a70020fca6002020a6002034
:100e68001ca6002008a7002004a7002080b586b093
:100e780000af2f4b1b68002b03d02e4b01221a60aa
:100e880051e02c4b00221a602b4b1b681b6b7b61bb
:100e98004ff0a5333b617b691b683a699a4211d1cf
:100ea8007b6904331b683a699a420bd17b69083322
:100eb8001b683a699a4205d17b690c331b683a6909
:100ec8009a4208d01c4b1a681b4b1b6834331946ce
:100ed800104609f0e7fb194b1b687b607b68b3fa87
:100ee80083f3fb70fb78c3f11f03fb60fa681346ba
:100ef8009b0013449b00124a1344bb60bb685b68a9
:100f08005a68bb685a60bb685a68bb6808339a421b
:100f180004d1bb685b685a68bb685a60bb685b6889
:100f2800db68054a136000bf1837bd4680bd00bfa7
:100f38001ca7002008a700201ca60020fca6002053
:100f480020a6002080b582b000af78603960074bda
:100f58001b6818331946786808f077fd012138684e
:100f680001f0e6f800bf0837bd4680bd1ca600208a
:100f780080b586b000aff860b9607a60174b1b681f
:100f8800ba6842f000429a61fb685b687b61134b68
:100f98001b687a69da61114b1b687a6992681a6270
:100fa8000e4b1a687b699b6818325a600b4b1b689a
:100fb80003f118027b699a60084b1b68fa689a6209
:100fc800fb681b685a1cfb681a600121786801f0ed
:100fd800aff800bf1837bd4680bd00bf1ca6002073
:100fe80080b489b000af78607b68db68db68bb6180
:100ff800bb699b6a7b61bb69db69ba69126a9a60e3
:10100800bb691b6aba69d2695a607b695a68bb694d
:1010180018339a4203d1bb691a6a7b695a60bb6963
:1010280000229a627b691b685a1e7b691a604a4bc8
:101038001b68002b5ed1bb695b693b61bb699b6820
:10104800ba69d2689a60bb69db68ba6992685a6003
:101058003b695a68bb6904339a4203d1bb69da68b1
:101068003b695a60bb6900225a613b691b685a1e7a
:101078003b691a60bb69db6a01229a40374b1b68df
:101088001343364a1360bb69da6a354913469b0035
:1010980013449b000b4404331b68fb60bb69fa686c
:1010a8009a60fb689a68bb69da60fb689b68ba69f2
:1010b80004325a60bb691a1dfb689a60bb69da6a18
:1010c80013469b0013449b00254a1a44bb695a6186
:1010d800bb69da6a224913469b0013449b000b4400
:1010e8001b68591c1e4813469b0013449b0003446d
:1010f80019601be01b4b5b68bb60bb69ba68da61af
:10110800bb689a68bb691a62bb689b68ba6918327f
:101118005a60bb6903f11802bb689a60bb69114a3f
:101128009a62104b1b6801330e4a1360bb69da6a76
:101138000d4b1b68db6a9a4205d90123fb610b4bf7
:1011480001221a6001e00023fb61fb69184624377d
:10115800bd465df8047b70471ca70020fca6002054
:1011680020a60020b4a600201ca6002008a7002066
:1011780080b487b000af786039603b6843f00042c4
:101188007b681a607b68db687b617b681b693b61f5
:101198007b685b687a6892689a607b689b687a6803
:1011a80052685a603b695b687a689a4203d17b68e7
:1011b8009a683b695a607b6800221a613b691b6820
:1011c8005a1e3b691a607b695b69fb607b699b6897
:1011d8007a69d2689a607b69db687a6992685a6032
:1011e800fb685a687b6904339a4203d17b69da68e1
:1011f800fb685a607b6900225a61fb681b685a1eab
:10120800fb681a607b69db6a01229a40254b1b68e0
:101218001343244a13607b69da6a234913469b0007
:1012280013449b000b4404331b68bb607b69ba689a
:101238009a60bb689a687b69da60bb689b687a6960
:1012480004325a607b691a1dbb689a607b69da6a46
:1012580013469b0013449b00134a1a447b695a6146
:101268007b69da6a104913469b0013449b000b44c0
:101278001b68591c0c4813469b0013449b000344ed
:1012880019607b69da6a094b1b68db6a9a4202d9e2
:10129800074b01221a6000bf1c37bd465df8047b6e
:1012a800704700bffca6002020a600201ca6002036
:1012b80008a7002080b582b000af786007f0c5f9b4
:1012c800064b1a687b681a60054b1a687b685a6077
:1012d80007f0d4f900bf0837bd4680bd0ca7002031
:1012e800f8a6002080b483b000af7860064b1a6877
:1012f8007b681a60054b1a687b685a6000bf0c3718
:10130800bd465df8047b70470ca70020f8a60020b6
:1013180080b586b000af7860396007f096f91f4b4a
:101328001b683b617b685b683a69d31afb603b6862
:101338001b68b3f1ff3f02d100237b6126e07b6885
:101348001a68174b1b689a420ad07b685b683a692f
:101358009a4205d301237b613b6800221a6015e09d
:101368003b681b68fa689a420bd23b681a68fb68ac
:10137800d21a3b681a607868fff7b4ff00237b61d4
:1013880004e03b6800221a6001237b6107f076f9cc
:101398007b6918461837bd4680bd00bff8a60020f7
:1013a8000ca7002080b400af034b01221a6000bfd5
:1013b800bd465df8047b704708a7002080b582b061
:1013c80000af786000f052f8064b1b68012bf9d982
:1013d800054b4ff080521a60bff34f8fbff36f8fea
:1013e800f0e700bf20a6002004ed00e080b582b041
:1013f80000af00237b600ce07a6813469b0013441f
:101408009b00124a1344184608f0cefa7b68013351
:101418007b607b68042befd90d4808f0c5fa0d48ae
:1014280008f0c2fa0c4808f0bffa0c4808f0bcfaf9
:101438000b4808f0b9fa0b4b054a1a600a4b054ae3
:101448001a6000bf0837bd4680bd00bf20a6002037
:1014580084a6002098a60020b4a60020c8a60020d4
:10146800e0a60020aca60020b0a6002080b582b07f
:1014780000af19e007f0e9f80f4bdb68db687b6029
:101488007b680433184608f019fb0c4b1b68013bba
:101498000a4a13600a4b1b68013b094a136007f0ac
:1014a800edf8786800f00ef8054b1b68002be1d1c9
:1014b80000bf0837bd4680bdc8a60020f4a600209e
:1014c800dca6002080b582b000af78607b681b6b1b
:1014d800184608f051fd786808f04efd00bf08373f
:1014e800bd4680bd80b400af0a4b1b681b68002b4b
:1014f80004d1094b4ff0ff321a6005e0054b1b6819
:10150800db681b68044a136000bfbd465df8047bb6
:10151800704700bfaca6002014a7002080b483b099
:1015280000af054b1b687b607b6818460c37bd46cf
:101538005df8047b704700bf1ca6002080b586b00c
:1015480000af78607b683b6100237b617b68002b80
:1015580000f087803b69da6a444b1b68db6a9a4271
:1015680076d23b699b69002b06db404b1b68db6a24
:10157800c3f105023b699a613b6959693b69da6abb
:1015880013469b0013449b00394a1344994257d190
:101598003b690433184608f091fa0346002b0ad138
:1015a8003b69db6a012202fa03f3da43314b1b6819
:1015b8001340304a13602d4b1b68da6a3b69da62c4
:1015c8003b69db6a01229a402a4b1b681343294a6c
:1015d80013603b69da6a264913469b0013449b0053
:1015e8000b4404331b68fb603b69fa689a60fb682c
:1015f8009a683b69da60fb689b683a6904325a600a
:101608003b691a1dfb689a603b69da6a13469b00be
:1016180013449b00164a1a443b695a613b69da6acb
:10162800134913469b0013449b000b441b68591c29
:101638000f4813469b0013449b000344196004e0c1
:101648000a4b1b68da6a3b69da6201237b6108e0ae
:101658003b695a6c054b1b68db6a9a4201d201232d
:101668007b617b6918461837bd4680bd1ca60020e3
:1016780020a60020fca6002080b586b000af7860c8
:101688007b683b6100237b617b68002b6cd03b69e6
:101698009b6c5a1e3b699a643b69da6a3b695b6cce
:1016a8009a4261d03b699b6c002b5dd13b69043346
:1016b800184608f003fa0346002b0ad13b69db6a97
:1016c800012202fa03f3da432a4b1b681340294a22
:1016d80013603b695a6c3b69da623b69db6ac3f1a8
:1016e80005023b699a613b69db6a01229a40214bfa
:1016f8001b6813431f4a13603b69da6a1e49134685
:101708009b0013449b000b4404331b68fb603b693c
:10171800fa689a60fb689a683b69da60fb689b68bc
:101728003a6904325a603b691a1dfb689a603b6942
:10173800da6a13469b0013449b000f4a1a443b691c
:101748005a613b69da6a0c4913469b0013449b00b3
:101758000b441b68591c084813469b0013449b0004
:101768000344196001237b617b6918461837bd461d
:1017780080bd00bffca6002020a6002080b588b050
:1017880000af786039607b68bb6101237b617b684f
:10179800002b00f08180bb695b6c3a689a4202d9e1
:1017a8003b68fb6102e0bb695b6cfb61bb69db6aa0
:1017b800fa699a4270d0bb699b6c7a699a426bd17c
:1017c800bb69db6a3b61bb69fa69da62bb699b6921
:1017d800002b04dbfb69c3f10502bb699a61bb6995
:1017e80059693a6913469b0013449b002c4a1344d9
:1017f800994251d1bb690433184608f05ff9034692
:10180800002b0ad1bb69db6a012202fa03f3da432f
:10181800244b1b681340234a1360bb69db6a01220f
:101828009a40204b1b6813431e4a1360bb69da6a4f
:101838001b4913469b0013449b000b4404331b684d
:10184800fb60bb69fa689a60fb689a68bb69da60f2
:10185800fb689b68ba6904325a60bb691a1dfb6849
:101868009a60bb69da6a13469b0013449b000c4ad2
:101878001a44bb695a61bb69da6a094913469b0075
:1018880013449b000b441b68591c054813469b00d6
:1018980013449b000344196000bf2037bd4680bd38
:1018a80020a60020fca6002080b483b000af094b1e
:1018b8001b689b697b60074b1b68da6a054b1b68d2
:1018c800c2f105029a617b6818460c37bd465df87f
:1018d800047b70471ca6002080b400af074b1b6830
:1018e800002b04d0054b1b689a6c01329a64034b99
:1018f8001b681846bd465df8047b70471ca600208f
:1019080080b586b000aff860b9607a6006f09dfed9
:10191800284b1a68fb6812339b0013445b68002b42
:1019280015d1244b1a68fb681344503301221a70ee
:101938007b68002b0bd00121786800f0f9fb1e4b67
:101948004ff080521a60bff34f8fbff36f8f06f0ce
:1019580095fe06f07afe174b1a68fb6812339b0057
:1019680013445b687b617b69002b14d0bb68002b38
:1019780008d0104b1a68fb6812339b0013440022ee
:101988005a6008e00b4b19687b695a1efb681233d2
:101998009b000b445a60074b1a68fb68134450338a
:1019a80000221a7006f06afe7b6918461837bd4691
:1019b80080bd00bf1ca6002004ed00e080b586b005
:1019c80000aff860b9607a603b6006f03efe344bc9
:1019d8001a68fb68134450331b78dbb2022b24d0ff
:1019e8002f4b1a68fb6812339b0013445968bb6875
:1019f800db431940fb6812339b0013445960284ba2
:101a08001a68fb681344503301221a703b6a002b92
:101a18000bd00121386a00f08bfb224b4ff080522b
:101a28001a60bff34f8fbff36f8f06f027fe06f0e3
:101a38000cfe3b68002b08d0194b1a68fb68123360
:101a48009b0013445a683b681a60154b1a68fb6878
:101a5800134450331b78dbb2022b02d000237b6186
:101a680010e00f4b1a68fb6812339b001344596847
:101a78007b68db431940fb6812339b0013445960b1
:101a880001237b61064b1a68fb681344503300221c
:101a98001a7006f0f3fd7b6918461837bd4680bdfd
:101aa8001ca6002004ed00e080b58ab000aff86005
:101ab800b9607a60fb7001237b62fb683b6206f0c9
:101ac800c4fd3b6b002b07d03a6abb6812339b00fe
:101ad80013445a683b6b1a603a6abb681344503324
:101ae8001b78fb773a6abb681344503302221a709a
:101af800fb78042b3fd801a252f823f07f1b00018a
:101b0800191b0001371b0001531b0001631b000157
:101b18003a6abb6812339b0013445a687b681a43bd
:101b2800396abb6812339b000b445a6024e03a6a56
:101b3800bb6812339b0013445b685a1c396abb6844
:101b480012339b000b445a6016e03a6abb681233a2
:101b58009b0013447a685a600ee0fb7f022b07d083
:101b68003a6abb6812339b0013447a685a6003e0f0
:101b780000237b6200e000bffb7f012b6cd13b6a36
:101b88005b69bb613b6a9b683a6ad2689a603b6a48
:101b9800db683a6a92685a60bb695a683b6a0433e0
:101ba8009a4203d13b6ada68bb695a603b6a0022f1
:101bb8005a61bb691b685a1ebb691a603b6adb6abb
:101bc80001229a40284b1b681343274a13603b6a3b
:101bd800da6a264913469b0013449b000b440433de
:101be8001b687b613b6a7a699a607b699a683b6a81
:101bf800da607b699b683a6a04325a603b6a1a1d4c
:101c08007b699a603b6ada6a13469b0013449b001f
:101c1800164a1a443b6a5a613b6ada6a1349134600
:101c28009b0013449b000b441b68591c0f48134628
:101c38009b0013449b00034419603b6ada6a0c4b0f
:101c48001b68db6a9a4207d90a4b4ff080521a6028
:101c5800bff34f8fbff36f8f06f010fd7b6a1846f6
:101c68002837bd4680bd00bffca6002020a6002066
:101c78001ca6002004ed00e080b48fb000aff8602f
:101c8800b9607a60fb7001237b63fb683b63eff309
:101c980011824ff0200383f31188bff36f8fbff3d6
:101ca8004f8fba617b61bb69fb623b6c002b07d02d
:101cb8003a6bbb6812339b0013445a683b6c1a603a
:101cc8003a6bbb68134450331b7887f82b303a6b58
:101cd800bb681344503302221a70fb78042b41d896
:101ce80001a252f823f000bf6d1d0001051d00017f
:101cf800231d00013f1d00014f1d00013a6bbb6809
:101d080012339b0013445a687b681a43396bbb68cb
:101d180012339b000b445a6025e03a6bbb681233c0
:101d28009b0013445b685a1c396bbb6812339b00d9
:101d38000b445a6017e03a6bbb6812339b0013449c
:101d48007a685a600fe097f82b30022b07d03a6b6d
:101d5800bb6812339b0013447a685a6003e000237f
:101d68007b6300e000bf97f82b30012b40f08f8099
:101d78004d4b1b68002b5ed13b6b5b697b623b6bf9
:101d88009b683a6bd2689a603b6bdb683a6b9268e7
:101d98005a607b6a5a683b6b04339a4203d13b6ba7
:101da800da687b6a5a603b6b00225a617b6a1b685f
:101db8005a1e7b6a1a603b6bdb6a01229a403b4bd6
:101dc8001b681343394a13603b6bda6a3849134678
:101dd8009b0013449b000b4404331b683b623b6b22
:101de8003a6a9a603b6a9a683b6bda603b6a9b681e
:101df8003a6b04325a603b6b1a1d3b6a9a603b6b24
:101e0800da6a13469b0013449b00294a1a443b6b29
:101e18005a613b6bda6a264913469b0013449b00c0
:101e28000b441b68591c224813469b0013449b0013
:101e3800034419601be01f4b5b68fb613b6bfa694d
:101e4800da61fb699a683b6b1a62fb699b683a6bbb
:101e580018325a603b6b03f11802fb699a603b6bbe
:101e6800144a9a62134b1b680133124a13603b6b86
:101e7800da6a114b1b68db6a9a4208d97b6c002b23
:101e880002d07b6c01221a600c4b01221a60fb6a9b
:101e98003b613b6983f311887b6b18463c37bd4631
:101ea8005df8047b704700bf1ca70020fca600203b
:101eb80020a60020b4a600201ca6002008a7002009
:101ec80080b48fb000aff860b9607a60fb687b635c
:101ed800eff311824ff0200383f31188bff36f8f64
:101ee800bff34f8ffa61bb61fb693b637a6bbb68d9
:101ef800134450331b7887f82f307a6bbb68134430
:101f0800503302221a707a6bbb6812339b00134459
:101f18005b685a1c796bbb6812339b000b445a6090
:101f280097f82f30012b40f08f804d4b1b68002b0a
:101f38005ed17b6b5b69bb627b6b9b687a6bd2689b
:101f48009a607b6bdb687a6b92685a60bb6a5a68e6
:101f58007b6b04339a4203d17b6bda68bb6a5a60a5
:101f68007b6b00225a61bb6a1b685a1ebb6a1a60e7
:101f78007b6bdb6a01229a403a4b1b681343394a50
:101f880013607b6bda6a384913469b0013449b0045
:101f98000b4404331b687b627b6b7a6a9a607b6aaa
:101fa8009a687b6bda607b6a9b687a6b04325a604a
:101fb8007b6b1a1d7b6a9a607b6bda6a13469b00ff
:101fc80013449b00284a1a447b6b5a617b6bda6a7c
:101fd800254913469b0013449b000b441b68591c5e
:101fe800214813469b0013449b00034419601be0df
:101ff8001e4b5b683b627b6b3a6ada613b6a9a68a4
:102008007b6b1a623b6a9b687a6b18325a607b6bef
:1020180003f118023b6a9a607b6b144a9a62134b6d
:102028001b680133114a13607b6bda6a104b1b681b
:10203800db6a9a4208d97b68002b02d07b680122b0
:102048001a600c4b01221a603b6b7b617b6983f33e
:10205800118800bf3c37bd465df8047b704700bf60
:102068001ca70020fca6002020a60020b4a6002063
:102078001ca6002008a7002080b584b000af7860b7
:1020880039607b68002b02d1104b1b6800e07b682d
:10209800bb6006f0dafaba683b68134450331b7821
:1020a800dbb2022b08d1ba683b68134450330022d4
:1020b8001a700123fb6001e00023fb6006f0defae2
:1020c800fb6818461037bd4680bd00bf1ca600201f
:1020d80080b586b000aff860b9607a60fb68002b05
:1020e80002d1124b1b6800e0fb687b6106f0adfa79
:1020f8007a69bb6812339b0013445b683b617a6959
:10210800bb6812339b0013445a687b68db431a4050
:102118007969bb6812339b000b445a6006f0aefa2b
:102128003b6918461837bd4680bd00bf1ca6002075
:1021380080b586b000af78603960364b1b687b612c
:10214800354b1b680433184607f0b8fc0346002bd0
:102158000bd1314b1b68db6a012202fa03f3da4325
:102168002e4b1b6813402d4a13607b68b3f1ff3f69
:1021780024d13b68002b21d0294b5b683b61264b5f
:102188001b683a699a60244b1b683a699268da605e
:10219800214b1a683b699b6804325a601e4b1b68c6
:1021a8001a1d3b699a601c4b1b681d4a5a611c4bdf
:1021b8001b6801331a4a136000bf26e07a697b68fe
:1021c8001344fb60144b1b68fa685a60fa687b6911
:1021d8009a4209d2134b1a680f4b1b6804331946ed
:1021e800104607f032fc10e00f4b1a680a4b1b68c8
:1021f80004331946104607f028fc0c4b1b68fa6894
:102208009a4202d2094afb68136000bf1837bd46dc
:1022180080bd00bff8a600201ca60020fca6002058
:10222800e0a60020b0a60020aca6002014a700203d
:020000040000fa
:020000040100f9
:1022380080b584b000af78600b46fb70fb78fb601c
:102248007b681b0903f58803223318027b6803f0b7
:102258000f03012202fa03f17b6803f00f03fa6807
:1022680002fa03f31a4605f05bfb00bf1037bd46c0
:1022780080bd80b584b000af78607b68002b27d024
:102288004ff0ff33fb6007f10c031946786802f042
:1022980080fa0346002b05d07a680f490a2004f01b
:1022a8002df816e0fb68184602f0a1fa034683f001
:1022b8000103dbb2002b0cd000bffb68184602f00c
:1022c80096fa034683f00103dbb2002bf5d100e058
:1022d80000bf1037bd4680bd6c69000180b500aff6
:1022e8000a4b1b68ff2b09d009490a2003f0befee0
:1022f800064b1b6801211846fff79aff034b5b68e2
:102308001846fff7b6ff00bf80bd00bf80a80020b9
:102318007c69000180b500af0a4b1b68ff2b09d010
:1023280009490a2003f0a2fe064b1b680021184643
:10233800fff77eff034b5b681846fff79aff00bf65
:1023480080bd00bf80a800208869000180b584b0e6
:1023580000af78607b68002b02d100f033f802e010
:10236800786800f059f80023fb6008e0124afb681f
:102378004ff6ff7122f81310fb680133fb60fb680e
:102388001f2bf3dd0023bb6008e00c4abb684ff647
:10239800ff7122f81310bb680133bb60bb681f2ba9
:1023a800f3ddfff79bff06490a2003f0b1fe00bfeb
:1023b8001037bd4680bd00bf00a8002040a80020ff
:1023c8009469000180b500af10490a2003f04efe61
:1023d8000f4b07221a600e4b4ff452725a600c4b87
:1023e8001b229a600a4b1b22da60094b5a221a6197
:1023f800074b04225a61064b07229a61044b0022bc
:10240800da61034b034a1a6200bf80bda06900016c
:1024180080a800206666663f80b582b000af78600d
:1024280018490a2003f022fe7b681b68164a1360cd
:102438007b681b6903f07f03134a13617b68db68c1
:10244800114ad3607b689b680f4a93607b689b69dd
:1024580003f007030c4a93617b685b6903f0070389
:10246800094a53617b685b68074a53607b68db698c
:10247800054ad3617b681b6a034a136200bf0837a9
:10248800bd4680bdbc69000180a8002080b588b029
:1024980002aff8607a601a460b46fb721346bb72ad
:1024a8000a4b1b6998b2fa7abb7a00937b68f96881
:1024b80006f05aff0346fb75044bdb681846fff726
:1024c800d8fefb7d18461837bd4680bd80a8002081
:1024d80080b584b000af78600b46fb70094b1b6970
:1024e8009bb2fa787968184606f078ff0346fb73c2
:1024f800044b9b681846fff7bcfefb7b1846103759
:10250800bd4680bd80a8002080b487b000af786049
:1025180039600023fb7500233b6121e03b697a6841
:1025280013441a78fb7d5340fb750823fb6011e0c8
:1025380097f91730002b07dafb7d5b005bb283f05d
:1025480007035bb2fb7502e0fb7d5b00fb75fb6874
:10255800013bfb60fb68002bead13b6901333b611f
:102568003b693a689a42d9d8fb7d18461c37bd4664
:102578005df8047b704780b584b000af0346fb71fb
:102588001a4b1b69dbb25b00dbb23b72fb797b72d7
:102598000023bb7207f108030233fb6007f108034d
:1025a80002211846fff7b0ff03461a46fb681a7067
:1025b80007f10803013302211846fff789ff034694
:1025c80083f00103dbb2002b03d009490a2003f092
:1025d80043fe064b1a697b7a06490a2003f046fd3a
:1025e800012318461037bd4680bd00bf80a80020d3
:1025f800d4690001f069000190b58db004af0346bd
:102608000a46fb711346bb80294b1b69dbb25b0092
:10261800dbb23b73fb797b730023bb730023fb7333
:1026280000233b7407f10c030233fb6107f10c0331
:102638000333bb6107f10c0304337b61bb88dab257
:10264800fb691a70bb881b0a9bb2dab2bb691a70a5
:1026580007f10c0304211846fff756ff03461a46f4
:102668007b691a7007f10c03013304211846fff740
:102678002fff034683f00103dbb2002b03d00d4983
:102688000a2003f0e9fd0a4b1a697b7b1c46bb7bd9
:10269800f97b387c029001910093234606490a2071
:1026a80003f0e4fc012318462437bd4690bd00bf63
:1026b80080a80020106a0001286a000190b58db03a
:1026c80004af03463960fb71324b1b69dbb25b0018
:1026d800dbb23b73fb797b732e4b1b69dbb25b0070
:1026e800dbb20133dbb2bb730023fb7300233b7403
:1026f80000237b7407f10c03da1c07f10c03581c48
:1027080003230121fff7c2fe0346002b38d007f14f
:102718000c030333fb6107f10c030433bb6107f1be
:102728000c0305337b61bb691b781b021ab2fb697a
:102738001b781bb213431bb29ab23b681a8007f18d
:102748000c0305211846fff7dffe03461a467b698e
:102758001b789a4210d10f4b1a697b7b1c46fb7b76
:10276800397c787c02900191009323460a490a201b
:1027780003f07cfc012308e008490a2003f06cfd03
:1027880007490a2003f068fd002318462437bd4690
:1027980090bd00bf80a80020586a0001886a000127
:1027a800a46a000180b584b000af03460a46fb71f5
:1027b8001346bb8097f9073003f01f035bb243f061
:1027c80020035bb2fb73ba88fb7b11461846fff700
:1027d80013ff034618461037bd4680bd80b584b048
:1027e80000af03463960fb7197f9073003f01f0308
:1027f8005bb243f020035bb2fb73fb7b396818467e
:10280800fff75cff034618461037bd4680bd80b50c
:1028180084b000af03463960fb71fb7903f01f03f6
:10282800fb73fb7b39681846fff748ff03461846d9
:102838001037bd4680bd80b582b000af00237b60f5
:1028480019e07b68d8b27b685b000f4a13441946cd
:10285800fff7ddff034683f00103dbb2002b07d04f
:10286800094a7b684ff6ff7122f81310002306e02f
:102878007b6801337b607b681f2be2dd01231846f0
:102888000837bd4680bd00bf40a8002080b582b093
:1028980000af00237b6019e07b68d8b27b685b00df
:1028a8000e4a13441946fff799ff034683f00103c4
:1028b800dbb2002b07d0094a7b684ff6ff7122f87c
:1028c8001310002306e07b6801337b607b681f2bb5
:1028d800e2dd012318460837bd4680bd00a8002068
:1028e80080b582b000af03463a60fb800b467b712f
:1028f8007b7900211846fff755ff0346002b1dd0b2
:10290800fa887b7911461846fff74cff0346002bdf
:1029180014d07b7939681846fff760ff0346002b0f
:102928000cd03b681b88fa889a4201d101230ae03f
:10293800fa887b7906490a2003f08efc3b684ff63b
:10294800ff721a80002318460837bd4680bd00bfb5
:10295800bc6a000180b584b000af03463960fb80d3
:102968001346bb800c4b5a89fb881340fb81ba88fd
:102978003b6802fa03f31ab2b7f90e3013431bb2dd
:10298800fb81fb89054a05211846fff7a9ff034685
:1029980018461037bd4680bd00a800200aa80020b0
:1029a80080b584b000af0346fb80134b5b891b12d4
:1029b8009bb203f00703fb81fb8803f00703fb804e
:1029c800fa89fb889a4212d0fb881a4608214ff6ea
:1029d800ff00fff7bfff0346002b06d0fb881a460f
:1029e80006490a2003f094fb01e0002300e00123dc
:1029f80018461037bd4680bd00a80020ec6a0001cb
:102a080080b584b000af0346fb80124b5b8903f0ae
:102a18000703fb81fb8803f00703fb80fa89fb8827
:102a28009a4212d0fb881a4600214ff6f870fff739
:102a380091ff0346002b06d0fb881a4606490a2058
:102a480003f066fb01e0002300e00123184610377d
:102a5800bd4680bd00a80020046b000180b584b08d
:102a680000af0346fb80134b5b899b119bb203f0bd
:102a78000103fb81fb8803f00103fb80fa89fb88d3
:102a88009a4212d0fb881a4606214ff6bf70fff70c
:102a980061ff0346002b06d0fb881a4606490a2028
:102aa80003f036fb01e0002300e00123184610374d
:102ab800bd4680bd00a800201c6b000180b584b015
:102ac80000af0346fb80134b5b89db109bb203f01e
:102ad8000103fb81fb8803f00103fb80fa89fb8873
:102ae8009a4212d0fb881a4603214ff6f770fff777
:102af80031ff0346002b06d0fb881a4606490a20f8
:102b080003f006fb01e0002300e00123184610371c
:102b1800bd4680bd00a80020386b000180b584b098
:102b280000af0346fb80134b5b891b119bb203f07c
:102b38000303fb81fb8803f00303fb80fa89fb880e
:102b48009a4212d0fb881a4604214ff6cf70fff73d
:102b580001ff0346002b06d0fb881a4606490a20c7
:102b680003f0d6fa01e0002300e0012318461037ed
:102b7800bd4680bd00a80020606b000180b584b010
:102b880000af0346fb80134b5b89db119bb203f05c
:102b98000103fb81fb8803f00103fb80fa89fb88b2
:102ba8009a4212d0fb881a4607214ff67f70fff72a
:102bb800d1fe0346002b06d0fb881a4606490a2098
:102bc80003f0a6fa01e0002300e0012318461037bd
:102bd800bd4680bd00a80020886b000180b584b088
:102be80000af0346fb80134b5b89db129bb203f0fb
:102bf8000703fb81fb8803f00703fb80fa89fb8846
:102c08009a4212d0fb881a460b214cf2ff70fff74c
:102c1800a1fe0346002b06d0fb881a4606490a2067
:102c280003f076fa01e0002300e00123184610378c
:102c3800bd4680bd00a80020a46b000180b584b00b
:102c480000af0346fb80134b5b899b139bb203f0d9
:102c58000103fb81fb8803f00103fb80fa89fb88f1
:102c68009a4212d0fb881a460e214bf6ff70fff7e6
:102c780071fe0346002b06d0fb881a4606490a2037
:102c880003f046fa01e0002300e00123184610375c
:102c9800bd4680bd00a80020bc6b000180b584b093
:102ca80000af0346fb80124b5b89db0bfb81fb8883
:102cb80003f00103fb80fa89fb889a4212d0fb8853
:102cc8001a460f2147f6ff70fff744fe0346002b14
:102cd80006d0fb881a4607490a2003f019fa01e0d2
:102ce800002300e0012318461037bd4680bd00bf11
:102cf80000a80020d86b000190b585b000af87ed23
:102d0800010ad7ed017ab7ee007af4eec77af1ee50
:102d180010fa02dd4ff07e537b60786808f058f9ae
:102d280039a3d3e9002308f0e2f80346002b01d0c9
:102d38002d4b7b60d7ed017a9fed2c7a67ee877a71
:102d480017ee900a08f044f94ff00002284b05f0fe
:102d58007bff03460c461846214608f06ffa0346e7
:102d6800fb81244b1b89fa899a4201d1012337e060
:102d78006020fff700fc0346002b25d0fb891e4a84
:102d880004211846fff7acfd0346002b1cd0194b55
:102d9800db8b1a4a0f211846fff7a2fd0346002bca
:102da80012d06120fff7e7fb0346002b0cd07868b0
:102db80008f00ef903460c461a46234610490a2025
:102dc80003f0a6f901230be0786808f001f903463f
:102dd8000c461a4623460b490a2003f03dfa002305
:102de80018461437bd4690bdcdcc4c3d00ff7f47fb
:102df8000000e03f00a8002008a800201ea800202e
:102e0800046c0001246c00019a9999999999a93f39
:102e180080b582b000af0346fb80134b9b8bfa88ca
:102e28009a4201d101231ae0fb88104a0e21184664
:102e3800fff756fd034683f00103dbb2002b07d0f2
:102e4800fb881a460a490a2003f006fa002306e01e
:102e5800fb881a4607490a2003f05af90123184645
:102e68000837bd4680bd00bf00a800201ca8002070
:102e7800486c0001706c000180b582b000af034659
:102e8800fb80134b1b88fa889a4201d101231ae070
:102e9800fb880f4a00211846fff722fd034683f0fe
:102ea8000103dbb2002b07d0fb881a4609490a2028
:102eb80003f0d2f9002306e0fb881a4606490a20e7
:102ec80003f026f9012318460837bd4680bd00bf28
:102ed80000a80020906c0001b06c000180b582b0a1
:102ee80000af0346fb80134b5b88fa889a4201d1f6
:102ef80001231ae0fb88104a01211846fff7f0fc6d
:102f0800034683f00103dbb2002b07d0fb881a4687
:102f18000a490a2003f0a0f9002306e0fb881a46b4
:102f280007490a2003f0f4f8012318460837bd467c
:102f380080bd00bf00a8002002a80020cc6c0001c2
:102f4800ec6c000180b584b000af0346fb80fb88c1
:102f5800dbb2fb80184bdb88dbb2fb81fb881b02f2
:102f68001ab2b7f90e3013431bb2fb81124bdb8840
:102f7800fa899a4201d101231ae0fb890f4a0321f9
:102f88001846fff7adfc034683f00103dbb2002bc4
:102f980007d0fb881a460a490a2003f05df9002386
:102fa80006e0fb881a4607490a2003f0b1f8012316
:102fb80018461037bd4680bd00a8002006a800208e
:102fc800086d0001286d000180b584b000af03468c
:102fd800fb80fb88dbb2fb80194bdb8823f0ff0307
:102fe800fb81b7f90630dbb21ab2b7f90e301343da
:102ff8001bb2fb81124bdb88fa899a4201d101236b
:103008001ae0fb890f4a03211846fff769fc0346bb
:1030180083f00103dbb2002b07d0fb881a460a496c
:103028000a2003f019f9002306e0fb881a4607492d
:103038000a2003f06df8012318461037bd4680bdfd
:1030480000a8002006a80020446d0001646d00015e
:1030580080b584b000af03463960fb801346bb805f
:103068000e4b9a88fb881340fb81ba88fb88db43a8
:103078009bb21a403b6802fa03f31ab2b7f90e3052
:1030880013431bb2fb81fb89054a02211846fff74f
:1030980027fc034618461037bd4680bd00a800200f
:1030a80004a8002080b584b000af0346fb80124b13
:1030b8009b8803f00103fb81fb8803f00103fb807d
:1030c800fa89fb889a4212d0fb881a4600214ff6eb
:1030d800fe70fff7bdff0346002b06d0fb881a469b
:1030e80006490a2003f014f801e0002300e0012358
:1030f80018461037bd4680bd00a80020806d00012d
:1031080080b584b000af0346fb80134b9b885b10ef
:103118009bb203f00103fb81fb8803f00103fb80f2
:10312800fa89fb889a4212d0fb881a4601214ff689
:10313800fd70fff78dff0346002b06d0fb881a466b
:1031480006490a2002f0e4ff01e0002300e0012321
:1031580018461037bd4680bd00a80020a06d0001ac
:1031680080b584b000af0346fb80134b9b889b104f
:103178009bb203f00103fb81fb8803f00103fb8092
:10318800fa89fb889a4212d0fb881a4602214ff628
:10319800fb70fff75dff0346002b06d0fb881a463d
:1031a80006490a2002f0b4ff01e0002300e00123f1
:1031b80018461037bd4680bd00a80020c46d000128
:1031c80080b584b000af0346fb80134b9b88db10af
:1031d8009bb203f00103fb81fb8803f00103fb8032
:1031e800fa89fb889a4212d0fb881a4603214ff6c7
:1031f800f770fff72dff0346002b06d0fb881a4611
:1032080006490a2002f084ff01e0002300e00123c0
:1032180018461037bd4680bd00a80020f06d00019b
:1032280080b584b000af0346fb80134b9b881b110d
:103238009bb203f01f03fb81fb8803f01f03fb8095
:10324800fa89fb889a4212d0fb881a4604214ff665
:103258000f60fff7fdfe0346002b06d0fb881a46d9
:1032680006490a2002f054ff01e0002300e0012390
:1032780018461037bd4680bd00a80020146e000116
:1032880080b584b000af0346fb80124b9b885b0a75
:10329800fb81fb8803f07f03fb80fa89fb889a4255
:1032a80012d0fb881a4609214ff48070fff7d0fe30
:1032b8000346002b06d0fb881a4607490a2002f06d
:1032c80027ff01e0002300e0012318461037bd4620
:1032d80080bd00bf00a800203c6e000180b584b00e
:1032e80000af78600123fb7302210a2002f06efe12
:1032f8007868fff72bf8fff7c9fa034683f0010354
:10330800dbb2002b01d0012347e0fff794fa034614
:1033180083f00103dbb2002b01d002233de0fb7bed
:10332800002b07d01f4b5b699bb21846fff738fb91
:103338000346fb73fb7b002b07d01a4b9b699bb2a0
:103348001846fff75dfb0346fb73fb7b002b07d09a
:10335800144bdb699bb21846fff780fb0346fb73ef
:10336800fb7b002b08d00f4bd3ed087ab0ee670a31
:10337800fff7c2fc0346fb73fb7b83f00103dbb260
:10338800002b01d0042308e0fef7c4fffef7a6ffd8
:1033980005490a2002f0bcfe002318461037bd4636
:1033a80080bd00bf80a80020606e000180b500af1e
:1033b800fef7b0ff02490a2002f0aafe00bf80bd56
:1033c800846e000190b583b000af78602449062070
:1033d800fff71dfa034683f00103dbb2002b05d08b
:1033e800204b4ff6ff729a81022330e01d4b9b89d8
:1033f8001bb2002b01da082329e01a4b9b8907ee40
:10340800903af8ee677a9fed187a67ee877a17eeaa
:10341800900a07f0ddfd10a3d3e9002308f04ef869
:1034280003460c461846214607f032fc02467b68e4
:103438001a607b681b68184607f0cafd03460c46ed
:103448001a46234609490a2002f062fe002318465c
:103458000c37bd4690bd00bf666666666612714051
:103468004ca8002040a800200ad7a33c906e000179
:1034780090b583b000af786025490720fff7c7f9fa
:10348800034683f00103dbb2002b05d0214b4ff636
:10349800ff72da81022330e01e4bdb891bb2002b5e
:1034a80001da082329e01b4bdb8907ee903af8ee96
:1034b800677a9fed197a67ee877a17ee900a07f018
:1034c80087fd11a3d3e9002307f0f8ff03460c4654
:1034d8001846214607f0dcfb02467b681a607b68c9
:1034e8001b68184607f074fd03460c461a46234627
:1034f8000a490a2002f00cfe002318460c37bd4684
:1035080090bd00bfaff300806666666666127140c4
:103518004ea8002040a800200ad7a33ca86e0001ae
:1035280090b583b000af78602b4b5b8903f0400304
:10353800002b05d17b684ff000021a60002340e0a1
:1035480026490820fff763f9034683f00103dbb23d
:10355800002b05d0224b4ff6ff721a82022330e06f
:103568001f4b1b8a1bb2002b01da082329e01c4bd6
:103578001b8a07ee903af8ee677a9fed1a7a67eea3
:10358800877a17ee900a07f023fd11a3d3e90023e9
:1035980007f094ff03460c461846214607f078fbcf
:1035a80002467b681a607b681b68184607f010fda6
:1035b80003460c461a4623460b490a2002f0a8fd8a
:1035c800002318460c37bd4690bd00bfaff30080fe
:1035d800666666666612714000a8002050a8002042
:1035e80040a800200ad7a33cc06e000180b582b075
:1035f80000af78600f490420fff709f9034683f00c
:103608000103dbb2002b05d00b4b4ff6ff721a817a
:1036180002230be0084b1a897b681a807b681b8899
:103628001a4606490a2002f073fd00231846083797
:10363800bd4680bd48a8002040a80020d86e0001e3
:1036480080b582b000af7860154b5b8903f040030a
:10365800002b04d17b6800221a8000231be011494b
:103668000520fff7d4f8034683f00103dbb2002bf3
:1036780005d00d4b4ff6ff725a8102230be00a4b1f
:103688005a897b681a807b681b881a4607490a2072
:1036980002f03efd002318460837bd4680bd00bf36
:1036a80000a800204aa8002040a80020f46e0001cd
:1036b800f0b585b000af4ff000014ff00002c7e948
:1036c800021200227a6024e017497a681c3231f825
:1036d800122091b24ff000027868c000a0f1200ecd
:1036e800c0f1200c02fa00f401fa0efe44ea0e04be
:1036f80021fa0cfc44ea0c0401fa00f3d7e902129f
:1037080041ea030542ea0406c7e902567a6801322b
:103718007a607a68032ad7ddd7e902341846214649
:0c3728001437bd46f0bd00bf00a8002013
:020000040000fa
:020000040100f9
:1037340080b483b000af0346fb80fb880133fb8079
:10374400fb884ff6ff72934201d10123fb80fb8873
:1037540018460c37bd465df8047b704780b483b0cf
:1037640000af03460a46fb801346bb80fb881a045d
:10377400bb88134318460c37bd465df8047b70477d
:1037840080b500af0f4b93f83030002b16d14ff6b5
:10379400ff710d4804f079fb0346012b0cd1094b52
:1037a40093f90830184606f02ffa03461a46054bdb
:1037b40083f83120012302e0002300e001231846ae
:1037c40080bd00bf20a7002058a7002080b500af0f
:1037d400094b93f90820084b93f8313019461046e9
:1037e40006f034fa044b93f83030002b02d103482e
:1037f40004f06efb00bf80bd20a7002058a7002066
:1038040080b485b000af78600023fb607b68b3f1bf
:10381400ff3f17d07b68002b14d07b689bb2042b2e
:1038240010d87b689bb25b010a4a1344fb60fb68b7
:10383400db697a689a4205d1fb681b78002b01d0ba
:10384400fb6800e0002318461437bd465df8047b8e
:10385400704700bf60a700202de9f04f8db000af86
:103864004ff000034ff00004c7e90a344a4bfb61f0
:10387400fb695b6bbb61fb695a69fb691a61bb69d4
:10388400002b2bd0bb699b68b3f5004f11d3fb69a8
:103894005b694ff0000447f6ff714ff000025818bf
:1038a400b86044eb0203fb60d7e90234c7e90a3489
:1038b40022e0bb699b687b61fb695b6919464ff039
:1038c40000027b694ff00004c818386042eb04031f
:1038d4007b60d7e90034c7e90a340de0fb695b6912
:1038e4004ff0000447f6ff714ff0000213eb010a9a
:1038f40044eb020bc7e90aabfb695b689b69984719
:1039040003469bb24ff00004c7e90834fb691b6906
:103914004ff00004d7e90812a24208bf99420bd223
:10392400d7e908344ff6ff714ff0000213eb01089a
:1039340044eb0209c7e90889fb691b6a19464ff081
:103944000002d7e90834cd1842eb0406d7e90a345b
:10395400b44208bfab4206d23a6afb691b6a1a44f6
:10396400fb69da6102e0ba6afb69da61fb69db6967
:103974009bb2002b02d1fb690122da61fb695b680f
:103984005b69fa69d26992b21046984700bf34372e
:10399400bd46bde8f08f00bf20a7002080b489b0e9
:1039a40000af7860224b3b613b695b6bfb6100239a
:1039b400bb610023fb753b695b6bfb6104e0fb6946
:1039c400bb61fb699b69fb61fb69002b03d0fa694e
:1039d4007b689a42f3d1fb69002b01d1fb7d21e086
:1039e4007b689b69002b0ad07b689b68fb607b68c3
:1039f4009b6999687b689b69fa680a449a60bb6909
:103a0400002b07d13b695b6b9a693b695a630123bd
:103a1400fb7503e07b689a69bb699a617b68002245
:103a24009a61fb7d18462437bd465df8047b7047d8
:103a340020a700202de9f0038ab000af78604ff092
:103a440000034ff00004c7e90834394b3b613b697c
:103a54005b6bfb610023bb610023fb757b68002b60
:103a640001d1fb7d5de07b689b68fb60fb69002bfb
:103a74002ad17b68fa689a603b697a685a630123a1
:103a8400fb754de0fb699b6819464ff00002d7e9ce
:103a94000834cd1842eb0406fb684ff00004b4422e
:103aa40008bfab4214d3fb699b684ff00004d7e90d
:103ab400081211eb030842eb0409c7e90889fb6902
:103ac400bb61fb699b69fb61fb69002bdad100e0f8
:103ad40000bfbb69002b08d13b697a685a637b68d5
:103ae400fa699a610123fb7506e0bb699a697b68f0
:103af4009a61bb697a689a613b6afa68d21a7b68f0
:103b04009a607b689b69002b0ad07b689b68fb608a
:103b14007b689b6999687b689b69fa688a1a9a60d2
:103b2400fb7d18462837bd46bde8f003704700bf4b
:103b340020a7002080b487b000af78600e4b3b61b3
:103b440000237b613b691b69fb607a68fb689a42ce
:103b540004d97a68fb68d31a7b6105e07a68fb684c
:103b6400d31a03f580337b617b6918461c37bd4645
:103b74005df8047b704700bf20a7002080b588b0a3
:103b840000af7860264b3b613b695b6bfb610023b4
:103b9400bb6100237b617b685b7883f00103dbb24c
:103ba400002b0ad000237b6135e0fb699b68ba696e
:103bb4001344bb61fb699b69fb61fb69002b03d068
:103bc400fa697b689a42f0d1fb699b68ba6913442d
:103bd400bb613b695b689b6998470346fb60f86877
:103be400fff7a8ff7861ba697b699a4204d3ba697e
:103bf4007b69d31abb6101e00023bb61fb695b688d
:103c0400ba699a4205d8fb695a68bb69d31a7b61c1
:103c140001e000237b617b6918462037bd4680bde7
:103c240020a7002080b485b000af7860184bbb603b
:103c34000023fb60bb685b6bfb6018e0fb689b6860
:103c44007a689a4208d8fb689a687b68d21afb683b
:103c54009a6000237b6007e0fb689b687a68d31a4c
:103c64007b60fb6800229a60fb689b69fb60fb68d1
:103c7400002b02d07b68002be0d1bb685a69bb687b
:103c84001a6100bf1437bd465df8047b704700bf5e
:103c940020a70020f0b587b000af7860204b7b618f
:103ca40000233b610023fb737b695b689b69984736
:103cb40003461a467b695a617b695b691846fff7bc
:103cc40039ff38613869fff7adff05f089ff034616
:103cd400bb737b69d3e90a123b694ff00004cd182a
:103ce40042eb04067b69c3e90a56bb7b184605f020
:103cf4007eff7868fff79efe0346fb73fb7b002b79
:103d040009d005f06dff0346bb73fff7a5fdbb7b30
:103d1400184605f06cff00bf1c37bd46f0bd00bf60
:103d240020a7002080b582b000af1f4b3b603b68ea
:103d34005b6b7b602ee07b689b68002b2ed17b68dd
:103d440001221a757b6801225a757b689b78002bc7
:103d540009d17b68db68002b05d07b68db691846da
:103d640000f0e4fb09e07868fff718fe7b689b78b5
:103d7400002b02d17b6800225a707b68db68002b21
:103d840005d07b68db687a681269104698473b68ff
:103d94005b6b7b607b68002bcdd100e000bf00bf74
:103da4000837bd4680bd00bf20a7002080b584b081
:103db40000af78607868fff735fffff7b3ff0023a3
:103dc400fb732de0fb7b1a4a5b01134415331b780c
:103dd400dbb2002b21d0fb7b154a5b011344153366
:103de40000221a70fb7b124a5b01134402331b78d6
:103df400012b12d1fa7bfb7b0d4952010a44043298
:103e040012680b495b010b4408331a60fb7b5b01ae
:103e1400074a13441846fff70dfefb7b0133fb737f
:103e2400fb7b042bced900bf1037bd4680bd00bf3d
:103e340060a70020f0b587b000af78603960224bee
:103e44007b617b695b6b3b610023fb607b695b6827
:103e54009b69984703461a467b695a617b695b698b
:103e64001846fff767fef8607b69d3e90a12fb681e
:103e74004ff00004cd1842eb04067b69c3e90a56ef
:103e84003b69002b12d07b6993f830300133dab2ee
:103e94007b6983f83020f868fff788ff7b6993f823
:103ea4003030013bdab27b6983f8302005f098feac
:103eb4000346fb72fff7d0fcfb7a184605f097fe29
:103ec40000bf1c37bd46f0bd20a7002080b588b0d8
:103ed40000aff860b9607a603b604ff0ff33fb617c
:103ee40000237b61fff74cfc034683f00103dbb244
:103ef400002b01d0fb6958e02e4b93f90030022bc4
:103f040050d1bb68002b4dd0ba68fb689a4249d3a4
:103f1400294bbb6142e0bb691b7883f00103dbb230
:103f2400002b35d0bb6901221a70bb6900225a707c
:103f3400bb6900221a75bb6900225a75bb6997f8e0
:103f440028209a70bb69ba685a60bb697a68da60db
:103f5400bb693a681a61ba68fb68d21abb699a608d
:103f6400164b1b887a6992b211461846fff7f6fb86
:103f74000246bb69da61114b1b881846fff7d8fb70
:103f840003461a460d4b1a80bb69db69fb6109e0e5
:103f94007b6901337b61bb692033bb61bb69084a20
:103fa4009342b8d3fff712fcfb6918462037bd468d
:103fb40080bd00bf20a7002060a7002092a9002098
:103fc40000a800202de9f04f89b000af7860444b81
:103fd400fb617b68bb61bb691a68fb695a60fb695a
:103fe4005b68db6898470246fb69da60fb69db685b
:103ff4001d464ff000062b4634464ff000014ff0ab
:104004000002e20042ea5372d9000b4614465b1bdd
:1040140064eb06044ff000014ff00002620142ea33
:10402400d36259015b1842eb040413eb050a44eb19
:10403400060bc7e904abd7e904012a4a4ff0000391
:1040440007f02cf803460c4613f1020844f100096a
:10405400c7e90289ba68fb691a62bb6993f904204b
:10406400fb691a72fb6900221a61fb694ff6ff7241
:104074009a61fb6947f6ff72da61fa694ff000034f
:104084004ff00004c2e90a34fb6900225a63fb6959
:10409400002283f83020fb695b681b68002112480a
:1040a4009847fb695b681b69002b07d0fb695b6859
:1040b4001b69fa69926992b210469847fb695b687a
:1040c4005b69fa69d26992b210469847fb695b68ea
:1040d4005b68984700bf2437bd46bde8f08f00bf3a
:1040e40020a70020006cdc02393e000180b582b0bc
:1040f40000af03463960fb803b68002b02d0fb888d
:10410400002b02d04ff0ff3314e00c4803f091fe73
:104114000346012b02d04ff0ff330be03868fff762
:1041240051ffa0220021064807f056f9054b022250
:104134001a70044b18460837bd4680bd58a70020a6
:1041440060a7002020a7002080b584b000af78606d
:104154000e4bfb607b68fa689a4212d1fb685b687d
:104164009b689847a0220021094807f035f94022ae
:104174000021064807f030f9fb6800221a7000bfde
:1041840000e000bf1037bd4680bd00bf20a700205f
:1041940060a7002080b485b000af7860094bbb6095
:1041a4000023fb737b68ba689a4202d1bb681b7810
:1041b400fb7397f90f3018461437bd465df8047b3e
:1041c400704700bf20a7002080b400af034bdb681a
:1041d4001846bd465df8047b704700bf20a7002049
:1041e400f0b587b000af154b7b614ff000034ff083
:1041f4000004c7e9023405f0f3fc0346fb717b6954
:104204005b689b69984703461846fff793fc386040
:104214007b69d3e90a123b684ff00004cd1842ebe6
:104224000406c7e90256fb79184605f0e0fcd7e915
:104234000234184621461c37bd46f0bd20a7002095
:1042440090b583b000affff7cbff03460c467b600d
:104254007b6818460c37bd4690bd90b585b000af5d
:10426400786005f0bdfc0346fb737b684ff00004e7
:10427400054ac2e90a34fb7b184605f0b8fc00bfc6
:104284001437bd4690bd00bf20a700202de9f043a0
:1042940083b000af78607b681d464ff000062b4664
:1042a40034464ff000014ff00002620142ead3624b
:1042b40059010b4614465b1b64eb06044ff00001e6
:1042c4004ff00002620242ead35259020b461446ee
:1042d4005b1946eb04044ff000014ff00002a20109
:1042e40042ea93629901c91a62eb040211eb0508d0
:1042f40042eb0609084bdb684ff000041a462346dc
:104304004046494606f0cafe03460c4618460c379a
:10431400bd46bde8f08300bf20a70020f0b583b000
:1043240000af78607b6819464ff000020b461446d4
:104334004ff000054ff00006660146ead3665d01c2
:104344002b4634465b1a64eb02044ff000054ff031
:104354000006a60046ea93769d002b4634465b1879
:1043640042eb04044ff000014ff00002e20042ea85
:104374005372d9000b46144618462146064bdb6897
:104384004ff000041a46234606f088fe03460c4606
:1043940018460c37bd46f0bd20a70020b0b582b04a
:1043a40000af78607b6819464ff000020b4bdb6866
:1043b4004ff0000403fb02f501fb04f00544a1fbec
:1043c40003016b181946064a4ff0000306f066fe17
:1043d40003460c4618460837bd46b0bd20a700204a
:1043e40040420f00b0b582b000af78607b681946d8
:1043f4004ff000020c4bdb684ff0000403fb02f5a6
:1044040001fb04f00544a1fb03016b1819464ff4aa
:104414007a724ff0000306f041fe03460c4618463c
:104424000837bd46b0bd00bf20a7002080b586b0c8
:1044340002aff860b9607a603b603b7e002b05d127
:104444007b68002b02d14ff0ff3308e03b7e0093e2
:104454003b687a68b968f868fff738fd0346184680
:104464001037bd4680bd80b586b000aff860b96036
:104474007a603b6000233b610123fb75fff780f901
:10448400034683f00103dbb2002b01d0fb7d47e040
:1044940097f82430002b06d13b68002b03d1fff79b
:1044a40095f9fb7d3ce0f868fff7aaf938613b69b0
:1044b400002b32d07b68002b2fd07a68bb689a42dd
:1044c4002bd33869fff76afa3b6900221a753b69f6
:1044d40000225a753b6997f824209a703b697a68e0
:1044e4005a607a68bb68d21a3b699a603b693a6839
:1044f400da603b693a6a1a610b4b93f83030002b4f
:1045040003d13869fff7c6fb02e03869fff792fa76
:104514003b6901225a700023fb75fff757f9fb7db5
:1045240018461837bd4680bd20a7002080b584b04a
:1045340000af78600023bb600123fb73fff720f911
:10454400034683f00103dbb2002b01d0fb7b1ee0aa
:104554007868fff755f9b860bb68002b14d0bb68c6
:104564005b78002b05d0b868fff718fabb68002207
:104574005a70bb6800221a75bb6800225a75bb6862
:1045840000221a700023fb73fff720f9fb7b184607
:104594001037bd4680bd80b584b000af786000237d
:1045a400bb600123fb73fff7ebf8034683f00103c1
:1045b400dbb2002b01d0fb7b2fe07868fff720f9fa
:1045c400b860bb68002b25d0bb685b7883f001031f
:1045d400dbb2002b1cd0bb689b68002b03d1bb68eb
:1045e4005a68bb689a600f4b93f83030002b03d1a4
:1045f400b868fff74ffb02e0b868fff71bfabb6827
:1046040000221a75bb6800225a75bb6801225a70d1
:104614000023fb73fff7daf8fb7b18461037bd461f
:1046240080bd00bf20a7002080b584b000af7860b3
:104634000023bb600123fb73fff7a2f8034683f05a
:104644000103dbb2002b01d0fb7b1fe07868fff78e
:10465400d7f8b860bb68002b15d0bb685b78002b1b
:104664000fd0b868fff79af9bb6800221a75bb68c7
:1046740000225a75bb6800225a70bb685a68bb682e
:104684009a600023fb73fff7a1f8fb7b18461037f1
:10469400bd4680bd80b586b000af78603960002328
:1046a4003b610123fb75fff76bf8034683f00103bd
:1046b400dbb2002b01d0fb7d15e03b68002b0fd053
:1046c4007868fff79df838613b69002b08d038699a
:1046d400fff754faf8603b68fa681a600023fb7528
:1046e400fff774f8fb7d18461837bd4680bd80b5ca
:1046f40084b000af78600023bb600023fb73fff736
:104704003ff8034683f00103dbb2002b01d0fb7baf
:104714000fe07868fff774f8b860bb68002b05d029
:10472400bb681b7dfb73bb6800221a75fff74ef84c
:10473400fb7b18461037bd4680bd80b586b002affe
:10474400786039600123fb733b68002b02d07b68df
:10475400002b01d1fb7b1ae07868fff71ffe0146ae
:1047640000230093002300220020fff7affb024642
:104774003b681a603b681b68b3f1ff3f06d03b6897
:104784001b681846fff707ff0023fb73fb7b1846e3
:104794001037bd4680bd80b586b002af7860396001
:1047a4000123fb733b68002b02d07b68002b01d1f3
:1047b400fb7b1ae07868fff715fe0146002300939f
:1047c400002300220020fff781fb02463b681a60a9
:1047d4003b681b68b3f1ff3f06d03b681b68184673
:1047e400fff7d9fe0023fb73fb7b18461037bd4649
:1047f40080bd80b584b000af78600023fb73786817
:10480400fff775ff0346002b04d07868fff78efe90
:104814000123fb73fb7b18461037bd4680bd80b572
:1048240088b002aff860b9607a60fb704ff0ff3374
:104834007b61fb78002b04d1fb68002b01d17b69e1
:1048440016e07b68002b12d07868fff7a7fd0146bd
:10485400fb780093bb68fa680020fff737fb7861a8
:104864007b69b3f1ff3f02d07869fff794fe7b695f
:1048740018461837bd4680bd80b588b002aff860d1
:10488400b9607a60fb704ff0ff337b61fb78002bdb
:1048940004d1fb68002b01d17b6916e07b68002bf7
:1048a40012d07868fff79efd0146fb780093bb6841
:1048b400fa680020fff70afb78617b69b3f1ff3fd8
:1048c40002d07869fff767fe7b6918461837bd4642
:0448d40080bd00bfe4
:020000040000fa
:020000040100f9
:1048d80080b584b000af786039600123fb607b68e5
:1048e800bb60bb68002b5dd0bb68db6b002b59d06d
:1048f800bb681a6cbb68db6b0021a3fb0223002b8f
:1049080000d001210b46002b4cd103f09efebb6862
:104918001a68bb68db6bb968096c01fb03f31a44be
:10492800bb689a60bb6800229a63bb681a68bb6858
:104938005a60bb681a68bb68db6b013bb968096cd5
:1049480001fb03f31a44bb68da60bb68ff2283f8f3
:104958004420bb68ff2283f845203b68002b14d114
:10496800bb681b69002b1ad0bb6810331846fcf7cc
:1049780037fb0346002b12d00e4b4ff080521a60c3
:10498800bff34f8fbff36f8f09e0bb681033184632
:1049980005f00af8bb682433184605f005f803f05b
:1049a8006dfe01e00023fb60fb6818461037bd462a
:1049b80080bd00bf04ed00e080b58ab002aff860aa
:1049c800b9601346fb710023fb61fb68002b2dd0f7
:1049d8000021ba68fb68a3fb0223002b00d0012149
:1049e8000b46002b22d1fb68ba6802fb03f313f1d4
:1049f800490f1bd8fb68ba6802fb03f3bb61bb69ac
:104a08004833184605f060faf861fb69002b0dd0b1
:104a1800fb697b617b6948337b61fa79fb690093a9
:104a280013467a69b968f86800f005f8fb69184612
:104a38002037bd4680bd80b584b000aff860b9604e
:104a48007a60fb70bb68002b03d1bb69ba691a6036
:104a580002e0bb697a681a60bb69fa68da63bb6905
:104a6800ba681a640121b869fff732ff00bf10372e
:104a7800bd4680bd80b582b000af78607b68002bf2
:104a88000ed07b6800229a607b6800221a607b68df
:104a98000022da60002300220021786800f069f81b
:104aa80000bf0837bd4680bd80b586b000af03465d
:104ab800fb7101237b6100233b61fb791a4639694d
:104ac8007869fff779fff860f868fff7d3fffb68ac
:104ad80018461837bd4680bd80b584b000af7860f1
:104ae8007b68bb6003f0b1fdbb681b68002b03d17a
:104af800bb689b68fb6001e00023fb6003f0befd20
:104b0800fb6818461037bd4680bd80b485b000af3d
:104b180078607b681b68002b03d17b689b68fb600f
:104b280001e00023fb60fb6818461437bd465df8ba
:104b3800047b704780b584b000af7860396000238b
:104b4800fb607b68002b0fd03a687b689a420bd8d1
:104b5800022200217868fff72ffff860fb68002b1e
:104b680002d0fb683a689a63fb6818461037bd465e
:104b780080bd80b58ab000aff860b9607a603b60ec
:104b880000237b62fb683b6203f05ffd3b6a9a6b24
:104b98003b6adb6b9a4202d33b68022b29d13a6805
:104ba800b968386a00f04afcf8613b6a5b6a002b16
:104bb80010d03b6a24331846fcf712fa0346002b40
:104bc80013d0404b4ff080521a60bff34f8fbff3a2
:104bd8006f8f0ae0fb69002b07d03a4b4ff08052e9
:104be8001a60bff34f8fbff36f8f03f047fd0123a8
:104bf80063e07b68002b03d103f040fd00235ce0f9
:104c08007b6a002b06d107f114031846fcf76afbf0
:104c180001237b6203f032fdfbf7cafe03f015fdaa
:104c28003b6a93f844305bb2b3f1ff3f03d13b6a70
:104c3800002283f844203b6a93f845305bb2b3f115
:104c4800ff3f03d13b6a002283f8452003f016fd9d
:104c58003a1d07f1140311461846fcf759fb0346a1
:104c6800002b24d1386a00f0f7fc0346002b18d03b
:104c78003b6a10337a6811461846fcf763f9386abc
:104c880000f06cfcfbf7a2fe0346002b7ff47caf20
:104c98000c4b4ff080521a60bff34f8fbff36f8fea
:104ca80072e7386a00f05afcfbf790fe6ce7386a46
:104cb80000f054fcfbf78afe002318462837bd464f
:104cc80080bd00bf04ed00e080b58eb000aff86095
:104cd800b9607a603b60fb683b63eff311824ff089
:104ce800200383f31188bff36f8fbff34f8ffa61ef
:104cf800bb61fb69fb623b6b9a6b3b6bdb6b9a425c
:104d080002d33b68022b37d13b6b93f8453087f8c9
:104d18002b303b6b9b6b7b623a68b968386b00f051
:104d28008dfb97f92b30b3f1ff3f12d13b6b5b6ad8
:104d3800002b1ed03b6b24331846fcf751f9034671
:104d4800002b16d07b68002b13d07b6801221a60d9
:104d58000fe0fbf749ff386297f92b303a6a9a421d
:104d680007d997f82b300133dbb25ab23b6b83f883
:104d7800452001237b6301e000237b63fb6a7b61a1
:104d88007b6983f311887b6b18463837bd4680bd35
:104d980080b58cb000af786039607b68bb62eff398
:104da80011824ff0200383f31188bff36f8fbff395
:104db8004f8f7a613b617b697b62bb6a9b6b3b620d
:104dc800bb6adb6b3a6a9a4231d2bb6a93f84530c8
:104dd800fb773b6a5a1cbb6a9a6397f91f30b3f199
:104de800ff3f12d1bb6a5b6a002b1dd0bb6a24331c
:104df8001846fcf7f5f80346002b15d03b68002b46
:104e080012d03b6801221a600ee0fbf7edfeb86194
:104e180097f91f30ba699a4206d9fb7f0133dbb292
:104e28005ab2bb6a83f845200123fb6201e00023e4
:104e3800fb627b6afb60fb6883f31188fb6a184698
:104e48003037bd4680bd80b58ab000aff860b96024
:104e58007a6000237b62fb683b6203f0f6fb3b6ae7
:104e68009b6bfb61fb69002b1fd0b968386a00f0a7
:104e78004ffbfb695a1e3b6a9a633b6a1b69002b0e
:104e88000fd03b6a10331846fcf7aaf80346002bec
:104e980007d03d4b4ff080521a60bff34f8fbff3de
:104ea8006f8f03f0ebfb012369e07b68002b03d1d4
:104eb80003f0e4fb002362e07b6a002b06d107f1d4
:104ec80014031846fcf70efa01237b6203f0d6fba5
:104ed800fbf76efd03f0b9fb3b6a93f844305bb215
:104ee800b3f1ff3f03d13b6a002283f844203b6ab9
:104ef80093f845305bb2b3f1ff3f03d13b6a002220
:104f080083f8452003f0bafb3a1d07f11403114654
:104f18001846fcf7fdf90346002b23d1386a00f048
:104f28006ffb0346002b17d03b6a24337a6811467f
:104f38001846fcf707f8386a00f010fbfbf746fd47
:104f48000346002b89d1104b4ff080521a60bff3f3
:104f58004f8fbff36f8f80e7386a00f0fffafbf7d7
:104f680035fd7ae7386a00f0f9fafbf72ffd386a61
:104f780000f046fb0346002b3ff46faf00231846b2
:104f88002837bd4680bd00bf04ed00e080b58ab07b
:104f980000af7860396000237b627b68fb61002387
:104fa8003b6203f052fbfb699b6bbb61bb69002b47
:104fb80024d0bb695a1efb699a63fb691b68002be6
:104fc80004d1fcf789fc0246fb699a60fb691b69fe
:104fd800002b0fd0fb6910331846fcf701f8034685
:104fe800002b07d04c4b4ff080521a60bff34f8f05
:104ff800bff36f8f03f042fb012389e03b68002b6e
:1050080003d103f03bfb002382e07b6a002b06d12f
:1050180007f10c031846fcf765f901237b6203f0de
:105028002dfbfbf7c5fc03f010fbfb6993f844303c
:105038005bb2b3f1ff3f03d1fb69002283f8442040
:10504800fb6993f845305bb2b3f1ff3f03d1fb69cd
:10505800002283f8452003f011fb3a4607f10c03c0
:1050680011461846fcf754f90346002b32d1f8696b
:1050780000f0c6fa0346002b26d0fb691b68002bfc
:1050880009d103f0e2fafb699b681846fcf756fa67
:10509800386203f0f3fafb6924333a68114618467c
:1050a800fbf750fff86900f059fafbf78ffc03464d
:1050b800002b7ff476af184b4ff080521a60bff385
:1050c8004f8fbff36f8f6ce7f86900f047fafbf773
:1050d8007dfc66e7f86900f041fafbf777fcf869b0
:1050e80000f08efa0346002b3ff45baf3b6a002bbf
:1050f8000dd003f0aafaf86900f088f97861fb6925
:105108009b6879691846fcf739fb03f0b7fa002366
:1051180018462837bd4680bd04ed00e080b58ab04a
:1051280000aff860b9607a6000237b62fb683b627d
:1051380003f08bfa3b6a9b6bfb61fb69002b21d068
:105148003b6adb68bb61b968386a00f0e1f93b6a21
:10515800ba69da603b6a5b6a002b0fd03b6a24337a
:105168001846fbf73dff0346002b07d03c4b4ff09a
:1051780080521a60bff34f8fbff36f8f03f07efa30
:10518800012369e07b68002b03d103f077fa002341
:1051980062e07b6a002b06d107f110031846fcf782
:1051a800a1f801237b6203f069fafbf701fc03f025
:1051b8004cfa3b6a93f844305bb2b3f1ff3f03d13a
:1051c8003b6a002283f844203b6a93f845305bb27f
:1051d800b3f1ff3f03d13b6a002283f8452003f077
:1051e8004dfa3a1d07f1100311461846fcf790f8de
:1051f8000346002b23d1386a00f002fa0346002b3d
:1052080017d03b6a24337a6811461846fbf79afe92
:10521800386a00f0a3f9fbf7d9fb0346002b87d1c6
:105228000f4b4ff080521a60bff34f8fbff36f8f51
:105238007ee7386a00f092f9fbf7c8fb78e7386a2e
:1052480000f08cf9fbf7c2fb386a00f0d9f9034685
:10525800002b3ff46daf002318462837bd4680bdac
:1052680004ed00e080b58eb000aff860b9607a60f8
:10527800fb683b63eff311824ff0200383f311883f
:10528800bff36f8fbff34f8ffa61bb61fb69fb629e
:105298003b6b9b6bbb62bb6a002b37d03b6b93f8b5
:1052a800443087f82730b968386b00f031f9bb6aa9
:1052b8005a1e3b6b9a6397f92730b3f1ff3f12d11f
:1052c8003b6b1b69002b1ed03b6b10331846fbf75a
:1052d80087fe0346002b16d07b68002b13d07b6813
:1052e80001221a600fe0fbf77ffc386297f927303c
:1052f8003a6a9a4207d997f827300133dbb25ab293
:105308003b6b83f8442001237b6301e000237b632c
:10531800fb6a7b617b6983f311887b6b184638379e
:10532800bd4680bd80b58ab000af786039607b68c3
:105338003b62eff311824ff0200383f31188bff330
:105348006f8fbff34f8f7a613b617b69fb613b6a6b
:105358009b6b002b0cd03b6adb68bb613968386af1
:1053680000f0d6f83b6aba69da6001237b6201e093
:1053780000237b62fb69fb60fb6883f311887b6a0f
:1053880018462837bd4680bd80b584b000af786028
:1053980003f05bf97b689b6bfb6003f06ff9fb68bc
:1053a80018461037bd4680bd80b584b000af786020
:1053b8007b68fb6003f049f9fb68da6bfb689b6b61
:1053c800d31abb6003f05af9bb6818461037bd46bc
:1053d80080bd80b485b000af78607b68fb60fb68f7
:1053e8009b6bbb60bb6818461437bd465df8047bf1
:1053f800704780b584b000af78607b68fb60f86860
:1054080004f0bafd00bf1037bd4680bd80b485b03a
:1054180000af78607b685b6a002b06d07b681b6beb
:105428001b68c3f10503fb6001e00023fb60fb6818
:1054380018461437bd465df8047b704780b586b0c2
:1054480000aff860b9607a6000237b61fb689b6bf2
:105458003b61fb681b6c002b0dd1fb681b68002ba4
:105468004dd1fb689b681846fcf706f97861fb6824
:1054780000229a6043e07b68002b19d1fb685868ca
:10548800fb681b6c1a46b96805f03afffb685a6856
:10549800fb681b6c1a44fb685a60fb685a68fb6817
:1054a8009b689a422bd3fb681a68fb685a6026e00f
:1054b800fb68d868fb681b6c1a46b96805f020ffc2
:1054c800fb68da68fb681b6c5b421a44fb68da60ad
:1054d800fb68da68fb681b689a4207d2fb689a681f
:1054e800fb681b6c5b421a44fb68da607b68022b22
:1054f80005d13b69002b02d03b69013b3b613b690d
:105508005a1cfb689a637b6918461837bd4680bdec
:1055180080b582b000af786039607b681b6c002b67
:1055280018d07b68da687b681b6c1a447b68da6081
:105538007b68da687b689b689a4203d37b681a6841
:105548007b68da607b68d9687b681b6c1a463868a8
:1055580005f0d6fe00bf0837bd4680bd80b584b0d3
:1055680000af786003f071f87b6893f84530fb73ff
:1055780011e07b685b6a002b12d07b6824331846e5
:10558800fbf72efd0346002b01d0fbf70bfffb7b3f
:10559800013bdbb2fb7397f90f30002be9dc00e02d
:1055a80000bf7b68ff2283f8452003f067f803f00b
:1055b8004cf87b6893f84430bb7311e07b681b6937
:1055c800002b12d07b6810331846fbf709fd034601
:1055d800002b01d0fbf7e6febb7b013bdbb2bb73c4
:1055e80097f90e30002be9dc00e000bf7b68ff2252
:1055f80083f8442003f042f800bf1037bd4680bd51
:1056080080b584b000af786003f01ff87b689b6baf
:10561800002b02d10123fb6001e00023fb6003f0b3
:105628002df8fb6818461037bd4680bd80b485b09c
:1056380000af78607b68bb60bb689b6b002b02d1b6
:105648000123fb6001e00023fb60fb681846143768
:10565800bd465df8047b704780b584b000af7860c4
:1056680002f0f3ff7b689a6b7b68db6b9a4202d18e
:105678000123fb6001e00023fb6002f0fffffb68f1
:1056880018461037bd4680bd80b485b000af78603d
:105698007b68bb60bb689a6bbb68db6b9a4202d1c4
:1056a8000123fb6001e00023fb60fb681846143708
:0856b800bd465df8047b70475c
:020000040000fa
:020000040100f9
:1056c00080b400af194b01221a6000bf174bdb6991
:1056d000002bfbd1154b4ff480725a6000bf134b67
:1056e000db69002bfbd1114be822da600f4b104a2b
:1056f0001a6000bf0d4bdb69002bfbd10b4b102256
:105700005a8300bf094bdb69002bfbd1094b0022f8
:1057100083f82120074b002283f82020034b8322ab
:105720009a7500bfbd465df8047b7047000c0042cf
:105730009600100034a9002080b489b000aff86052
:10574000b9607a600023fb61fb6807ee903af8eedf
:10575000677ac7ed067abb6807ee903af8ee677a8b
:10576000c7ed057a4ff000033b61bb685b00fa6848
:105770009a4201d2002357e0bb682e4a93421fd8b9
:10578000d7ed066ad7ed057a86eea77ad7ed067ac9
:10579000dfed296a67eea67af2ee046a77eea67a62
:1057a00077ee677ac7ed047ad7ed047afceee77af4
:1057b00017ee903afb61bb68204a934213d801e090
:1057c000002331e0fb69b3f5ff7f02d9ff23fb61c2
:1057d00026e0fb69012b02d80123fb6120e0fb6975
:1057e0005b08fb611ce0fb69b3f5bf7f03d34ff699
:1057f0007f73fb6114e0fb69032b03d840f20123a4
:10580000fb610de0fb695b000d4aa2fb03235b0813
:105810001a02fb690a49a1fb03135b081343fb61ee
:105820007b68fa691a60012318462437bd465df883
:10583000047b704740420f0095bfd633801a0600a4
:10584000abaaaaaa80b586b000af78603960002301
:105850007b617b68002b01d1002349e07b681b68da
:105860003b613b68002b01d1234b3b6007f10c03ec
:105870001a4639693868fff75fff034683f0010372
:10588000dbb2002b01d0002332e03b691b4a93427c
:1058900001d901237b611a4b1b68194a23f00203cb
:1058a000136000bf164bdb69002bfbd1144afb6869
:1058b000d360134b1b6823f040727b691b0603f017
:1058c00040730f4913430b600d4b1b680c4a43f0a8
:1058d0000203136000bf0a4bdb69002bfbd1084bae
:1058e00010225a8300bf064bdb69002bfbd101233a
:1058f00018461837bd4680bd006cdc02801a0600d1
:10590000000c004280b483b000af78603960064a72
:105910007b685362044a3b68936200bf0c37bd4604
