:020000040000fa
:10000000f0ff012059b300019fb80001a5b800011d
:10001000b1b80001b7b80001bdb800010000000090
:100020000000000000000000000000002991000115
:10003000abb800010000000049920001b792000136
:10004000ebb00001ebb00001ebb00001ebb0000140
:10005000ebb0000135840001ebb00001ebb0000112
:10006000ebb00001ebb00001ebb00001ebb0000120
:10007000ebb00001ebb00001ed640001ebb000015a
:10008000ebb00001ebb00001ebb0000141950001c5
:10009000ebb00001ebb00001ebb00001ebb00001f0
:1000a000ebb00001ebb00001ebb00001ebb00001e0
:1000b000ebb00001ebb00001ebb00001ebb00001d0
:1000c000ebb00001ebb00001ebb00001ebb00001c0
:1000d000ebb00001ebb00001ebb00001ebb00001b0
:020000040000fa
:020000040004f6
:045f8800ffff000017
:020000040000fa
:020000040004f6
:045f8c0000400e843f
:020000040000fa
:020000040004f6
:045f900038fc745f06
:020000040000fa
:020000040004f6
:045f940038440a146f
:020000040000fa
:020000040004f6
:045f98000300007191
:020000040000fa
:020000040004f6
:045f9c000000000001
:020000040000fa
:020000040004f6
:045fbc0000000010d1
:020000040000fa
:020000040100f9
:10000000f8b500bff8bc08bc9e46704745b5000176
:10001000f8b500bff8bc08bc9e46704721b500018a
:020000040000fa
:020000040100f9
:08002000a88d000001000000a2
:020000040000fa
:020000040100f9
:1000280080b58cb004aff860b9603b601346fb80c4
:10003800fb889b0018460af0ddfb78617b69002b82
:1000480013d054200af0d6fbf861fb69002b08d0c6
:1000580054220021f8690bf00bfdfb697a691a63d9
:1000680005e078690af01efc01e00023fb61fb69ea
:10007800002b13d0fa8800230393fb690293fb6ad1
:100088000193bb6a00933b68b968f86800f00ef802
:10009800f86900f07bf80123bb6102e04ff0ff3301
:1000a800bb61bb6918462037bd4680bd80b586b0a8
:1000b80000aff860b9607a603b60bb6a186b7b6818
:1000c8009b001a46a5210bf0d3fcbb6a1a6b7b6810
:1000d80003f18043013b9b0013443b613b6923f0e0
:1000e80007033b61bb68002b1ed000237b6112e035
:1000f800ba687b6913441978ba6a7b691344343344
:100108000a461a70ba687b6913441b78002b06d01c
:100118007b6901337b617b690f2be9d900e000bf64
:10012800bb6a002283f843203b6a042b01d90423cd
:100138003b62bb6a3a6ada62bb6a3a6a5a64bb6a69
:100148000433184609f09affbb6a1833184609f0b9
:1001580095ffbb6aba6a1a613b6ac3f10502bb6aba
:100168009a61bb6aba6a5a623a68f968386908f0eb
:100178008bff0246bb6a1a607b6a002b02d07b6a3f
:10018800ba6a1a6000bf1837bd4680bd80b584b012
:1001980000af786009f021f83e4b1b6801333d4af7
:1001a80013603d4b1b68002b09d13b4a7b681360e9
:1001b800384b1b68012b10d101f018f90de0374bb3
:1001c8001b68002b09d1344b1b68da6a7b68db6a31
:1001d8009a4202d8304a7b681360314b1b6801335e
:1001e8002f4a13607b68db6a01229a402d4b1b68fb
:1001f80013432c4a13607b68da6a2b4913469b0029
:1002080013449b000b4404331b68fb607b68fa684b
:100218009a60fb689a687b68da60fb689b687a6812
:1002280004325a607b681a1dfb689a607b68da6a38
:1002380013469b0013449b001b4a1a447b685a616f
:100248007b68da6a184913469b0013449b000b44e9
:100258001b68591c144813469b0013449b00034415
:10026800196008f0d3ff0d4b1b68002b0ed00a4b0a
:100278001b68da6a7b68db6a9a4207d20b4b4ff03d
:1002880080521a60bff34f8fbff36f8f00bf1037d4
:10029800bd4680bdeca2002014a20020f8a20020d8
:1002a80008a30020f4a2002018a2002004ed00e01a
:1002b80080b584b000af786008f08fff7b68002bb2
:1002c80002d1344b1b6800e07b68fb60fb68043399
:1002d800184609f03dff0346002b15d1fb68da6a82
:1002e8002d4913469b0013449b000b441b68002bad
:1002f8000ad1fb68db6a012202fa03f3da43274bcf
:100308001b681340254a1360fb689b6a002b04d0c6
:10031800fb681833184609f01bff214b1b68013393
:100328001f4a13601b4b1b68fa689a420bd1fb6883
:10033800043319461b4809f0aefe1b4b1b680133fa
:10034800194a136006e0194b1b68013b174a1360f2
:1003580001f0c8f808f05aff0e4b1b68fa689a4279
:1003680002d0f86801f0aef8114b1b68002b0cd0d6
:10037800084b1b68fa689a4207d10e4b4ff080521f
:100388001a60bff34f8fbff36f8f00bf1037bd46a2
:1003980080bd00bf14a2002018a20020f4a20020f3
:1003a80008a30020c0a20020d4a20020eca20020b4
:1003b800f8a2002004ed00e080b586b000af7860b8
:1003c800396000237b6100f0f3fa224b1b683b6124
:1003d8007b681b683a681344fb607b681b683a6952
:1003e8009a420bd27b681b68fa689a4211d2fa6863
:1003f8003b699a420dd901237b610ae07b681b683f
:10040800fa689a4203d3fa683b699a4201d90123f0
:100418007b617b68fa681a607b69002b06d0fa68f2
:100428003b69d31a0021184601f082fe00f0cefa8b
:10043800b860bb68002b07d1074b4ff080521a6099
:10044800bff34f8fbff36f8f7b6918461837bd46d0
:1004580080bd00bff0a2002004ed00e080b584b0ac
:1004680000af78600023fb607b68002b08d000f0a9
:100478009ffa0021786801f05bfe00f0a7faf860a7
:10048800fb68002b07d1064b4ff080521a60bff370
:100498004f8fbff36f8f00bf1037bd4680bd00bfc1
:1004a80004ed00e080b584b000af786008f095fef8
:1004b8007b68002b02d1074b1b6800e07b68fb6060
:1004c800fb68db6abb6008f0a1febb681846103702
:1004d800bd4680bd14a2002080b489b000af78600a
:1004e800eff311824ff0200383f31188bff36f8f6e
:1004f800bff34f8f3a61fb603b69fb617b68002b60
:1005080002d10a4b1b6800e07b68bb61bb69db6af0
:100518007b61fb69bb60bb6883f311887b69184604
:100528002437bd465df8047b704700bf14a2002045
:1005380080b588b000af786039600023fb613b6804
:10054800042b01d904233b6008f047fe7b68002b8d
:1005580002d1554b1b6800e07b68bb61bb695b6cd3
:100568007b617a693b689a4200f098803a687b69b7
:100578009a420dd94c4b1b68ba699a420fd04a4b24
:100588001b68db6a3a689a4209d30123fb6106e0db
:10059800454b1b68ba699a4201d10123fb61bb69cb
:1005a800db6a3b61bb695a6cbb69db6a9a4202d160
:1005b800bb693a68da62bb693a685a64bb699b6985
:1005c800002b04db3b68c3f10502bb699a61bb6978
:1005d80059693a6913469b0013449b00334a1344f4
:1005e800994250d1bb690433184609f0b1fd03465e
:1005f800002b09d101223b6902fa03f3da432c4ba1
:100608001b6813402a4a1360bb69db6a01229a40bf
:10061800274b1b681343264a1360bb69da6a2349d0
:1006280013469b0013449b000b4404331b68fb6078
:10063800bb69fa689a60fb689a68bb69da60fb680c
:100648009b68ba6904325a60bb691a1dfb689a60d4
:10065800bb69da6a13469b0013449b00134a1a4489
:10066800bb695a61bb69da6a104913469b00134497
:100678009b000b441b68591c0c4813469b001344f1
:100688009b0003441960fb69002b07d0094b4ff00e
:1006980080521a60bff34f8fbff36f8f08f0b6fd1b
:1006a80000bf2037bd4680bd14a2002018a200203c
:1006b800f4a2002004ed00e080b584b000af7860bb
:1006c80008f08bfd7b68002b02d13b4b1b6800e0d8
:1006d8007b68bb60bb680433184609f039fd0346e4
:1006e800002b15d1bb68da6a344913469b001344c2
:1006f8009b000b441b68002b0ad1bb68db6a0122f4
:1007080002fa03f3da432e4b1b6813402c4a13609a
:10071800bb689b6a002b04d0bb681833184609f0e5
:1007280017fdbb6804331946264809f0b4fc0023ba
:10073800fb6010e0ba68fb68134450331b78dbb2e7
:10074800012b05d1ba68fb681344503300221a7094
:10075800fb680133fb60fb68002bebdd08f056fdfe
:10076800194b1b68002b05d008f037fd00f0bafec6
:1007780008f04cfd104b1b68ba689a4218d1124b0e
:100788001b68002b08d0114b4ff080521a60bff342
:100798004f8fbff36f8f0be00a4b1a680c4b1b6827
:1007a8009a4203d1044b00221a6001e000f05efb7c
:1007b80000bf1037bd4680bd14a2002018a200203b
:1007c800f4a20020d8a20020f8a2002004ed00e046
:1007d800eca2002080b485b000af78600023fb60f5
:1007e8007b68bb60bb685b690a4a93420ad1bb68f5
:1007f8009b6a094a934205d0bb689b6a002b01d1ca
:100808000123fb60fb6818461437bd465df8047b7e
:10081800704700bfd8a20020aca2002080b584b0e9
:1008280000af78607b68fb60344b1b68fa689a42bb
:100838005fd0fb68002b5cd008f0cffcf868fff7ae
:10084800c9ff0346002b52d0fb680433184609f051
:100858007ffcfb68db6a01229a40294b1b68134323
:10086800274a1360fb68da6a264913469b0013443b
:100878009b000b4404331b68bb60fb68ba689a6032
:10088800bb689a68fb68da60bb689b68fa680432e0
:100898005a60fb681a1dbb689a60fb68da6a1346df
:1008a8009b0013449b00174a1a44fb685a61fb6873
:1008b800da6a144913469b0013449b000b441b68d7
:1008c800591c104813469b0013449b0003441960ad
:1008d800fb68da6a094b1b68db6a9a4207d30a4b42
:1008e8004ff080521a60bff34f8fbff36f8f08f03d
:1008f8008dfc00bf1037bd4680bd00bf14a200208c
:10090800f4a2002018a2002004ed00e080b584b015
:1009180002af144b01930023009300238022124955
:100928001248fff77dfb78607b68012b14d14ff0ec
:10093800200383f31188bff36f8fbff34f8f3b60a2
:100948000b4b4ff0ff321a600a4b01221a600a4b18
:1009580000221a6008f00ffc084b1b6800bf08371c
:10096800bd4680bd10a3002030bb0001c5130001a7
:100978000ca30020f8a20020f0a200203ca6002032
:1009880080b582b000af4ff0200383f31188bff326
:100998006f8fbff34f8f7b60044b00221a6008f003
:1009a80015fc00bf0837bd4680bd00bff8a2002077
:1009b80080b400af044b1b680133034a136000bfc7
:1009c800bd465df8047b704714a3002080b586b04f
:1009d80000af00237b6100233b6108f0fefb684bfe
:1009e8001b68013b664a1360654b1b68002b40f08f
:1009f800c080644b1b68002b00f0bb808ae0624b10
:100a0800db68db687b617b699b6abb607b69db6950
:100a18007a69126a9a607b691b6a7a69d2695a6034
:100a2800bb685a687b6918339a4203d17b691a6a92
:100a3800bb685a607b6900229a62bb681b685a1eb1
:100a4800bb681a607b695b697b607b699b687a69b4
:100a5800d2689a607b69db687a6992685a607b68b9
:100a68005a687b6904339a4203d17b69da687b68e8
:100a78005a607b6900225a617b681b685a1e7b6832
:100a88001a607b69db6a01229a40404b1b6813435a
:100a98003e4a13607b69da6a3d4913469b0013445a
:100aa8009b000b4404331b683b607b693a689a607f
:100ab8003b689a687b69da603b689b687a690432ac
:100ac8005a607b691a1d3b689a607b69da6a13462b
:100ad8009b0013449b002e4a1a447b695a617b6928
:100ae800da6a2b4913469b0013449b000b441b688e
:100af800591c274813469b0013449b000344196064
:100b08007b69da6a234b1b68db6a9a4202d3224b61
:100b180001221a601c4b1b68002b7ff470af7b69a5
:100b2800002b01d000f0defc1c4b1b68fb60fb684f
:100b3800002b10d000f094f80346002b02d0164b7f
:100b480001221a60fb68013bfb60fb68002bf1d1b6
:100b5800124b00221a60104b1b68002b09d001238e
:100b68003b610f4b4ff080521a60bff34f8fbff3ba
:100b78006f8f08f04bfb3b6918461837bd4680bda0
:100b880014a30020eca20020aca20020f4a20020b4
:100b980018a2002014a2002000a30020fca200201c
:100ba80004ed00e080b483b000af054b1b687b60a8
:100bb8007b6818460c37bd465df8047b704700bf5c
:100bc800f0a2002080b483b000af00237b60054b07
:100bd8001b683b603b6818460c37bd465df8047bd4
:100be800704700bff0a2002080b400af034b1b6821
:100bf8001846bd465df8047b704700bfeca2002094
:100c080080b485b000af78607b68002b02d1064bba
:100c18001b6800e07b68fb60fb68343318461437b8
:100c2800bd465df8047b704714a2002080b584b0ef
:100c380000af7860fff7bcfe08f0cffa074b1a68e0
:100c48007b681344054a136008f0e0fafff7befe1c
:100c5800f860fb6818461037bd4680bdfca200202e
:100c680080b588b000af0023fb61754b1b68002b73
:100c780040f0dc80734b1b680133bb61714abb6970
:100c88001360bb69002b10d16f4b1b687b616f4be6
:100c98001b686d4a13606d4a7b6913606c4b1b6857
:100ca80001336b4a136000f01dfc6a4b1b68ba697c
:100cb8009a42c0f0a680644b1b681b68002b04d1c5
:100cc800644b4ff0ff321a609be05f4b1b68db6898
:100cd800db683b613b695b68fb60ba69fb689a4209
:100ce80003d25c4afb6813608be03b695b69bb60bd
:100cf8003b699b683a69d2689a603b69db683a69e4
:100d080092685a60bb685a683b6904339a4203d1b7
:100d18003b69da68bb685a603b6900225a61bb6864
:100d28001b685a1ebb681a603b699b6a002b1ed061
:100d38003b699b6a7b603b69db693a69126a9a6026
:100d48003b691b6a3a69d2695a607b685a683b6991
:100d580018339a4203d13b691a6a7b685a603b6927
:100d680000229a627b681b685a1e7b681a603b697e
:100d7800db6a01229a40384b1b681343364a1360da
:100d88003b69da6a354913469b0013449b000b44c0
:100d980004331b683b603b693a689a603b689a6811
:100da8003b69da603b689b683a6904325a603b6980
:100db8001a1d3b689a603b69da6a13469b00134424
:100dc8009b00264a1a443b695a613b69da6a2349ff
:100dd80013469b0013449b000b441b68591c1f4877
:100de80013469b0013449b00034419603b69da6a6d
:100df8001b4b1b68db6a9a427ff65daf0123fb61e0
:100e080059e7174b1b68da6a144913469b001344c9
:100e18009b000b441b68012b01d90123fb61114b7b
:100e28001b68002b07d00123fb6104e00e4b1b68f5
:100e380001330d4a1360fb6918462037bd4680bd53
:100e480014a30020f0a20020a4a20020a8a2002041
:100e580004a300200ca30020f4a2002018a2002064
:100e680014a2002000a30020fca2002080b586b0b8
:100e780000af2f4b1b68002b03d02e4b01221a60aa
:100e880051e02c4b00221a602b4b1b681b6b7b61bb
:100e98004ff0a5333b617b691b683a699a4211d1cf
:100ea8007b6904331b683a699a420bd17b69083322
:100eb8001b683a699a4205d17b690c331b683a6909
:100ec8009a4208d01c4b1a681b4b1b6834331946ce
:100ed80010460af054f8194b1b687b607b68b3fa1c
:100ee80083f3fb70fb78c3f11f03fb60fa681346ba
:100ef8009b0013449b00124a1344bb60bb685b68a9
:100f08005a68bb685a60bb685a68bb6808339a421b
:100f180004d1bb685b685a68bb685a60bb685b6889
:100f2800db68054a136000bf1837bd4680bd00bfa7
:100f380014a3002000a3002014a20020f4a2002083
:100f480018a2002080b582b000af78603960074be6
:100f58001b6818331946786809f0c1f80121386808
:100f680001f0e6f800bf0837bd4680bd14a2002096
:100f780080b586b000aff860b9607a60174b1b681f
:100f8800ba6842f000429a61fb685b687b61134b68
:100f98001b687a69da61114b1b687a6992681a6270
:100fa8000e4b1a687b699b6818325a600b4b1b689a
:100fb80003f118027b699a60084b1b68fa689a6209
:100fc800fb681b685a1cfb681a600121786801f0ed
:100fd800aff800bf1837bd4680bd00bf14a200207f
:100fe80080b489b000af78607b68db68db68bb6180
:100ff800bb699b6a7b61bb69db69ba69126a9a60e3
:10100800bb691b6aba69d2695a607b695a68bb694d
:1010180018339a4203d1bb691a6a7b695a60bb6963
:1010280000229a627b691b685a1e7b691a604a4bc8
:101038001b68002b5ed1bb695b693b61bb699b6820
:10104800ba69d2689a60bb69db68ba6992685a6003
:101058003b695a68bb6904339a4203d1bb69da68b1
:101068003b695a60bb6900225a613b691b685a1e7a
:101078003b691a60bb69db6a01229a40374b1b68df
:101088001343364a1360bb69da6a354913469b0035
:1010980013449b000b4404331b68fb60bb69fa686c
:1010a8009a60fb689a68bb69da60fb689b68ba69f2
:1010b80004325a60bb691a1dfb689a60bb69da6a18
:1010c80013469b0013449b00254a1a44bb695a6186
:1010d800bb69da6a224913469b0013449b000b4400
:1010e8001b68591c1e4813469b0013449b0003446d
:1010f80019601be01b4b5b68bb60bb69ba68da61af
:10110800bb689a68bb691a62bb689b68ba6918327f
:101118005a60bb6903f11802bb689a60bb69114a3f
:101128009a62104b1b6801330e4a1360bb69da6a76
:101138000d4b1b68db6a9a4205d90123fb610b4bf7
:1011480001221a6001e00023fb61fb69184624377d
:10115800bd465df8047b704714a30020f4a200206c
:1011680018a20020aca2002014a2002000a3002096
:1011780080b487b000af786039603b6843f00042c4
:101188007b681a607b68db687b617b681b693b61f5
:101198007b685b687a6892689a607b689b687a6803
:1011a80052685a603b695b687a689a4203d17b68e7
:1011b8009a683b695a607b6800221a613b691b6820
:1011c8005a1e3b691a607b695b69fb607b699b6897
:1011d8007a69d2689a607b69db687a6992685a6032
:1011e800fb685a687b6904339a4203d17b69da68e1
:1011f800fb685a607b6900225a61fb681b685a1eab
:10120800fb681a607b69db6a01229a40254b1b68e0
:101218001343244a13607b69da6a234913469b0007
:1012280013449b000b4404331b68bb607b69ba689a
:101238009a60bb689a687b69da60bb689b687a6960
:1012480004325a607b691a1dbb689a607b69da6a46
:1012580013469b0013449b00134a1a447b695a6146
:101268007b69da6a104913469b0013449b000b44c0
:101278001b68591c0c4813469b0013449b000344ed
:1012880019607b69da6a094b1b68db6a9a4202d9e2
:10129800074b01221a6000bf1c37bd465df8047b6e
:1012a800704700bff4a2002018a2002014a200205a
:1012b80000a3002080b582b000af786007f08dfff2
:1012c800064b1a687b681a60054b1a687b685a6077
:1012d80007f09cff00bf0837bd4680bd04a300206f
:1012e800f0a2002080b483b000af7860064b1a6883
:1012f8007b681a60054b1a687b685a6000bf0c3718
:10130800bd465df8047b704704a30020f0a20020ce
:1013180080b586b000af7860396007f05eff1f4b7c
:101328001b683b617b685b683a69d31afb603b6862
:101338001b68b3f1ff3f02d100237b6126e07b6885
:101348001a68174b1b689a420ad07b685b683a692f
:101358009a4205d301237b613b6800221a6015e09d
:101368003b681b68fa689a420bd23b681a68fb68ac
:10137800d21a3b681a607868fff7b4ff00237b61d4
:1013880004e03b6800221a6001237b6107f03efffe
:101398007b6918461837bd4680bd00bff0a2002003
:1013a80004a3002080b400af034b01221a6000bfe1
:1013b800bd465df8047b704700a3002080b582b06d
:1013c80000af786000f052f8064b1b68012bf9d982
:1013d800054b4ff080521a60bff34f8fbff36f8fea
:1013e800f0e700bf18a2002004ed00e080b582b04d
:1013f80000af00237b600ce07a6813469b0013441f
:101408009b00124a1344184608f018fe7b68013303
:101418007b607b68042befd90d4808f00ffe0d4860
:1014280008f00cfe0c4808f009fe0c4808f006fe0f
:101438000b4808f003fe0b4b054a1a600a4b054a95
:101448001a6000bf0837bd4680bd00bf18a2002043
:101458007ca2002090a20020aca20020c0a2002004
:10146800d8a20020a4a20020a8a2002080b582b0a3
:1014780000af19e007f0b1fe0f4bdb68db687b605b
:101488007b680433184608f063fe0c4b1b68013b6d
:101498000a4a13600a4b1b68013b094a136007f0ac
:1014a800b5fe786800f00ef8054b1b68002be1d1fb
:1014b80000bf0837bd4680bdc0a20020eca20020b6
:1014c800d4a2002080b582b000af78607b681b6b27
:1014d800184609f0e7f9786809f0e4f900bf083719
:1014e800bd4680bd80b400af0a4b1b681b68002b4b
:1014f80004d1094b4ff0ff321a6005e0054b1b6819
:10150800db681b68044a136000bfbd465df8047bb6
:10151800704700bfa4a200200ca3002080b483b0b1
:1015280000af054b1b687b607b6818460c37bd46cf
:101538005df8047b704700bf14a2002080b586b018
:1015480000af78607b683b6100237b617b68002b80
:1015580000f087803b69da6a444b1b68db6a9a4271
:1015680076d23b699b69002b06db404b1b68db6a24
:10157800c3f105023b699a613b6959693b69da6abb
:1015880013469b0013449b00394a1344994257d190
:101598003b690433184608f0dbfd0346002b0ad1eb
:1015a8003b69db6a012202fa03f3da43314b1b6819
:1015b8001340304a13602d4b1b68da6a3b69da62c4
:1015c8003b69db6a01229a402a4b1b681343294a6c
:1015d80013603b69da6a264913469b0013449b0053
:1015e8000b4404331b68fb603b69fa689a60fb682c
:1015f8009a683b69da60fb689b683a6904325a600a
:101608003b691a1dfb689a603b69da6a13469b00be
:1016180013449b00164a1a443b695a613b69da6acb
:10162800134913469b0013449b000b441b68591c29
:101638000f4813469b0013449b000344196004e0c1
:101648000a4b1b68da6a3b69da6201237b6108e0ae
:101658003b695a6c054b1b68db6a9a4201d201232d
:101668007b617b6918461837bd4680bd14a20020ef
:1016780018a20020f4a2002080b586b000af7860e0
:101688007b683b6100237b617b68002b6cd03b69e6
:101698009b6c5a1e3b699a643b69da6a3b695b6cce
:1016a8009a4261d03b699b6c002b5dd13b69043346
:1016b800184608f04dfd0346002b0ad13b69db6a4a
:1016c800012202fa03f3da432a4b1b681340294a22
:1016d80013603b695a6c3b69da623b69db6ac3f1a8
:1016e80005023b699a613b69db6a01229a40214bfa
:1016f8001b6813431f4a13603b69da6a1e49134685
:101708009b0013449b000b4404331b68fb603b693c
:10171800fa689a60fb689a683b69da60fb689b68bc
:101728003a6904325a603b691a1dfb689a603b6942
:10173800da6a13469b0013449b000f4a1a443b691c
:101748005a613b69da6a0c4913469b0013449b00b3
:101758000b441b68591c084813469b0013449b0004
:101768000344196001237b617b6918461837bd461d
:1017780080bd00bff4a2002018a2002080b588b068
:1017880000af786039607b68bb6101237b617b684f
:10179800002b00f08180bb695b6c3a689a4202d9e1
:1017a8003b68fb6102e0bb695b6cfb61bb69db6aa0
:1017b800fa699a4270d0bb699b6c7a699a426bd17c
:1017c800bb69db6a3b61bb69fa69da62bb699b6921
:1017d800002b04dbfb69c3f10502bb699a61bb6995
:1017e80059693a6913469b0013449b002c4a1344d9
:1017f800994251d1bb690433184608f0a9fc034645
:10180800002b0ad1bb69db6a012202fa03f3da432f
:10181800244b1b681340234a1360bb69db6a01220f
:101828009a40204b1b6813431e4a1360bb69da6a4f
:101838001b4913469b0013449b000b4404331b684d
:10184800fb60bb69fa689a60fb689a68bb69da60f2
:10185800fb689b68ba6904325a60bb691a1dfb6849
:101868009a60bb69da6a13469b0013449b000c4ad2
:101878001a44bb695a61bb69da6a094913469b0075
:1018880013449b000b441b68591c054813469b00d6
:1018980013449b000344196000bf2037bd4680bd38
:1018a80018a20020f4a2002080b483b000af094b36
:1018b8001b689b697b60074b1b68da6a054b1b68d2
:1018c800c2f105029a617b6818460c37bd465df87f
:1018d800047b704714a2002080b400af074b1b683c
:1018e800002b04d0054b1b689a6c01329a64034b99
:1018f8001b681846bd465df8047b704714a200209b
:1019080080b586b000aff860b9607a6007f065fc12
:10191800284b1a68fb6812339b0013445b68002b42
:1019280015d1244b1a68fb681344503301221a70ee
:101938007b68002b0bd00121786800f0f9fb1e4b67
:101948004ff080521a60bff34f8fbff36f8f07f0cd
:101958005dfc07f042fc174b1a68fb6812339b00ca
:1019680013445b687b617b69002b14d0bb68002b38
:1019780008d0104b1a68fb6812339b0013440022ee
:101988005a6008e00b4b19687b695a1efb681233d2
:101998009b000b445a60074b1a68fb68134450338a
:1019a80000221a7007f032fc7b6918461837bd46ca
:1019b80080bd00bf14a2002004ed00e080b586b011
:1019c80000aff860b9607a603b6007f006fc344b02
:1019d8001a68fb68134450331b78dbb2022b24d0ff
:1019e8002f4b1a68fb6812339b0013445968bb6875
:1019f800db431940fb6812339b0013445960284ba2
:101a08001a68fb681344503301221a703b6a002b92
:101a18000bd00121386a00f08bfb224b4ff080522b
:101a28001a60bff34f8fbff36f8f07f0effb07f01c
:101a3800d4fb3b68002b08d0194b1a68fb6812339b
:101a48009b0013445a683b681a60154b1a68fb6878
:101a5800134450331b78dbb2022b02d000237b6186
:101a680010e00f4b1a68fb6812339b001344596847
:101a78007b68db431940fb6812339b0013445960b1
:101a880001237b61064b1a68fb681344503300221c
:101a98001a7007f0bbfb7b6918461837bd4680bd36
:101aa80014a2002004ed00e080b58ab000aff86011
:101ab800b9607a60fb7001237b62fb683b6207f0c8
:101ac8008cfb3b6b002b07d03a6abb6812339b0038
:101ad80013445a683b6b1a603a6abb681344503324
:101ae8001b78fb773a6abb681344503302221a709a
:101af800fb78042b3fd801a252f823f07f1b00018a
:101b0800191b0001371b0001531b0001631b000157
:101b18003a6abb6812339b0013445a687b681a43bd
:101b2800396abb6812339b000b445a6024e03a6a56
:101b3800bb6812339b0013445b685a1c396abb6844
:101b480012339b000b445a6016e03a6abb681233a2
:101b58009b0013447a685a600ee0fb7f022b07d083
:101b68003a6abb6812339b0013447a685a6003e0f0
:101b780000237b6200e000bffb7f012b6cd13b6a36
:101b88005b69bb613b6a9b683a6ad2689a603b6a48
:101b9800db683a6a92685a60bb695a683b6a0433e0
:101ba8009a4203d13b6ada68bb695a603b6a0022f1
:101bb8005a61bb691b685a1ebb691a603b6adb6abb
:101bc80001229a40284b1b681343274a13603b6a3b
:101bd800da6a264913469b0013449b000b440433de
:101be8001b687b613b6a7a699a607b699a683b6a81
:101bf800da607b699b683a6a04325a603b6a1a1d4c
:101c08007b699a603b6ada6a13469b0013449b001f
:101c1800164a1a443b6a5a613b6ada6a1349134600
:101c28009b0013449b000b441b68591c0f48134628
:101c38009b0013449b00034419603b6ada6a0c4b0f
:101c48001b68db6a9a4207d90a4b4ff080521a6028
:101c5800bff34f8fbff36f8f07f0d8fa7b6a184630
:101c68002837bd4680bd00bff4a2002018a200207e
:101c780014a2002004ed00e080b48fb000aff8603b
:101c8800b9607a60fb7001237b63fb683b63eff309
:101c980011824ff0200383f31188bff36f8fbff3d6
:101ca8004f8fba617b61bb69fb623b6c002b07d02d
:101cb8003a6bbb6812339b0013445a683b6c1a603a
:101cc8003a6bbb68134450331b7887f82b303a6b58
:101cd800bb681344503302221a70fb78042b41d896
:101ce80001a252f823f000bf6d1d0001051d00017f
:101cf800231d00013f1d00014f1d00013a6bbb6809
:101d080012339b0013445a687b681a43396bbb68cb
:101d180012339b000b445a6025e03a6bbb681233c0
:101d28009b0013445b685a1c396bbb6812339b00d9
:101d38000b445a6017e03a6bbb6812339b0013449c
:101d48007a685a600fe097f82b30022b07d03a6b6d
:101d5800bb6812339b0013447a685a6003e000237f
:101d68007b6300e000bf97f82b30012b40f08f8099
:101d78004d4b1b68002b5ed13b6b5b697b623b6bf9
:101d88009b683a6bd2689a603b6bdb683a6b9268e7
:101d98005a607b6a5a683b6b04339a4203d13b6ba7
:101da800da687b6a5a603b6b00225a617b6a1b685f
:101db8005a1e7b6a1a603b6bdb6a01229a403b4bd6
:101dc8001b681343394a13603b6bda6a3849134678
:101dd8009b0013449b000b4404331b683b623b6b22
:101de8003a6a9a603b6a9a683b6bda603b6a9b681e
:101df8003a6b04325a603b6b1a1d3b6a9a603b6b24
:101e0800da6a13469b0013449b00294a1a443b6b29
:101e18005a613b6bda6a264913469b0013449b00c0
:101e28000b441b68591c224813469b0013449b0013
:101e3800034419601be01f4b5b68fb613b6bfa694d
:101e4800da61fb699a683b6b1a62fb699b683a6bbb
:101e580018325a603b6b03f11802fb699a603b6bbe
:101e6800144a9a62134b1b680133124a13603b6b86
:101e7800da6a114b1b68db6a9a4208d97b6c002b23
:101e880002d07b6c01221a600c4b01221a60fb6a9b
:101e98003b613b6983f311887b6b18463c37bd4631
:101ea8005df8047b704700bf14a30020f4a2002053
:101eb80018a20020aca2002014a2002000a3002039
:101ec80080b48fb000aff860b9607a60fb687b635c
:101ed800eff311824ff0200383f31188bff36f8f64
:101ee800bff34f8ffa61bb61fb693b637a6bbb68d9
:101ef800134450331b7887f82f307a6bbb68134430
:101f0800503302221a707a6bbb6812339b00134459
:101f18005b685a1c796bbb6812339b000b445a6090
:101f280097f82f30012b40f08f804d4b1b68002b0a
:101f38005ed17b6b5b69bb627b6b9b687a6bd2689b
:101f48009a607b6bdb687a6b92685a60bb6a5a68e6
:101f58007b6b04339a4203d17b6bda68bb6a5a60a5
:101f68007b6b00225a61bb6a1b685a1ebb6a1a60e7
:101f78007b6bdb6a01229a403a4b1b681343394a50
:101f880013607b6bda6a384913469b0013449b0045
:101f98000b4404331b687b627b6b7a6a9a607b6aaa
:101fa8009a687b6bda607b6a9b687a6b04325a604a
:101fb8007b6b1a1d7b6a9a607b6bda6a13469b00ff
:101fc80013449b00284a1a447b6b5a617b6bda6a7c
:101fd800254913469b0013449b000b441b68591c5e
:101fe800214813469b0013449b00034419601be0df
:101ff8001e4b5b683b627b6b3a6ada613b6a9a68a4
:102008007b6b1a623b6a9b687a6b18325a607b6bef
:1020180003f118023b6a9a607b6b144a9a62134b6d
:102028001b680133114a13607b6bda6a104b1b681b
:10203800db6a9a4208d97b68002b02d07b680122b0
:102048001a600c4b01221a603b6b7b617b6983f33e
:10205800118800bf3c37bd465df8047b704700bf60
:1020680014a30020f4a2002018a20020aca2002093
:1020780014a2002000a3002080b584b000af7860cf
:1020880039607b68002b02d1104b1b6800e07b682d
:10209800bb6007f0a2f8ba683b68134450331b785a
:1020a800dbb2022b08d1ba683b68134450330022d4
:1020b8001a700123fb6001e00023fb6007f0a6f81b
:1020c800fb6818461037bd4680bd00bf14a200202b
:1020d80080b586b000aff860b9607a60fb68002b05
:1020e80002d1124b1b6800e0fb687b6107f075f8b2
:1020f8007a69bb6812339b0013445b683b617a6959
:10210800bb6812339b0013445a687b68db431a4050
:102118007969bb6812339b000b445a6007f076f864
:102128003b6918461837bd4680bd00bf14a2002081
:1021380080b586b000af78603960364b1b687b612c
:10214800354b1b680433184608f002f80346002b89
:102158000bd1314b1b68db6a012202fa03f3da4325
:102168002e4b1b6813402d4a13607b68b3f1ff3f69
:1021780024d13b68002b21d0294b5b683b61264b5f
:102188001b683a699a60244b1b683a699268da605e
:10219800214b1a683b699b6804325a601e4b1b68c6
:1021a8001a1d3b699a601c4b1b681d4a5a611c4bdf
:1021b8001b6801331a4a136000bf26e07a697b68fe
:1021c8001344fb60144b1b68fa685a60fa687b6911
:1021d8009a4209d2134b1a680f4b1b6804331946ed
:1021e800104607f07cff10e00f4b1a680a4b1b687b
:1021f80004331946104607f072ff0c4b1b68fa6847
:102208009a4202d2094afb68136000bf1837bd46dc
:1022180080bd00bff0a2002014a20020f4a200207c
:10222800d8a20020a8a20020a4a200200ca300206d
:020000040000fa
:020000040100f9
:1022380080b584b000af78600b46fb70fb78fb601c
:102248007b681b0903f58803223318027b6803f0b7
:102258000f03012202fa03f17b6803f00f03fa6807
:1022680002fa03f31a4605f0afff00bf1037bd4668
:1022780080bd80b500af0a4b1b88ff2b09d00949e8
:10228800142005f0f1f8064b1b8801211846fff7ca
:10229800cfff034b5b881846fef7e0f800bf80bd10
:1022a80078a40020ec6c000180b500af0a4b1b88b5
:1022b800ff2b09d00949142005f0d6f8064b1b88d6
:1022c80000211846fff7b4ff034b5b881846fef75a
:1022d800c5f800bf80bd00bf78a40020f86c0001dd
:1022e80080b584b000af7860786800f02df80023de
:1022f800fb6008e0114afb684ff6ff7122f81310e3
:10230800fb680133fb60fb681f2bf3dd0023bb6018
:1023180008e00b4abb684ff6ff7122f81310bb6840
:102328000133bb60bb681f2bf3dd0649142005f0a1
:10233800eff800bf1037bd4680bd00bff8a30020ee
:1023480038a40020046d000180b582b000af786029
:102358006b49142005f088f87b681b88dbb29ab2b9
:10236800684b1a807b681b8903f07f039ab2654b20
:102378001a817b68da88634bda807b689a88614bbc
:102388009a807b689b8903f007039ab25d4b9a8118
:102398007b685b8903f007039ab25a4b5a817b68c2
:1023a8005a88584b5a807b68db8903f001039ab23c
:1023b800544bda817b681b8a534aa2fb03125209e9
:1023c800642101fb02f29b1a9ab24e4b1a827b6877
:1023d8005b8a03f001039ab24a4b5a827b689b8a54
:1023e80003f003039ab2474b9a827b68db8a03f0b7
:1023f80001039ab2434bda827b681b8b03f0070315
:102408009ab2404b1a837b685b8b03f001039ab244
:102418003c4b5a837b689b8b03f001039ab2394b80
:102428009a837b68db8b03f001039ab2354bda831e
:102438007b681b8c03f001039ab2324b1a847b68c9
:102448005b8c03f001039ab22e4b5a847b689b8cf9
:1024580003f001039ab22b4b9a847b68db8c03f060
:102468001f039ab2274bda847b681b8d03f07f0326
:102478009ab2244b1a857b685b8d244aa2fb03120f
:10248800991a49080a44520a40f28f2101fb02f2c4
:102498009b1a9ab21b4b5a857b689b8d1b4aa2fbe1
:1024a8000312991a49080a44520a40f28f2101fb83
:1024b80002f29b1a9ab2134b9a857b68d98d144bfa
:1024c800a3fb0123da0813465b019b1a9b00134404
:1024d800cb1a9ab20b4bda857b68198e0c4ba3fb8f
:1024e8000123da0813465b019b1a9b001344cb1a9d
:1024f8009ab2044b1a8600bf0837bd4680bd00bf9c
:10250800206d000178a400201f85eb51eb4738901f
:10251800d34d621080b487b000af78603960002373
:10252800fb7500233b6121e03b697a6813441a7804
:10253800fb7d5340fb750823fb6011e097f91730ca
:10254800002b07dafb7d5b005bb283f007035bb20d
:10255800fb7502e0fb7d5b00fb75fb68013bfb60e4
:10256800fb68002bead13b6901333b613b693a6860
:102578009a42d9d8fb7d18461c37bd465df8047bc6
:10258800704780b584b000af0346fb711e4b1b89b2
:10259800dbb25b00dbb23b72fb797b720023bb7260
:1025a80007f108030233fb6007f10803022118460c
:1025b800fff7b0ff03461a46fb681a70124b1889da
:1025c80007f1080301330222194606f02dfb0346e2
:1025d800fb720d4bdb881846fdf740fffb7a002b9a
:1025e80008d0094b1b891a467b7a0849142004f045
:1025f8003bff03e00649142005f032f8fb7a184641
:102608001037bd4680bd00bf78a40020386d00019a
:10261800586d000190b58db004af03460a46fb71b2
:102628001346bb802d4b1b89dbb25b00dbb23b73cf
:10263800fb797b730023bb730023fb7300233b747c
:1026480007f10c030233fb6107f10c030333bb6191
:1026580007f10c0304337b61bb88dab2fb691a709b
:10266800bb881b0a9bb2dab2bb691a7007f10c036c
:1026780004211846fff74eff03461a467b691a7075
:10268800164b188907f10c0301330422194606f08a
:10269800cbfa0346fb74114bdb881846fdf7defec8
:1026a800fb7c002b11d00d4b1b8918467b7b1c46ed
:1026b800bb7bfa7b397c0291019200932346024648
:1026c8000749142004f0d0fe03e00649142004f062
:1026d800c7fffb7c18462437bd4690bd78a4002070
:1026e800746d0001a46d000190b58db004af034670
:1026f8003960fb713a4b1b89dbb25b00dbb23b7282
:10270800fb797b72364b1b89dbb25b00dbb2013392
:10271800dbb2bb720023fb7200233b7300237b7385
:102728002f4b188907f10803da1c07f10803591c15
:10273800032300931346012206f00cfa0346fb77a5
:10274800274bdb881846fdf789fefb7f002b3ed020
:1027580007f108030333bb6107f1080304337b6106
:1027680007f1080305333b617b691b781b021ab22a
:10277800bb691b781bb213431bb29ab23b681a8021
:10278800174b1b8918467b7a1c46fb7a3a7b797b68
:10279800029101920093234602461249142004f044
:1027a80063fe07f1080305211846fff7b3fe034649
:1027b8001a463b691b789a4205d10b49142004f04c
:1027c80053fe012308e00949142004f049ff084991
:1027d800142004f045ff002318462437bd4690bd59
:1027e80078a40020bc6d0001ec6d00010c6e0001a6
:1027f800286e000180b584b000af03460a46fb711d
:102808001346bb8097f9073003f01f035bb243f010
:1028180020035bb2fb73ba88fb7b11461846fff7af
:10282800f9fe034618461037bd4680bd80b584b012
:1028380000af03463960fb7197f9073003f01f03b7
:102848005bb243f020035bb2fb73fb7b396818462d
:10285800fff74aff034618461037bd4680bd80b5ce
:1028680084b000af03463960fb71fb7903f01f03a6
:10287800fb73fb7b39681846fff736ff034618469b
:102888001037bd4680bd80b582b000af00237b60a5
:1028980019e07b68d8b27b685b000f4a134419467d
:1028a800fff7ddff034683f00103dbb2002b07d0ff
:1028b800094a7b684ff6ff7122f81310002306e0df
:1028c8007b6801337b607b681f2be2dd01231846a0
:1028d8000837bd4680bd00bf38a4002080b582b04f
:1028e80000af00237b6019e07b68d8b27b685b008f
:1028f8000e4a13441946fff799ff034683f0010374
:10290800dbb2002b07d0094a7b684ff6ff7122f82b
:102918001310002306e07b6801337b607b681f2b64
:10292800e2dd012318460837bd4680bdf8a3002024
:1029380080b582b000af03463a60fb800b467b71de
:102948007b7900211846fff755ff0346002b1dd061
:10295800fa887b7911461846fff74cff0346002b8f
:1029680014d07b7939681846fff760ff0346002bbf
:102978000cd03b681b88fa889a4201d101230ae0ef
:10298800fa887b790649142004f06afe3b684ff602
:10299800ff721a80002318460837bd4680bd00bf65
:1029a800406e000180b584b000af03463960fb80fb
:1029b8001346bb800c4b5a89fb881340fb81ba88ad
:1029c8003b6802fa03f31ab2b7f90e3013431bb28d
:1029d800fb81fb89054a05211846fff7a9ff034635
:1029e80018461037bd4680bdf8a3002002a4002079
:1029f80080b584b000af0346fb80114b5b891b1286
:102a08009bb203f00703fb81fa89fb889a4212d034
:102a1800fb881a4608214ff6ff00fff7c3ff03465d
:102a2800002b06d0fb881a460649142004f070fdd6
:102a380001e0002300e0012318461037bd4680bda1
:102a4800f8a30020706e000180b584b000af034683
:102a5800fb80104b5b8903f00703fb81fa89fb8835
:102a68009a4212d0fb881a4600214ff6f870fff7f9
:102a780099ff0346002b06d0fb881a460649142006
:102a880004f046fd01e0002300e00123184610375a
:102a9800bd4680bdf8a30020886e000180b584b0d3
:102aa80000af0346fb80114b5b899b119bb203f07f
:102ab8000103fb81fa89fb889a4212d0fb881a46e7
:102ac80006214ff6bf70fff76dff0346002b06d0b7
:102ad800fb881a460649142004f01afd01e0002379
:102ae80000e0012318461037bd4680bdf8a300203a
:102af800a06e000180b584b000af0346fb80114b87
:102b08005b89db109bb203f00103fb81fa89fb8828
:102b18009a4212d0fb881a4603214ff6f770fff746
:102b280041ff0346002b06d0fb881a4606491420ad
:102b380004f0eefc01e0002300e001231846103702
:102b4800bd4680bdf8a30020bc6e000180b584b0ee
:102b580000af0346fb80114b5b891b119bb203f04e
:102b68000303fb81fa89fb889a4212d0fb881a4634
:102b780004214ff6cf70fff715ff0346002b06d050
:102b8800fb881a460649142004f0c2fc01e0002321
:102b980000e0012318461037bd4680bdf8a3002089
:102ba800e46e000180b584b000af0346fb80114b92
:102bb8005b89db119bb203f00103fb81fa89fb8877
:102bc8009a4212d0fb881a4607214ff67f70fff70a
:102bd800e9fe0346002b06d0fb881a460649142056
:102be80004f096fc01e0002300e0012318461037aa
:102bf800bd4680bdf8a30020006f000180b584b0f9
:102c080000af0346fb80114b5b89db129bb203f0dc
:102c18000703fb81fa89fb889a4212d0fb881a467f
:102c28000b214cf2ff70fff7bdfe0346002b06d0c8
:102c3800fb881a460649142004f06afc01e00023c8
:102c480000e0012318461037bd4680bdf8a30020d8
:102c58001c6f000180b584b000af0346fb80114ba8
:102c68005b899b139bb203f00103fb81fa89fb8804
:102c78009a4212d0fb881a460e214bf6ff70fff7d6
:102c880091fe0346002b06d0fb881a4606491420fd
:102c980004f03efc01e0002300e001231846103751
:102ca800bd4680bdf8a30020346f000180b584b014
:102cb80000af0346fb80104b5b89db0bfb81fa8975
:102cc800fb889a4212d0fb881a460f2147f6ff70fc
:102cd800fff768fe0346002b06d0fb881a46074913
:102ce800142004f015fc01e0002300e0012318463d
:102cf8001037bd4680bd00bff8a30020506f00010b
:102d080090b585b000af0346fb80fb88184608f0f5
:102d18000bfe2da3d3e9002307f042fc03460c4623
:102d2800184621464ff00002214b06f02bfc0346c3
:102d38000c461846214608f0d3fd0346fb811d4b7f
:102d48001b89fa899a4201d101232de06020fff7ff
:102d580018fc0346002b20d0fb89174a042118468b
:102d6800fff7e6fd0346002b17d0124bdb8b134a07
:102d78000f211846fff7dcfd0346002b0dd061201c
:102d8800fff7fffb0346002b07d0fb881a460c49c8
:102d9800142004f0bdfb012306e0fb881a4609490c
:102da800142004f05dfc002318461437bd4690bd7e
:102db8000000e03ff8a3002000a4002016a4002093
:102dc800746f0001946f0001cdcccccccc7a8440d8
:102dd80080b582b000af0346fb80134b9b8bfa880b
:102de8009a4201d101231ae0fb88104a0e211846a5
:102df800fff79efd034683f00103dbb2002b07d0eb
:102e0800fb881a460a49142004f02afc002306e02d
:102e1800fb881a460749142004f07afb0123184658
:102e28000837bd4680bd00bff8a3002014a40020c9
:102e3800b86f0001e06f000180b582b000af0346b3
:102e4800fb80fb881a46920013441a4691001a46e2
:102e58000b4613449b00fb80124b1b88fa889a424e
:102e680001d101231ae0fb880e4a00211846fff71a
:102e78005ffd034683f00103dbb2002b07d0fb881c
:102e88001a460949142004f0ebfb002306e0fb88ee
:102e98001a460649142004f03bfb0123184608375c
:102ea800bd4680bdf8a3002000700001207000011d
:102eb80080b582b000af0346fb80fb881a469200bb
:102ec80013441a4691001a460b4613449b00fb8094
:102ed800124b5b88fa889a4201d101231ae0fb88d9
:102ee8000f4a01211846fff723fd034683f001032b
:102ef800dbb2002b07d0fb881a460a49142004f0dd
:102f0800affb002306e0fb881a460749142004f0ab
:102f1800fffa012318460837bd4680bdf8a30020f4
:102f2800faa300203c7000015c70000190b585b0e8
:102f380000af0346fb80fb88184608f0f5fc2ba37e
:102f4800d3e9002306f01efb03460c46184621462b
:102f58004ff00002204b07f023fb03460c461846af
:102f6800214608f0bdfc0346fb80fb88dbb2fb80f2
:102f78001a4bdb88dbb2fb81fb881b021ab2b7f95c
:102f88000e3013431bb2fb81144bdb88fa899a423b
:102f980001d101231ae0fb89114a03211846fff7e2
:102fa800c7fc034683f00103dbb2002b07d0fb8884
:102fb8001a460c49142004f053fb002306e0fb8852
:102fc8001a460949142004f0a3fa012318461437b5
:102fd800bd4690bdaff300800000f93ff8a3002084
:102fe800fea3002078700001987000019a999999c1
:102ff8009919434090b585b000af0346fb80fb8824
:10300800184608f091fc2ba3d3e9002306f0bafa7e
:1030180003460c46184621464ff00002204b07f0a5
:10302800bffa03460c461846214608f059fc0346e9
:10303800fb80fb88dbb2fb801a4bdb8823f0ff03a5
:10304800fb81b7f90630dbb21ab2b7f90e30134379
:103058001bb2fb81134bdb88fa899a4201d1012309
:103068001ae0fb89104a03211846fff761fc034662
:1030780083f00103dbb2002b07d0fb881a460b490b
:10308800142004f0edfa002306e0fb881a460849ec
:10309800142004f03dfa012318461437bd4690bdac
:1030a8000000f93ff8a30020fea30020b47000013f
:1030b800d47000019a9999999919434080b584b0c0
:1030c80000af03463960fb801346bb800e4b9a88dd
:1030d800fb881340fb81ba88fb88db439bb21a400c
:1030e8003b6802fa03f31ab2b7f90e3013431bb266
:1030f800fb81fb89054a02211846fff719fc0346a4
:1031080018461037bd4680bdf8a30020fca3002058
:1031180080b584b000af0346fb80104b9b8803f05a
:103128000103fb81fa89fb889a4212d0fb881a4670
:1031380000214ff6fe70fff7c1ff0346002b06d0b3
:10314800fb881a460649142004f0e2f901e000233e
:1031580000e0012318461037bd4680bdf8a30020c3
:10316800f070000180b584b000af0346fb80114bbe
:103178009b885b109bb203f00103fb81fa89fb88f3
:103188009a4212d0fb881a4601214ff6fd70fff7cc
:1031980095ff0346002b06d0fb881a4606491420e3
:1031a80004f0b6f901e0002300e0012318461037c7
:1031b800bd4680bdf8a300201071000180b584b021
:1031c80000af0346fb80114b9b889b109bb203f01a
:1031d8000103fb81fa89fb889a4212d0fb881a46c0
:1031e80002214ff6fb70fff769ff0346002b06d05c
:1031f800fb881a460649142004f08af901e00023e6
:1032080000e0012318461037bd4680bdf8a3002012
:103218002c71000180b584b000af0346fb80114bd0
:103228009b88db109bb203f00103fb81fa89fb88c2
:103238009a4212d0fb881a4603214ff6f770fff71f
:103248003dff0346002b06d0fb881a46064914208a
:1032580004f05ef901e0002300e00123184610376e
:10326800bd4680bdf8a300204471000180b584b03c
:1032780000af0346fb80114b9b881b119bb203f0e8
:103288001f03fb81fa89fb889a4212d0fb881a46f1
:1032980004214ff60f60fff711ff0346002b06d0fd
:1032a800fb881a460649142004f032f901e000238d
:1032b80000e0012318461037bd4680bdf8a3002062
:1032c8006071000180b584b000af0346fb80104bed
:1032d8009b885b0afb81fa89fb889a4212d0fb889b
:1032e8001a4609214ff48070fff7e8fe0346002bc9
:1032f80006d0fb881a460749142004f009f901e0b2
:10330800002300e0012318461037bd4680bd00bfea
:10331800f8a300208871000180b584b000af786000
:103328000123fb737868fef7dbfffef7a2fffff7c8
:10333800d5fa034683f00103dbb2002b01d0012349
:10334800e2e0fff7a0fa034683f00103dbb2002bab
:1033580001d00223d8e0fb7b002b06d06c4b5b89a5
:103368001846fff745fb0346fb73fb7b002b06d093
:10337800674b9b891846fff767fb0346fb73fb7b8c
:10338800002b06d0624bdb891846fff787fb034604
:10339800fb73fb7b002b06d05d4b5b8a1846fff75f
:1033a800a9fb0346fb73fb7b002b06d0584b9b8a7b
:1033b8001846fff7cbfb0346fb73fb7b002b06d0bd
:1033c800534bdb8a1846fff7edfb0346fb73fb7b89
:1033d800002b06d04e4b5b8b1846fff73bfc034691
:1033e800fb73fb7b002b06d0494b9b8b1846fff7e2
:1033f8005dfc0346fb73fb7b002b06d0444b1b8b09
:103408001846fff7fbfb0346fb73fb7b002b06d03c
:103418003f4bdb8b1846fff77bfe0346fb73fb7bba
:10342800002b06d03a4b1b8c1846fff79bfe034631
:10343800fb73fb7b002b06d0354b5b8c1846fff7e4
:10344800bdfe0346fb73fb7b002b06d0304b9b8ce9
:103458001846fff7dffe0346fb73fb7b002b06d005
:103468002b4bdb8c1846fff701ff0346fb73fb7bf6
:10347800002b06d0264b1b8d1846fff723ff03466b
:10348800fb73fb7b002b06d0214b5b8d1846fff7a7
:10349800d3fc0346fb73fb7b002b06d01c4b9b8d98
:1034a8001846fff705fd0346fb73fb7b002b06d090
:1034b800174bdb8d1846fff739fd0346fb73fb7b83
:1034c800002b06d0124b1b8e1846fff793fd0346c0
:1034d800fb73fb7b002b06d00d4b1b8a1846fff7ae
:1034e8000ffc0346fb73fb7b83f00103dbb2002b6d
:1034f80001d0042308e0fef7d7fefef7bafe05491f
:10350800142004f005f8002318461037bd4680bd86
:1035180078a40020ac71000180b500affef7c4feae
:103528000249142003f0f4ff00bf80bdd0710001f0
:1035380090b583b000af78602b490620fff78ff96c
:10354800034683f00103dbb2002b05d0274b4ff66f
:10355800ff729a8102233ee0244b9b891bb29bb2e7
:10356800db0bdab2214b9b8942f2ac718b4294bfe0
:1035780001230023dbb21343dbb2002b01d0082365
:1035880029e01a4b9b8907ee903af8ee677a9fed8f
:10359800187a67ee877a17ee900a08f0a9f810a350
:1035a800d3e9002308f0c4fa03460c46184621461e
:1035b80007f044ff02467b681a607b681b68184660
:1035c80008f096f803460c461a4623460949142083
:1035d80003f09eff002318460c37bd4690bd00bf80
:1035e800666666666612714044a4002038a400200e
:1035f8000ad7a33cdc71000190b583b000af7860b6
:103608002b490720fff72bf9034683f00103dbb2b0
:10361800002b05d0274b4ff6ff72da8102233ee0dc
:10362800244bdb891bb29bb2db0bdab2214bdb8963
:1036380042f2ac718b4294bf01230023dbb21343e7
:10364800dbb2002b01d0082329e01a4bdb8907eef7
:10365800903af8ee677a9fed187a67ee877a17ee58
:10366800900a08f045f810a3d3e9002308f060fa9f
:1036780003460c461846214607f0e0fe02467b68e2
:103688001a607b681b68184608f032f803460c4637
:103698001a4623460949142003f03aff0023184626
:1036a8000c37bd4690bd00bf6666666666127140ff
:1036b80046a4002038a400200ad7a33cf4710001d6
:1036c80090b583b000af7860314b5b8903f040035d
:1036d800002b05d17b684ff000021a6000234ee0f2
:1036e8002c490820fff7bbf8034683f00103dbb23f
:1036f800002b05d0284b4ff6ff721a8202233ee0ba
:10370800254b1b8a1bb29bb2db0bdab2224b1b8afe
:1037180042f2ac718b4294bf01230023dbb2134306
:10372800dbb2002b01d0082329e01b4b1b8a07eed4
:10373800903af8ee677a9fed197a67ee877a17ee76
:10374800900a07f0d5ff10a3d3e9002308f0f0f999
:1037580003460c461846214607f070fe02467b6871
:103768001a607b681b68184607f0c2ff03460c46c0
:103778001a4623460a49142003f0cafe00231846b5
:103788000c37bd4690bd00bf66666666661271401e
:10379800f8a3002048a4002038a400200ad7a33c9e
:1037a8000c72000180b582b000af78600f49042028
:1037b800fff755f8034683f00103dbb2002b05d071
:1037c8000b4b4ff6ff721a8102230be0084b1a8944
:1037d8007b681a807b681b881a460649142003f008
:1037e80097fe002318460837bd4680bd40a4002038
:1037f80038a400202472000180b582b000af786040
:10380800154b5b8903f04003002b04d17b68002231
:103818001a8000231be011490520fff720f8034612
:1038280083f00103dbb2002b05d00d4b4ff6ff727e
:103838005a8102230be00a4b5a897b681a807b68fd
:103848001b881a460749142003f062fe0023184615
:103858000837bd4680bd00bff8a3002042a4002061
:1038680038a4002040720001f0b585b000af4ff0d9
:1038780000014ff00002c7e9021200227a6024e03a
:1038880017497a681c3231f8122091b24ff00002c1
:103898007868c000a0f1200ec0f1200c02fa00f4f4
:1038a80001fa0efe44ea0e0421fa0cfc44ea0c0468
:1038b80001fa00f3d7e9021241ea030542ea0406d5
:1038c800c7e902567a6801327a607a68032ad7dd36
:1038d800d7e90234184621461437bd46f0bd00bf6b
:0438e800f8a3002021
:020000040000fa
:020000040100f9
:1038ec0080b483b000af0346fb80fb880133fb80c0
:1038fc00fb884ff6ff72934201d10123fb80fb88ba
:10390c0018460c37bd465df8047b704780b483b015
:10391c0000af03460a46fb801346bb80fb881a04a3
:10392c00bb88134318460c37bd465df8047b7047c3
:10393c0080b500af0f4b93f83030002b16d14ff6fb
:10394c00ff710d4804f0f1fe0346012b0cd1094b1d
:10395c0093f90830184606f09dfc03461a46054bb1
:10396c0083f83120012302e0002300e001231846f4
:10397c0080bd00bf18a3002050a3002080b500af6d
:10398c00094b93f90820084b93f83130194610462f
:10399c0006f0a2fc044b93f83030002b02d1034804
:1039ac0004f0e6fe00bf80bd18a3002050a3002049
:1039bc0080b485b000af78600023fb607b68b3f106
:1039cc00ff3f17d07b68002b14d07b689bb2042b75
:1039dc0010d87b689bb25b010a4a1344fb60fb68fe
:1039ec00db697a689a4205d1fb681b78002b01d001
:1039fc00fb6800e0002318461437bd465df8047bd5
:103a0c00704700bf58a300202de9f04f8db000afd8
:103a1c004ff000034ff00004c7e90a34464bfb613a
:103a2c00fb695b6bbb61fb695a69fb691a61bb691a
:103a3c00002b2ad0bb699b68002b11dafb695b69f0
:103a4c004ff000046ff000414ff000025818b860be
:103a5c0044eb0203fb60d7e90234c7e90a3422e0e5
:103a6c00bb699b687b61fb695b6919464ff000027f
:103a7c007b694ff00004c818386042eb04037b608c
:103a8c00d7e90034c7e90a340de0fb695b694ff0f4
:103a9c0000046ff000414ff0000213eb010a44ebfd
:103aac00020bc7e90aabfb695b689b699847034645
:103abc004ff00004c7e90834fb691b694ff00004a0
:103acc00d7e90812a24208bf994207d2d7e90834b5
:103adc0013f1ff3844f10009c7e90889fb691b6a37
:103aec0019464ff00002d7e90834cd1842eb040612
:103afc00d7e90a34b44208bfab4206d23a6afb6932
:103b0c001b6a1a44fb69da6102e0ba6afb69da6182
:103b1c00fb69db69002b02d1fb690122da61fb69cd
:103b2c005b685b69fa69d2691046984700bf343705
:103b3c00bd46bde8f08f00bf18a3002080b489b04b
:103b4c0000af7860224b3b613b695b6bfb610023f0
:103b5c00bb610023fb753b695b6bfb6104e0fb699c
:103b6c00bb61fb699b69fb61fb69002b03d0fa69a4
:103b7c007b689a42f3d1fb69002b01d1fb7d21e0dc
:103b8c007b689b69002b0ad07b689b68fb607b6819
:103b9c009b6999687b689b69fa680a449a60bb695f
:103bac00002b07d13b695b6b9a693b695a63012314
:103bbc00fb7503e07b689a69bb699a617b6800229c
:103bcc009a61fb7d18462437bd465df8047b70472f
:103bdc0018a300202de9f0038ab000af78604ff0f5
:103bec0000034ff00004c7e90834394b3b613b69d3
:103bfc005b6bfb610023bb610023fb757b68002bb7
:103c0c0001d1fb7d5de07b689b68fb60fb69002b51
:103c1c002ad17b68fa689a603b697a685a630123f7
:103c2c00fb754de0fb699b6819464ff00002d7e924
:103c3c000834cd1842eb0406fb684ff00004b44284
:103c4c0008bfab4214d3fb699b684ff00004d7e963
:103c5c00081211eb030842eb0409c7e90889fb6958
:103c6c00bb61fb699b69fb61fb69002bdad100e04e
:103c7c0000bfbb69002b08d13b697a685a637b682b
:103c8c00fa699a610123fb7506e0bb699a697b6846
:103c9c009a61bb697a689a613b6afa68d21a7b6846
:103cac009a607b689b69002b0ad07b689b68fb60e1
:103cbc007b689b6999687b689b69fa688a1a9a6029
:103ccc00fb7d18462837bd46bde8f003704700bfa2
:103cdc0018a3002080b487b000af78600d4b3b6117
:103cec0000237b613b691b69fb607a68fb689a4225
:103cfc0004d97a68fb68d31a7b6103e07a68fb68a5
:103d0c00d31a7b617b6918461c37bd465df8047b72
:103d1c00704700bf18a3002080b588b000af786052
:103d2c00264b3b613b695b6bfb610023bb61002352
:103d3c007b617b685b7883f00103dbb2002b0ad0dc
:103d4c0000237b6134e0fb699b68ba691344bb6157
:103d5c00fb699b69fb61fb69002b03d0fa697b68eb
:103d6c009a42f0d1fb699b68ba691344bb613b6909
:103d7c005b689b699847f860f868fff7abff786160
:103d8c00ba697b699a4204d3ba697b69d31abb615d
:103d9c0001e00023bb61fb695b68ba699a4205d8f4
:103dac00fb695a68bb69d31a7b6101e000237b6114
:103dbc007b6918462037bd4680bd00bf18a3002084
:103dcc0080b485b000af7860184bbb600023fb60fb
:103ddc00bb685b6bfb6018e0fb689b687a689a4277
:103dec0008d8fb689a687b68d21afb689a60002333
:103dfc007b6007e0fb689b687a68d31a7b60fb6882
:103e0c0000229a60fb689b69fb60fb68002b02d068
:103e1c007b68002be0d1bb685a69bb681a6100bf94
:103e2c001437bd465df8047b704700bf18a3002013
:103e3c00f0b587b000af78601f4b7b6100233b610e
:103e4c000023fb737b695b689b69984702467b691f
:103e5c005a617b695b691846fff73cff386138692a
:103e6c00fff7aeff06f002fa0346bb737b69d3e99a
:103e7c000a123b694ff00004cd1842eb04067b6933
:103e8c00c3e90a56bb7b184606f0f7f97868fff7ca
:103e9c00a1fe0346fb73fb7b002b09d006f0e6f971
:103eac000346bb73fff7b0fdbb7b184606f0e5f984
:103ebc0000bf1c37bd46f0bd18a3002080b582b0f2
:103ecc0000af1f4b3b603b685b6b7b602ee07b68fd
:103edc009b68002b2ed17b6801221a757b6801220e
:103eec005a757b689b78002b09d17b68db68002bab
:103efc0005d07b68db69184600f0e2fb09e07868c6
:103f0c00fff71cfe7b689b78002b02d17b6800229c
:103f1c005a707b68db68002b05d07b68db687a689d
:103f2c001269104698473b685b6b7b607b68002b83
:103f3c00cdd100e000bf00bf0837bd4680bd00bf3b
:103f4c0018a3002080b584b000af78607868fff7c4
:103f5c0037fffff7b3ff0023fb732de0fb7b1a4aff
:103f6c005b01134415331b78dbb2002b21d0fb7b98
:103f7c00154a5b011344153300221a70fb7b124a5d
:103f8c005b01134402331b78012b12d1fa7bfb7bb0
:103f9c000d4952010a44043212680b495b010b446f
:103fac0008331a60fb7b5b01074a13441846fff782
:103fbc0011fefb7b0133fb73fb7b042bced900bfc3
:103fcc001037bd4680bd00bf58a30020f0b587b0a8
:103fdc0000af78603960224b7b617b695b6b3b6126
:103fec000023fb607b695b689b69984702467b6991
:103ffc005a617b695b691846fff76cfef8607b6958
:10400c00d3e90a12fb684ff00004cd1842eb04060a
:10401c007b69c3e90a563b69002b12d07b6993f884
:10402c0030300133dab27b6983f83020f868fff75f
:10403c0089ff7b6993f83030013bdab27b6983f8f6
:10404c00302006f013f90346fb72fff7ddfcfb7a18
:10405c00184606f012f900bf1c37bd46f0bd00bf74
:10406c0018a3002080b588b000aff860b9607a6002
:10407c003b604ff0ff33fb6100237b61fff758fc83
:10408c00034683f00103dbb2002b01d0fb6958e03f
:10409c002e4b93f90030022b50d1bb68002b4dd026
:1040ac00ba68fb689a4249d3294bbb6142e0bb69b1
:1040bc001b7883f00103dbb2002b35d0bb690122e6
:1040cc001a70bb6900225a70bb6900221a75bb6951
:1040dc0000225a75bb6997f828209a70bb69ba6898
:1040ec005a60bb697a68da60bb693a681a61ba6867
:1040fc00fb68d21abb699a60164b1b887a6992b21c
:10410c0011461846fff702fc0246bb69da61114bf7
:10411c001b881846fff7e4fb03461a460d4b1a8022
:10412c00bb69db69fb6109e07b6901337b61bb69be
:10413c002033bb61bb69084a9342b8d3fff71efc1e
:10414c00fb6918462037bd4680bd00bf18a3002070
:10415c0058a30020aaa40020f8a300202de9f04fba
:10416c0089b000af7860434bfb617b68bb61bb6976
:10417c001a68fb695a60fb695b68db689847024602
:10418c00fb69da60fb69db681d464ff000062b46c5
:10419c0034464ff000014ff00002e20042ea537245
:1041ac00d9000b4614465b1b64eb06044ff0000170
:1041bc004ff00002620142ead36259015b1842ebf4
:1041cc00040413eb050a44eb060bc7e904abd7e96f
:1041dc000401294a4ff0000307f0ecfa03460c46a1
:1041ec0013f1020844f10009c7e90289ba68fb69b6
:1041fc001a62bb6993f90420fb691a72fb690022ed
:10420c001a61fb694ff0ff329a61fb696ff0004253
:10421c00da61fa694ff000034ff00004c2e90a3486
:10422c00fb6900225a63fb69002283f83020fb698a
:10423c005b681b68002111489847fb695b681b6928
:10424c00002b06d0fb695b681b69fa699269104602
:10425c009847fb695b685b69fa69d26910469847b5
:10426c00fb695b685b68984700bf2437bd46bde8b7
:10427c00f08f00bf18a30020006cdc02d93f0001b6
:10428c0080b582b000af03463960fb803b68002be1
:10429c0002d0fb88002b02d04ff0ff3314e00c4807
:1042ac0004f017fa0346012b02d04ff0ff330be05a
:1042bc003868fff753ffa0220021064807f0d6fb11
:1042cc00054b02221a70044b18460837bd4680bdb8
:1042dc0050a3002058a3002018a3002080b584b060
:1042ec0000af78600e4bfb607b68fa689a4212d183
:1042fc00fb685b689b689847a0220021094807f07f
:10430c00b5fb40220021064807f0b0fbfb680022f9
:10431c001a7000bf00e000bf1037bd4680bd00bf63
:10432c0018a3002058a3002080b485b000af78609b
:10433c00094bbb600023fb737b68ba689a4202d1bd
:10434c00bb681b78fb7397f90f3018461437bd46c2
:10435c005df8047b704700bf18a3002080b400af49
:10436c00034bdb681846bd465df8047b704700bf05
:10437c0018a30020f0b587b000af154b7b614ff050
:10438c0000034ff00004c7e9023405f06fff034649
:10439c00fb717b695b689b69984703461846fff77e
:1043ac0099fc38607b69d3e90a123b684ff0000432
:1043bc00cd1842eb0406c7e90256fb79184605f006
:1043cc005cffd7e90234184621461c37bd46f0bdc8
:1043dc0018a3002090b583b000affff7cbff0346c6
:1043ec000c467b607b6818460c37bd4690bd90b57b
:1043fc0085b000af786005f039ff0346fb737b682e
:10440c004ff00004054ac2e90a34fb7b184605f05c
:10441c0034ff00bf1437bd4690bd00bf18a3002069
:10442c002de9f04383b000af78607b681d464ff0f8
:10443c0000062b4634464ff000014ff0000262019b
:10444c0042ead36259010b4614465b1b64eb06042b
:10445c004ff000014ff00002620242ead3525902bf
:10446c000b4614465b1946eb04044ff000014ff069
:10447c000002a20142ea93629901c91a62eb04029a
:10448c0011eb050842eb0609084bdb684ff0000402
:10449c001a4623464046494607f08cf903460c461b
:1044ac0018460c37bd46bde8f08300bf18a30020aa
:1044bc00f0b583b000af78607b6819464ff000020e
:1044cc000b4614464ff000054ff00006660146ea15
:1044dc00d3665d012b4634465b1a64eb02044ff045
:1044ec0000054ff00006a60046ea93769d002b4689
:1044fc0034465b1842eb04044ff000014ff000020d
:10450c00e20042ea5372d9000b4614461846214683
:10451c00064bdb684ff000041a46234607f04af9b5
:10452c0003460c4618460c37bd46f0bd18a30020b8
:10453c00b0b582b000af78607b6819464ff00002ce
:10454c000b4bdb684ff0000403fb02f501fb04f09e
:10455c000544a1fb03016b181946064a4ff00003f2
:10456c0007f028f903460c4618460837bd46b0bd7f
:10457c0018a3002040420f00b0b582b000af7860a5
:10458c007b6819464ff000020c4bdb684ff00004bf
:10459c0003fb02f501fb04f00544a1fb03016b18be
:1045ac0019464ff47a724ff0000307f003f90346f3
:1045bc000c4618460837bd46b0bd00bf18a30020f6
:1045cc0080b586b002aff860b9607a603b603b7e24
:1045dc00002b05d17b68002b02d14ff0ff3308e094
:1045ec003b7e00933b687a68b968f868fff73afd40
:1045fc00034618461037bd4680bd80b586b000af67
:10460c00f860b9607a603b6000233b610123fb7565
:10461c00fff78ef9034683f00103dbb2002b01d0c8
:10462c00fb7d47e097f82430002b06d13b68002b2c
:10463c0003d1fff7a3f9fb7d3ce0f868fff7b8f96d
:10464c0038613b69002b32d07b68002b2fd07a6805
:10465c00bb689a422bd33869fff770fa3b6900228a
:10466c001a753b6900225a753b6997f824209a7099
:10467c003b697a685a607a68bb68d21a3b699a605f
:10468c003b693a68da603b693a6a1a610b4b93f8fa
:10469c003030002b03d13869fff7cafb02e03869d0
:1046ac00fff798fa3b6901225a700023fb75fff75c
:1046bc0065f9fb7d18461837bd4680bd18a3002050
:1046cc0080b584b000af78600023bb600123fb731e
:1046dc00fff72ef9034683f00103dbb2002b01d068
:1046ec00fb7b1ee07868fff763f9b860bb68002bb2
:1046fc0014d0bb685b78002b05d0b868fff71efaa6
:10470c00bb6800225a70bb6800221a75bb68002275
:10471c005a75bb6800221a700023fb73fff72ef941
:10472c00fb7b18461037bd4680bd80b584b000af0a
:10473c0078600023bb600123fb73fff7f9f8034695
:10474c0083f00103dbb2002b01d0fb7b2fe07868f8
:10475c00fff72ef9b860bb68002b25d0bb685b78df
:10476c0083f00103dbb2002b1cd0bb689b68002bd1
:10477c0003d1bb685a68bb689a600f4b93f8303012
:10478c00002b03d1b868fff753fb02e0b868fff7c2
:10479c0021fabb6800221a75bb6800225a75bb68e7
:1047ac0001225a700023fb73fff7e8f8fb7b1846d5
:1047bc001037bd4680bd00bf18a3002080b584b063
:1047cc0000af78600023bb600123fb73fff7b0f8e8
:1047dc00034683f00103dbb2002b01d0fb7b1fe00f
:1047ec007868fff7e5f8b860bb68002b15d0bb689c
:1047fc005b78002b0fd0b868fff7a0f9bb680022dc
:10480c001a75bb6800225a75bb6800225a70bb68c7
:10481c005a68bb689a600023fb73fff7aff8fb7b09
:10482c0018461037bd4680bd80b586b000af7860a5
:10483c00396000233b610123fb75fff779f80346d0
:10484c0083f00103dbb2002b01d0fb7d15e03b684c
:10485c00002b0fd07868fff7abf838613b69002b61
:10486c0008d03869fff758faf8603b68fa681a60a4
:10487c000023fb75fff782f8fb7d18461837bd4601
:10488c0080bd80b584b000af78600023bb6000238e
:10489c00fb73fff74df8034683f00103dbb2002beb
:1048ac0001d0fb7b0fe07868fff782f8b860bb683b
:1048bc00002b05d0bb681b7dfb73bb6800221a75ef
:1048cc00fff75cf8fb7b18461037bd4680bd80b502
:1048dc0086b002af786039600123fb733b68002b14
:1048ec0002d07b68002b01d1fb7b1ae07868fff7c4
:1048fc001ffe014600230093002300220020fff737
:10490c00b1fb02463b681a603b681b68b3f1ff3f82
:10491c0006d03b681b681846fff707ff0023fb73a4
:10492c00fb7b18461037bd4680bd80b586b002af04
:10493c00786039600123fb733b68002b02d07b68e5
:10494c00002b01d1fb7b1ae07868fff715fe0146be
:10495c0000230093002300220020fff783fb024674
:10496c003b681a603b681b68b3f1ff3f06d03b689d
:10497c001b681846fff7d9fe0023fb73fb7b184618
:10498c001037bd4680bd80b584b000af7860002381
:10499c00fb737868fff775ff0346002b04d078682b
:1049ac00fff78efe0123fb73fb7b18461037bd46c9
:1049bc0080bd80b588b002aff860b9607a60fb70da
:1049cc004ff0ff337b61fb78002b04d1fb68002b8d
:1049dc0001d17b6916e07b68002b12d07868fff759
:1049ec00a7fd0146fb780093bb68fa680020fff72f
:1049fc0039fb78617b69b3f1ff3f02d07869fff72f
:104a0c0094fe7b6918461837bd4680bd80b588b0ca
:104a1c0002aff860b9607a60fb704ff0ff337b61d6
:104a2c00fb78002b04d1fb68002b01d17b6916e0cd
:104a3c007b68002b12d07868fff79efd0146fb784f
:104a4c000093bb68fa680020fff70cfb78617b6968
:104a5c00b3f1ff3f02d07869fff767fe7b69184618
:084a6c001837bd4680bd00bff4
:020000040000fa
:020000040100f9
:104a740080b584b000af786039600123fb607b6847
:104a8400bb60bb68002b5dd0bb68db6b002b59d0cf
:104a9400bb681a6cbb68db6b0021a3fb0223002bf1
:104aa40000d001210b46002b4cd104f098fbbb68cd
:104ab4001a68bb68db6bb968096c01fb03f31a4421
:104ac400bb689a60bb6800229a63bb681a68bb68bb
:104ad4005a60bb681a68bb68db6b013bb968096c38
:104ae40001fb03f31a44bb68da60bb68ff2283f856
:104af4004420bb68ff2283f845203b68002b14d177
:104b0400bb681b69002b1ad0bb6810331846fcf72e
:104b140069fa0346002b12d00e4b4ff080521a60f4
:104b2400bff34f8fbff36f8f09e0bb681033184694
:104b340005f086fabb682433184605f081fa04f0c0
:104b440067fb01e00023fb60fb6818461037bd4695
:104b540080bd00bf04ed00e080b58ab002aff8600c
:104b6400b9601346fb710023fb61fb68002b2dd059
:104b74000021ba68fb68a3fb0223002b00d00121ab
:104b84000b46002b22d1fb68ba6802fb03f313f136
:104b9400490f1bd8fb68ba6802fb03f3bb61bb690e
:104ba4004833184605f028fef861fb69002b0dd048
:104bb400fb697b617b6948337b61fa79fb6900930c
:104bc40013467a69b968f86800f005f8fb69184675
:104bd4002037bd4680bd80b584b000aff860b960b1
:104be4007a60fb70bb68002b03d1bb69ba691a6099
:104bf40002e0bb697a681a60bb69fa68da63bb6968
:104c0400ba681a640121b869fff732ff00bf103790
:104c1400bd4680bd80b582b000af78607b68002b54
:104c24000ed07b6800229a607b6800221a607b6841
:104c34000022da60002300220021786800f069f87d
:104c440000bf0837bd4680bd80b586b000af0346bf
:104c5400fb7101237b6100233b61fb791a463969af
:104c64007869fff779fff860f868fff7d3fffb680e
:104c740018461837bd4680bd80b584b000af786053
:104c84007b68bb6004f0abfabb681b68002b03d1e4
:104c9400bb689b68fb6001e00023fb6004f0b8fa8a
:104ca400fb6818461037bd4680bd80b485b000afa0
:104cb40078607b681b68002b03d17b689b68fb6072
:104cc40001e00023fb60fb6818461437bd465df81d
:104cd400047b704780b584b000af786039600023ee
:104ce400fb607b68002b0fd03a687b689a420bd834
:104cf400022200217868fff72ffff860fb68002b81
:104d040002d0fb683a689a63fb6818461037bd46c0
:104d140080bd80b58ab000aff860b9607a603b604e
:104d240000237b62fb683b6204f059fa3b6a9a6b8e
:104d34003b6adb6b9a4202d33b68022b29d13a6867
:104d4400b968386a00f04afcf8613b6a5b6a002b78
:104d540010d03b6a24331846fcf744f90346002b71
:104d640013d0404b4ff080521a60bff34f8fbff304
:104d74006f8f0ae0fb69002b07d03a4b4ff080524b
:104d84001a60bff34f8fbff36f8f04f041fa012312
:104d940063e07b68002b03d104f03afa00235ce063
:104da4007b6a002b06d107f114031846fcf79cfa22
:104db40001237b6204f02cfafbf7fcfd04f00ffaec
:104dc4003b6a93f844305bb2b3f1ff3f03d13b6ad3
:104dd400002283f844203b6a93f845305bb2b3f178
:104de400ff3f03d13b6a002283f8452004f010fa08
:104df4003a1d07f1140311461846fcf78bfa0346d3
:104e0400002b24d1386a00f0f7fc0346002b18d09d
:104e14003b6a10337a6811461846fcf795f8386aed
:104e240000f06cfcfbf7d4fd0346002b7ff47caf51
:104e34000c4b4ff080521a60bff34f8fbff36f8f4c
:104e440072e7386a00f05afcfbf7c2fd6ce7386a77
:104e540000f054fcfbf7bcfd002318462837bd4680
:104e640080bd00bf04ed00e080b58eb000aff860f7
:104e7400b9607a603b60fb683b63eff311824ff0eb
:104e8400200383f31188bff36f8fbff34f8ffa6151
:104e9400bb61fb69fb623b6b9a6b3b6bdb6b9a42be
:104ea40002d33b68022b37d13b6b93f8453087f82c
:104eb4002b303b6b9b6b7b623a68b968386b00f0b4
:104ec4008dfb97f92b30b3f1ff3f12d13b6b5b6a3b
:104ed400002b1ed03b6b24331846fcf783f80346a3
:104ee400002b16d07b68002b13d07b6801221a603c
:104ef4000fe0fbf77bfe386297f92b303a6a9a424f
:104f040007d997f82b300133dbb25ab23b6b83f8e5
:104f1400452001237b6301e000237b63fb6a7b6103
:104f24007b6983f311887b6b18463837bd4680bd97
:104f340080b58cb000af786039607b68bb62eff3fa
:104f440011824ff0200383f31188bff36f8fbff3f7
:104f54004f8f7a613b617b697b62bb6a9b6b3b626f
:104f6400bb6adb6b3a6a9a4231d2bb6a93f845302a
:104f7400fb773b6a5a1cbb6a9a6397f91f30b3f1fb
:104f8400ff3f12d1bb6a5b6a002b1dd0bb6a24337e
:104f94001846fcf727f80346002b15d03b68002b76
:104fa40012d03b6801221a600ee0fbf71ffeb861c5
:104fb40097f91f30ba699a4206d9fb7f0133dbb2f5
:104fc4005ab2bb6a83f845200123fb6201e0002347
:104fd400fb627b6afb60fb6883f31188fb6a1846fb
:104fe4003037bd4680bd80b58ab000aff860b96087
:104ff4007a6000237b62fb683b6204f0f0f83b6a52
:105004009b6bfb61fb69002b1fd0b968386a00f009
:105014004ffbfb695a1e3b6a9a633b6a1b69002b70
:105024000fd03b6a10331846fbf7dcff0346002b16
:1050340007d03d4b4ff080521a60bff34f8fbff340
:105044006f8f04f0e5f8012369e07b68002b03d13e
:1050540004f0def8002362e07b6a002b06d107f13e
:1050640014031846fcf740f901237b6204f0d0f8de
:10507400fbf7a0fc04f0b3f83b6a93f844305bb24e
:10508400b3f1ff3f03d13b6a002283f844203b6a1b
:1050940093f845305bb2b3f1ff3f03d13b6a002282
:1050a40083f8452004f0b4f83a1d07f114031146bf
:1050b4001846fcf72ff90346002b23d1386a00f079
:1050c4006ffb0346002b17d03b6a24337a681146e2
:1050d4001846fbf739ff386a00f010fbfbf778fc41
:1050e4000346002b89d1104b4ff080521a60bff356
:1050f4004f8fbff36f8f80e7386a00f0fffafbf73a
:1051040067fc7ae7386a00f0f9fafbf761fc386a61
:1051140000f046fb0346002b3ff46faf0023184614
:105124002837bd4680bd00bf04ed00e080b58ab0dd
:1051340000af7860396000237b627b68fb610023e9
:105144003b6204f04cf8fb699b6bbb61bb69002bb1
:1051540024d0bb695a1efb699a63fb691b68002b48
:1051640004d1fcf7bbfb0246fb699a60fb691b692f
:10517400002b0fd0fb6910331846fbf733ff0346af
:10518400002b07d04c4b4ff080521a60bff34f8f67
:10519400bff36f8f04f03cf8012389e03b68002bd8
:1051a40003d104f035f8002382e07b6a002b06d19a
:1051b40007f10c031846fcf797f801237b6204f00f
:1051c40027f8fbf7f7fb04f00af8fb6993f844307f
:1051d4005bb2b3f1ff3f03d1fb69002283f84420a3
:1051e400fb6993f845305bb2b3f1ff3f03d1fb6930
:1051f400002283f8452004f00bf83a4607f10c032b
:1052040011461846fcf786f80346002b32d1f8699c
:1052140000f0c6fa0346002b26d0fb691b68002b5e
:1052240009d103f0dcfffb699b681846fcf788f999
:10523400386203f0edfffb6924333a6811461846df
:10524400fbf782fef86900f059fafbf7c1fb03464d
:10525400002b7ff476af184b4ff080521a60bff3e7
:105264004f8fbff36f8f6ce7f86900f047fafbf7d5
:10527400affb66e7f86900f041fafbf7a9fbf869b0
:1052840000f08efa0346002b3ff45baf3b6a002b21
:105294000dd003f0a4fff86900f088f97861fb6988
:1052a4009b6879691846fcf76bfa03f0b1ff002399
:1052b40018462837bd4680bd04ed00e080b58ab0ad
:1052c40000aff860b9607a6000237b62fb683b62e0
:1052d40003f085ff3b6a9b6bfb61fb69002b21d0cc
:1052e4003b6adb68bb61b968386a00f0e1f93b6a84
:1052f400ba69da603b6a5b6a002b0fd03b6a2433dd
:105304001846fbf76ffe0346002b07d03c4b4ff0cb
:1053140080521a60bff34f8fbff36f8f03f078ff93
:10532400012369e07b68002b03d103f071ff0023a4
:1053340062e07b6a002b06d107f110031846fbf7e5
:10534400d3ff01237b6203f063fffbf733fb03f01e
:1053540046ff3b6a93f844305bb2b3f1ff3f03d19d
:105364003b6a002283f844203b6a93f845305bb2e1
:10537400b3f1ff3f03d13b6a002283f8452003f0d9
:1053840047ff3a1d07f1100311461846fbf7c2ff09
:105394000346002b23d1386a00f002fa0346002b9f
:1053a40017d03b6a24337a6811461846fbf7ccfdc4
:1053b400386a00f0a3f9fbf70bfb0346002b87d1f7
:1053c4000f4b4ff080521a60bff34f8fbff36f8fb4
:1053d4007ee7386a00f092f9fbf7fafa78e7386a60
:1053e40000f08cf9fbf7f4fa386a00f0d9f90346b7
:1053f400002b3ff46daf002318462837bd4680bd0f
:1054040004ed00e080b58eb000aff860b9607a605a
:10541400fb683b63eff311824ff0200383f31188a1
:10542400bff36f8fbff34f8ffa61bb61fb69fb6200
:105434003b6b9b6bbb62bb6a002b37d03b6b93f817
:10544400443087f82730b968386b00f031f9bb6a0b
:105454005a1e3b6b9a6397f92730b3f1ff3f12d181
:105464003b6b1b69002b1ed03b6b10331846fbf7bc
:10547400b9fd0346002b16d07b68002b13d07b6844
:1054840001221a600fe0fbf7b1fb386297f927306d
:105494003a6a9a4207d997f827300133dbb25ab2f5
:1054a4003b6b83f8442001237b6301e000237b638f
:1054b400fb6a7b617b6983f311887b6b1846383701
:1054c400bd4680bd80b58ab000af786039607b6826
:1054d4003b62eff311824ff0200383f31188bff393
:1054e4006f8fbff34f8f7a613b617b69fb613b6ace
:1054f4009b6b002b0cd03b6adb68bb613968386a54
:1055040000f0d6f83b6aba69da6001237b6201e0f5
:1055140000237b62fb69fb60fb6883f311887b6a71
:1055240018462837bd4680bd80b584b000af78608a
:1055340003f055fe7b689b6bfb6003f069fefb6820
:1055440018461037bd4680bd80b584b000af786082
:105554007b68fb6003f043fefb68da6bfb689b6bc4
:10556400d31abb6003f054febb6818461037bd461f
:1055740080bd80b485b000af78607b68fb60fb6859
:105584009b6bbb60bb6818461437bd465df8047b53
:10559400704780b584b000af78607b68fb60f868c2
:1055a40005f082f900bf1037bd4680bd80b485b0d8
:1055b40000af78607b685b6a002b06d07b681b6b4e
:1055c4001b68c3f10503fb6001e00023fb60fb687b
:1055d40018461437bd465df8047b704780b586b025
:1055e40000aff860b9607a6000237b61fb689b6b55
:1055f4003b61fb681b6c002b0dd1fb681b68002b07
:105604004dd1fb689b681846fcf738f87861fb6855
:1056140000229a6043e07b68002b19d1fb6858682c
:10562400fb681b6c1a46b96806f0d0f9fb685a6827
:10563400fb681b6c1a44fb685a60fb685a68fb6879
:105644009b689a422bd3fb681a68fb685a6026e071
:10565400fb68d868fb681b6c1a46b96806f0b6f993
:10566400fb68da68fb681b6c5b421a44fb68da600f
:10567400fb68da68fb681b689a4207d2fb689a6881
:10568400fb681b6c5b421a44fb68da607b68022b84
:1056940005d13b69002b02d03b69013b3b613b696f
:1056a4005a1cfb689a637b6918461837bd4680bd4f
:1056b40080b582b000af786039607b681b6c002bca
:1056c40018d07b68da687b681b6c1a447b68da60e4
:1056d4007b68da687b689b689a4203d37b681a68a4
:1056e4007b68da607b68d9687b681b6c1a4638680b
:1056f40006f06cf900bf0837bd4680bd80b584b0a4
:1057040000af786003f06bfd7b6893f84530fb7362
:1057140011e07b685b6a002b12d07b682433184647
:10572400fbf760fc0346002b01d0fbf73dfefb7b3f
:10573400013bdbb2fb7397f90f30002be9dc00e08f
:1057440000bf7b68ff2283f8452003f061fd03f06e
:1057540046fd7b6893f84430bb7311e07b681b699a
:10576400002b12d07b6810331846fbf73bfc034632
:10577400002b01d0fbf718febb7b013bdbb2bb73f4
:1057840097f90e30002be9dc00e000bf7b68ff22b4
:1057940083f8442003f03cfd00bf1037bd4680bdb4
:1057a40080b584b000af786003f019fd7b689b6b13
:1057b400002b02d10123fb6001e00023fb6003f016
:1057c40027fdfb6818461037bd4680bd80b485b000
:1057d40000af78607b68bb60bb689b6b002b02d119
:1057e4000123fb6001e00023fb60fb6818461437cb
:1057f400bd465df8047b704780b584b000af786027
:1058040003f0edfc7b689a6b7b68db6b9a4202d1f8
:105814000123fb6001e00023fb6003f0f9fcfb685b
:1058240018461037bd4680bd80b485b000af78609f
:105834007b68bb60bb689a6bbb68db6b9a4202d126
:105844000123fb6001e00023fb60fb68184614376a
:08585400bd465df8047b7047be
:020000040000fa
:020000040100f9
:10585c0098b500af2a4bd3ed087af5ee407af1ee0d
:10586c0010fa16d1264b9b6c254ad361254804f0bf
:10587c0071fd034683f00103dbb2002b04d0204bf7
:10588c00ff225a60032338e01d4b9b6c1c4a536269
:10589c0028e01b4b1b6a1a4ad361194a184b02f1b8
:1058ac00280438330fcb84e80f00154b1b6a144abd
:1058bc005362134b93ed097a114bd3ed126a104bd3
:1058cc00d3ed097a36eee76a0d4b1b6d013307ee0b
:1058dc00903af8eee76ac6ee267a77ee277a084b0e
:1058ec00c3ed097a064b1b6d0133054a1365044b56
:1058fc005b691846faf7b0fd0123184698bd00bf46
:10590c00aca40020d4a4002080b500af124b93edc2
