:020000040000fa
:10000000f0ff012051aa000197af00019daf000150
:10001000a9af0001afaf0001b5af000100000000c3
:10002000000000000000000000000000f98700014f
:10003000a3af0001000000001589000177890001cd
:100040008ba700018ba700018ba700018ba70001e4
:100050008ba70001057b00018ba700018ba7000186
:100060008ba700018ba700018ba700018ba70001c4
:100070008ba700018ba70001bd5b00018ba70001ce
:100080008ba700018ba700018ba70001018c000149
:100090008ba700018ba700018ba700018ba7000194
:1000a0008ba700018ba700018ba700018ba7000184
:1000b0008ba700018ba700018ba700018ba7000174
:1000c0008ba700018ba700018ba700018ba7000164
:1000d0008ba700018ba700018ba700018ba7000154
:020000040000fa
:020000040004f6
:045f8800ffff000017
:020000040000fa
:020000040004f6
:045f8c0000400e843f
:020000040000fa
:020000040004f6
:045f900038fc745f06
:020000040000fa
:020000040004f6
:045f940038440a146f
:020000040000fa
:020000040004f6
:045f98000300007191
:020000040000fa
:020000040004f6
:045f9c000000000001
:020000040000fa
:020000040004f6
:045fbc0000000010d1
:020000040000fa
:020000040100f9
:10000000f8b500bff8bc08bc9e4670473dac000187
:10001000f8b500bff8bc08bc9e46704719ac00019b
:020000040000fa
:020000040100f9
:080020007884000001000000db
:020000040000fa
:020000040100f9
:1000280080b58cb004aff860b9603b601346fb80c4
:10003800fb889b00184609f0b9ff78617b69002ba3
:100048000ed0542009f0b2fff861fb69002b03d0f1
:10005800fb697a691a6305e0786909f0f1ff01e044
:100068000023fb61fb69002b13d0fa88002303935c
:10007800fb690293fb6a0193bb6a00933b68b9680a
:10008800f86800f00ef8f86900f08af80123bb61ff
:1000980002e04ff0ff33bb61bb6918462037bd460d
:1000a80080bd80b586b000aff860b9607a603b600b
:1000b800bb6a186b7b689b001a46a5210bf054f8a5
:1000c800bb6a1a6b7b6803f18043013b9b001344b6
:1000d8003b613b6923f007033b61bb68002b1fd0e2
:1000e80000237b6112e0ba687b6913441978ba6a05
:1000f8007b69134434330a461a70ba687b6913441f
:100108001b78002b06d07b6901337b617b690f2b41
:10011800e9d900e000bfbb6a002283f8432003e06e
:10012800bb6a002283f834203b6a042b01d90423dc
:100138003b62bb6a3a6ada62bb6a3a6a5a64bb6a69
:1001480000229a64bb6a0433184609f0f7fabb6abe
:100158001833184609f0f2fabb6aba6a1a613b6aa0
:10016800c3f10502bb6a9a61bb6aba6a5a62bb6a82
:100178000022da64bb6a002283f850203a68f968e2
:10018800386908f0e9fa0246bb6a1a607b6a002bf4
:1001980002d07b6aba6a1a6000bf1837bd4680bdb4
:1001a80080b582b000af786008f07dfb2a4b1b68f1
:1001b8000133294a1360294b1b68002b09d1274ab0
:1001c8007b681360244b1b68012b10d100f0d8fe0c
:1001d8000de0234b1b68002b09d1204b1b68da6a02
:1001e8007b68db6a9a4202d81c4a7b6813601d4b05
:1001f8001b6801331b4a13607b68db6a01229a4043
:10020800194b1b681343184a13607b68da6a134654
:100218009b0013449b00154a1a447b680433194613
:10022800104609f098fa08f057fb0d4b1b68002b95
:100238000ed00a4b1b68da6a7b68db6a9a4207d2df
:100248000b4b4ff080521a60bff34f8fbff36f8f85
:1002580000bf0837bd4680bdeca2002014a20020d4
:10026800f8a2002008a30020f4a2002018a2002071
:1002780004ed00e080b584b000af786008f013fbaf
:100288007b68002b02d1314b1b6800e07b68fb6068
:10029800fb680433184609f0bbfa0346002b15d156
:1002a800fb68da6a2a4913469b0013449b000b44f7
:1002b8001b68002b0ad1fb68db6a012202fa03f3f0
:1002c800da43244b1b681340224a1360fb689b6a7d
:1002d800002b04d0fb681833184609f099fa1e4b16
:1002e8001b6801331c4a1360184b1b68fa689a4252
:1002f8000bd1fb6804331946184809f02cfa184b3f
:100308001b680133164a136009e0164b1b68013b52
:10031800144a1360f86800f09ffe00f0adfe08f084
:10032800dbfa114b1b68002b0cd0084b1b68fa68d2
:100338009a4207d10d4b4ff080521a60bff34f8f8e
:10034800bff36f8f00bf1037bd4680bd14a20020d9
:1003580018a20020f4a2002008a30020c0a20020b8
:10036800d4a20020eca20020f8a2002004ed00e0b6
:1003780080b586b000af7860396000237b6100f0fb
:1003880091fa214b1b683b617b681b683a681344f0
:10039800fb607b681b683a699a420bd27b681b68d2
:1003a800fa689a4211d2fa683b699a420dd9012338
:1003b8007b610ae07b681b68fa689a4203d3fa6893
:1003c8003b699a4201d901237b617b68fa681a600c
:1003d8007b69002b06d0fa683b69d31a00211846be
:1003e80001f07cfa00f06cfab860bb68002b07d10a
:1003f800064b4ff080521a60bff34f8fbff36f8fd9
:1004080000bf1837bd4680bdf0a2002004ed00e013
:1004180080b584b000af78600023fb607b68002b58
:1004280008d000f03ffa0021786801f057fa00f090
:1004380047faf860fb68002b07d1064b4ff0805253
:100448001a60bff34f8fbff36f8f00bf1037bd46e1
:1004580080bd00bf04ed00e080b584b000af7860d7
:1004680008f021fa7b68002b02d1074b1b6800e0db
:100478007b68fb60fb68db6abb6008f02dfabb6831
:1004880018461037bd4680bd14a2002080b489b03c
:1004980000af7860eff311824ff0200383f31188e7
:1004a800bff36f8fbff34f8f3a61fb603b69fb610e
:1004b8007b68002b02d10a4b1b6800e07b68bb619c
:1004c800bb69db6a7b61fb69bb60bb6883f311882e
:1004d8007b6918462437bd465df8047b704700bf2a
:1004e80014a2002080b586b000af78603960002380
:1004f8007b613b68042b01d904233b6008f0d3f9e6
:100508007b68002b02d1414b1b6800e07b683b6194
:100518003b695b6cfb60fa683b689a426fd03a684b
:10052800fb689a420dd9394b1b683a699a420fd039
:10053800364b1b68db6a3a689a4209d301237b6110
:1005480006e0324b1b683a699a4201d101237b616c
:100558003b69db6abb603b695a6c3b69db6a9a4260
:1005680002d13b693a68da623b693a685a643b6986
:100578009b69002b04db3b68c3f105023b699a6168
:100588003b695969ba6813469b0013449b00204a8b
:100598001344994228d13b690433184609f038f9c5
:1005a8000346002b09d10122bb6802fa03f3da43a0
:1005b800184b1b681340174a13603b69db6a01221a
:1005c8009a40144b1b681343124a13603b69da6a5a
:1005d80013469b0013449b000d4a1a443b6904339d
:1005e8001946104609f0b7f87b69002b07d00a4b6b
:1005f8004ff080521a60bff34f8fbff36f8f08f030
:100608006bf900bf1837bd4680bd00bf14a200209b
:1006180018a20020f4a2002004ed00e080b584b008
:1006280000af786008f03ff97b68002b02d1354baa
:100638001b6800e07b68fb60fb680433184609f020
:10064800e7f80346002b15d1fb68da6a2e491346f2
:100658009b0013449b000b441b68002b0ad1fb68ca
:10066800db6a012202fa03f3da43284b1b681340c2
:10067800264a1360fb689b6a002b04d0fb6818337a
:10068800184609f0c5f8fb6804331946204809f0f4
:1006980062f8fb6893f85030dbb2012b03d1fb689a
:1006a800002283f8502008f017f91a4b1b68002b1a
:1006b80005d008f0f8f800f0dffc08f00df9114b50
:1006c8001b68fa689a4218d1124b1b68002b08d095
:1006d800114b4ff080521a60bff34f8fbff36f8feb
:1006e8000be00b4b1a680d4b1b689a4203d1054b64
:1006f80000221a6001e000f075fa00bf1037bd460d
:1007080080bd00bf14a2002018a20020f4a200207f
:10071800d8a20020f8a2002004ed00e0eca20020fe
:1007280080b485b000af78600023fb607b68bb6055
:10073800bb685b690a4a93420ad1bb689b6a094a4b
:10074800934205d0bb689b6a002b01d10123fb6053
:10075800fb6818461437bd465df8047b704700bf38
:10076800d8a20020aca2002080b584b000af786089
:100778007b68fb60204b1b68fa689a4237d0fb689d
:10078800002b34d008f08ff8f868fff7c9ff03464c
:10079800002b2ad0fb680433184609f039f8fb68a7
:1007a800db6a01229a40154b1b681343134a1360f6
:1007b800fb68da6a13469b0013449b00104a1a44ec
:1007c800fb6804331946104608f0c5fffb68da6a6f
:1007d800094b1b68db6a9a4207d30a4b4ff08052d9
:1007e8001a60bff34f8fbff36f8f08f075f800bf23
:1007f8001037bd4680bd00bf14a20020f4a200201f
:1008080018a2002004ed00e080b584b002af134bbd
:100818000193002300930023802211491148fff718
:10082800fffb78607b68012b14d14ff0200383f322
:100838001188bff36f8fbff34f8f3b600a4b4ff0a8
:10084800ff321a60094b01221a60094b00221a6014
:1008580007f0f7ff00bf0837bd4680bd10a3002092
:1008680028b20001590f00010ca30020f8a20020b3
:10087800f0a2002080b582b000af4ff0200383f3d0
:100888001188bff36f8fbff34f8f7b60044b00223b
:100898001a6008f001f800bf0837bd4680bd00bfe8
:1008a800f8a2002080b400af044b1b680133034a50
:1008b800136000bfbd465df8047b704714a3002099
:1008c80080b584b000af0023fb600023bb6007f055
:1008d800eaff394b1b68013b374a1360364b1b68ec
:1008e800002b61d1354b1b68002b5dd02ee0344bbb
:1008f800db68db68fb60fb681833184608f088ff84
:10090800fb680433184608f083fffb68db6a0122a2
:100918009a402c4b1b6813432a4a1360fb68da6a17
:1009280013469b0013449b00274a1a44fb68043370
:100938001946104608f00ffffb68da6a234b1b685c
:10094800db6a9a4202d3224b01221a601c4b1b68b5
:10095800002bccd1fb68002b01d000f08dfb1d4b88
:100968001b687b607b68002b10d000f093f803466f
:10097800002b02d0164b01221a607b68013b7b607a
:100988007b68002bf1d1134b00221a60104b1b68b7
:10099800002b09d00123bb600f4b4ff080521a6027
:1009a800bff34f8fbff36f8f07f096ffbb681846f2
:1009b8001037bd4680bd00bf14a30020eca2002064
:1009c800aca20020f4a2002018a2002014a200204b
:1009d80000a30020fca2002004ed00e080b483b056
:1009e80000af054b1b687b607b6818460c37bd461b
:1009f8005df8047b704700bff0a2002080b483b08c
:100a080000af00237b60054b1b683b603b681846c2
:100a18000c37bd465df8047b704700bff0a200208c
:100a280080b400af034b1b681846bd465df8047bd5
:100a3800704700bfeca2002080b485b000af78609a
:100a48007b68002b02d1064b1b6800e07b68fb60cb
:100a5800fb68343318461437bd465df8047b70478d
:100a680014a2002080b584b000af78600023fb603a
:100a7800fff718ff064b1a687b681344044a136093
:100a8800fff71efff860fb6818461037bd4680bdab
:100a9800fca2002080b586b000af00237b61464be6
:100aa8001b68002b7dd1454b1b6801333b61434ad2
:100ab8003b6913603b69002b10d1414b1b68fb60fd
:100ac800404b1b683e4a13603e4afb6813603e4b2e
:100ad8001b6801333c4a136000f0cefa3b4b1b689d
:100ae8003a699a4248d3364b1b681b68002b04d1dd
:100af800364b4ff0ff321a603ee0314b1b68db6823
:100b0800db68bb60bb685b687b603a697b689a425c
:100b180003d22e4a7b6813602ee0bb680433184664
:100b280008f076febb689b6a002b04d0bb681833bc
:100b3800184608f06dfebb68db6a01229a40244b18
:100b48001b681343224a1360bb68da6a13469b008a
:100b580013449b001f4a1a44bb68043319461046c5
:100b680008f0f9fdbb68da6a1b4b1b68db6a9a421e
:100b7800b9d301237b61b6e7174b1b68da6a1549bd
:100b880013469b0013449b000b441b68012b01d99f
:100b980001237b61114b1b68002b07d001237b616c
:100ba80004e00f4b1b6801330d4a13607b6918463c
:100bb8001837bd4680bd00bf14a30020f0a2002056
:100bc800a4a20020a8a2002004a300200ca30020b7
:100bd800f4a2002018a2002014a2002000a30020e4
:100be800fca2002080b586b000af2f4b1b68002bfd
:100bf80003d02e4b01221a6051e02c4b00221a60c0
:100c08002b4b1b681b6b7b614ff0a5333b617b69ea
:100c18001b683a699a4211d17b6904331b683a69a7
:100c28009a420bd17b6908331b683a699a4205d10d
:100c38007b690c331b683a699a4208d01c4b1a68c6
:100c48001b4b1b6834331946104609f0e8fc194b56
:100c58001b687b607b68b3fa83f3fb70fb78c3f196
:100c68001f03fb60fa6813469b0013449b00124a5b
:100c78001344bb60bb685b685a68bb685a60bb6852
:100c88005a68bb6808339a4204d1bb685b685a68e3
:100c9800bb685a60bb685b68db68054a136000bfc5
:100ca8001837bd4680bd00bf14a3002000a3002054
:100cb80014a20020f4a2002018a2002080b582b05f
:100cc80000af78603960074b1b681833194678689d
:100cd80008f065fd0121386800f000fe00bf083704
:100ce800bd4680bd14a2002080b584b000aff86076
:100cf800b9607a600a4b1b68ba6842f000429a6190
:100d0800074b1b6818331946f86808f024fd0121c1
:100d1800786800f0e3fd00bf1037bd4680bd00bf16
:100d280014a2002080b584b000af78607b68db68cf
:100d3800db68bb60bb681833184608f069fd1d4bbb
:100d48001b68002b1cd1bb680433184608f060fdf3
:100d5800bb68db6a01229a40174b1b681343164a8b
:100d68001360bb68da6a13469b0013449b00134a5e
:100d78001a44bb6804331946104608f0ecfc05e039
:100d8800bb68183319460e4808f0e5fcbb68da6af8
:100d98000c4b1b68db6a9a4205d90123fb600a4b9e
:100da80001221a6001e00023fb60fb681846103737
:100db800bd4680bd14a30020f4a2002018a2002084
:100dc800aca2002014a2002000a3002080b584b0ab
:100dd80000af786039603b6843f000427b681a6076
:100de8007b68db68fb60786808f012fdfb680433f9
:100df800184608f00dfdfb68db6a01229a40104b8b
:100e08001b6813430e4a1360fb68da6a13469b009b
:100e180013449b000b4a1a44fb68043319461046d6
:100e280008f099fcfb68da6a074b1b68db6a9a4290
:100e380002d9064b01221a6000bf1037bd4680bd9b
:100e4800f4a2002018a2002014a2002000a3002071
:100e580080b582b000af786007f025fd064b1a68b0
:100e68007b681a60054b1a687b685a6007f034fd86
:100e780000bf0837bd4680bd04a30020f0a20020b3
:100e880080b483b000af7860064b1a687b681a603c
:100e9800054b1a687b685a6000bf0c37bd465df881
:100ea800047b704704a30020f0a2002080b586b020
:100eb80000af7860396007f0f6fc1d4b1b683b619a
:100ec8007b685b683a69d31afb603b681b68b3f1bf
:100ed800ff3f02d100237b6123e07b681a68154b32
:100ee8001b689a4207d07b685b683a699a4202d3ca
:100ef80001237b6115e03b681b68fa689a420bd2b4
:100f08003b681a68fb68d21a3b681a607868fff772
:100f1800b7ff00237b6104e03b6800221a600123cd
:100f28007b6107f0d9fc7b6918461837bd4680bd40
:100f3800f0a2002004a3002080b400af034b0122dc
:100f48001a6000bfbd465df8047b704700a300200f
:100f580080b582b000af786000f052f8064b1b688d
:100f6800012bf9d9054b4ff080521a60bff34f8f10
:100f7800bff36f8ff0e700bf18a2002004ed00e078
:100f880080b582b000af00237b600ce07a6813461e
:100f98009b0013449b00124a1344184608f0aefb0a
:100fa8007b6801337b607b68042befd90d4808f020
:100fb800a5fb0d4808f0a2fb0c4808f09ffb0c4865
:100fc80008f09cfb0b4808f099fb0b4b054a1a608c
:100fd8000a4b054a1a6000bf0837bd4680bd00bfee
:100fe80018a200207ca2002090a20020aca2002021
:100ff800c0a20020d8a20020a4a20020a8a20020fd
:1010080080b582b000af19e007f04dfc0f4bdb68ec
:10101800db687b607b680433184608f0f9fb0c4bef
:101028001b68013b0a4a13600a4b1b68013b094acb
:10103800136007f051fc786800f00ef8054b1b6848
:10104800002be1d100bf0837bd4680bdc0a20020fb
:10105800eca20020d4a2002080b582b000af786056
:101068007b681b6b184608f0ebff786808f0e8ff10
:1010780000bf0837bd4680bd80b483b000af0c4bbd
:101088001b681b68002b04d10a4b4ff0ff321a6013
:1010980008e0074b1b68db68db687b607b685b6884
:1010a800044a136000bf0c37bd465df8047b7047e7
:1010b800a4a200200ca3002080b483b000af054b8d
:1010c8001b687b607b6818460c37bd465df8047b5f
:1010d800704700bf14a2002080b584b000af7860cc
:1010e8007b68bb600023fb607b68002b5ed0bb681d
:1010f800da6a314b1b68db6a9a424ed2bb689b693d
:10110800002b06db2c4b1b68db6ac3f10502bb68ae
:101118009a61bb685969bb68da6a13469b00134435
:101128009b00264a134499422fd1bb6804331846c2
:1011380008f06efb0346002b0ad1bb68db6a01226c
:1011480002fa03f3da431e4b1b6813401c4a136070
:10115800194b1b68da6abb68da62bb68db6a012272
:101168009a40174b1b681343154a1360bb68da6a29
:1011780013469b0013449b00104a1a44bb6804336f
:101188001946104608f0e7fa04e00b4b1b68da6ac8
:10119800bb68da620123fb6008e0bb685a6c064b47
:1011a8001b68db6a9a4201d20123fb60fb68184680
:1011b8001037bd4680bd00bf14a2002018a2002031
:1011c800f4a2002080b584b000af78607b68bb6073
:1011d8000023fb607b68002b4fd0bb689b6c5a1eba
:1011e800bb689a64bb68da6abb685b6c9a4244d095
:1011f800bb689b6c002b40d1bb680433184608f0d1
:1012080007fb0346002b15d1bb68da6a1d49134654
:101218009b0013449b000b441b68002b0ad1bb683e
:10122800db6a012202fa03f3da43174b1b68134007
:10123800154a1360bb685a6cbb68da62bb68db6a24
:10124800c3f10502bb689a61bb68db6a01229a4058
:101258000d4b1b6813430c4a1360bb68da6a1346cc
:101268009b0013449b00074a1a44bb680433194681
:10127800104608f070fa0123fb60fb681846103727
:10128800bd4680bd18a20020f4a2002080b586b01b
:1012980000af786039607b683b610123fb607b6845
:1012a800002b58d03b695b6c3a689a4202d93b687c
:1012b8007b6102e03b695b6c7b613b69db6a7a6955
:1012c8009a4248d03b699b6cfa689a4243d13b6981
:1012d800db6abb603b697a69da623b699b69002b10
:1012e80004db7b69c3f105023b699a613b69596973
:1012f800ba6813469b0013449b00194a1344994249
:1013080029d13b690433184608f082fa0346002bba
:101318000ad13b69db6a012202fa03f3da43114b73
:101328001b6813400f4a13603b69db6a01229a402d
:101338000c4b1b6813430b4a13603b69da6a13466c
:101348009b0013449b00064a1a443b690433194620
:10135800104608f000fa00bf1837bd4680bd00bf30
:1013680018a20020f4a2002080b483b000af094b7b
:101378001b689b697b60074b1b68da6a054b1b6817
:10138800c2f105029a617b6818460c37bd465df8c4
:10139800047b704714a2002080b400af074b1b6881
:1013a800002b04d0054b1b689a6c01329a64034bde
:1013b8001b681846bd465df8047b704714a20020e0
:1013c80080b584b000af7860396007f06cfa1e4bc6
:1013d8001b68db6c002b13d11b4b1b68012283f8a5
:1013e80050203b68002b0bd00121386800f076faba
:1013f800164b4ff080521a60bff34f8fbff36f8fb9
:1014080007f06afa07f04ffa0f4b1b68db6cfb60ba
:10141800fb68002b0cd07b68002b04d00a4b1b68a0
:101428000022da6404e0084b1b68fa68013ada64bf
:10143800054b1b68002283f8502007f04dfafb6823
:1014480018461037bd4680bd14a2002004ed00e008
:1014580080b586b000aff860b9607a603b6007f08d
:1014680022fa264b1b6893f85030dbb2022b1ad0b5
:10147800224b1b68d96cfa68d2430a40da641f4bc6
:101488001b68012283f850203b68002b0bd00121f8
:10149800386800f023fa1a4b4ff080521a60bff3f5
:1014a8004f8fbff36f8f07f017fa07f0fcf97b68cf
:1014b800002b04d0114b1b68da6c7b681a600f4b49
:1014c8001b6893f85030dbb2022b02d000237b61fb
:1014d80008e00a4b1b68d96cba68d2430a40da6440
:1014e80001237b61054b1b68002283f8502007f01d
:1014f800f3f97b6918461837bd4680bd14a2002051
:1015080004ed00e080b588b000aff860b9603b60da
:101518001346fb710123fb61fb68bb6107f0c3f94c
:101528003b68002b03d0bb69da6c3b681a60bb6967
:1015380093f85030fb75bb69022283f85020fb7981
:10154800042b28d801a252f823f000bf9f150001f0
:101558006915000177150001831500018b1500013d
:10156800bb69da6cbb681a43bb69da6414e0bb690f
:10157800db6c5a1cbb69da640ee0bb69ba68da64d2
:101588000ae0fb7d022b03d0bb69ba68da6403e08a
:101598000023fb6100e000bffb7d012b2ad1bb6962
:1015a8000433184608f034f9bb69db6a01229a4013
:1015b800144b1b681343134a1360bb69da6a13465a
:1015c8009b0013449b00104a1a44bb690433194614
:1015d800104608f0c0f8bb69da6a0c4b1b68db6a76
:1015e8009a4207d90a4b4ff080521a60bff34f8fc7
:1015f800bff36f8f07f070f9fb6918462037bd46b7
:1016080080bd00bff4a2002018a2002014a2002070
:1016180004ed00e080b58cb000aff860b9603b60c5
:101628001346fb710123fb62fb68bb62eff3118277
:101638004ff0200383f31188bff36f8fbff34f8ff1
:10164800fa61bb61fb697b623b68002b03d0bb6a14
:10165800da6c3b681a60bb6a93f8503087f823301d
:10166800bb6a022283f85020fb79042b28d801a2f8
:1016780052f823f0c9160001911600019f160001c7
:10168800ab160001b3160001bb6ada6cbb681a43db
:10169800bb6ada6415e0bb6adb6c5a1cbb6ada64a5
:1016a8000fe0bb6aba68da640be097f82330022bc4
:1016b80003d0bb6aba68da6403e00023fb6200e087
:1016c80000bf97f82330012b36d1204b1b68002b25
:1016d8001cd1bb6a0433184608f09af8bb6adb6a67
:1016e80001229a401a4b1b681343194a1360bb6abc
:1016f800da6a13469b0013449b00164a1a44bb6ad5
:1017080004331946104608f026f805e0bb6a18337a
:101718001946114808f01ff8bb6ada6a0f4b1b68b4
:10172800db6a9a4208d9bb6b002b02d0bb6b012243
:101738001a600b4b01221a607b6a7b617b6983f319
:101748001188fb6a18463037bd4680bd14a30020b7
:10175800f4a2002018a20020aca2002014a20020ad
:1017680000a3002080b588b000af786039607b683e
:10177800fb61eff311824ff0200383f31188bff36d
:101788006f8fbff34f8f3a61fb603b69bb61fb69a9
:1017980093f85030fb75fb69022283f85020fb69ef
:1017a800db6c5a1cfb69da64fb7d012b36d1204bbc
:1017b8001b68002b1cd1fb690433184608f028f875
:1017c800fb69db6a01229a401a4b1b681343194aca
:1017d8001360fb69da6a13469b0013449b00164aa0
:1017e8001a44fb6904331946104607f0b4ff05e0b4
:1017f800fb6918331946114807f0adfffb69da6a2f
:101808000f4b1b68db6a9a4208d93b68002b02d051
:101818003b6801221a600b4b01221a60bb69bb604e
:10182800bb6883f3118800bf2037bd4680bd00bf69
:1018380014a30020f4a2002018a20020aca20020cb
:1018480014a2002000a3002080b584b000af786007
:101858007b68002b02d10e4b1b6800e07b68bb60e5
:1018680007f021f8bb6893f85030dbb2022b06d1a1
:10187800bb68002283f850200123fb6001e00023ad
:10188800fb6007f029f8fb6818461037bd4680bd95
:1018980014a2002080b584b000af786039607b68fe
:1018a800002b02d10c4b1b6800e07b68fb6006f044
:1018b800faff094b1b68db6cbb60fb68da6c3b68a2
:1018c800db431a40fb68da6407f006f8bb68184681
:1018d8001037bd4680bd00bf14a2002080b584b07b
:1018e80000af78603960294b1b68fb60284b1b6888
:1018f8000433184607f08cff0346002b0bd1244b0a
:101908001b68db6a012202fa03f3da43214b1b68e6
:101918001340204a13607b68b3f1ff3f0ad13b684c
:10192800002b07d01a4b1b68043319461a4807f0d6
:1019380012ff26e0fa687b681344bb60144b1b68ef
:10194800ba685a60ba68fb689a4209d2134b1a6897
:101958000f4b1b6804331946104607f020ff10e0b0
:101968000f4b1a680a4b1b6804331946104607f0d8
:1019780016ff0c4b1b68ba689a4202d2094abb6828
:10198800136000bf1037bd4680bd00bff0a2002025
:1019980014a20020f4a20020d8a20020a8a20020af
:0819a800a4a200200ca3002002
:020000040000fa
:020000040100f9
:1019b00080b584b000af78600b46fb70fb78fb60ad
:1019c0007b681b0903f58803223318027b6803f048
:1019d0000f03012202fa03f17b6803f00f03fa6898
:1019e00002fa03f31a4605f05bff00bf1037bd464d
:1019f00080bd80b500af0a4b1b88ff2b09d0094979
:101a0000142005f09df8064b1b8801211846fff7ae
:101a1000cfff034b5b881846fef7fefc00bf80bd7e
:101a200078a40020bc63000180b500af0a4b1b887e
:101a3000ff2b09d00949142005f082f8064b1b88ba
:101a400000211846fff7b4ff034b5b881846fef7ea
:101a5000e3fc00bf80bd00bf78a40020c863000184
:101a600080b584b000af7860786800f02df800236e
:101a7000fb6008e0114afb684ff6ff7122f8131073
:101a8000fb680133fb60fb681f2bf3dd0023bb60a9
:101a900008e00b4abb684ff6ff7122f81310bb68d1
:101aa0000133bb60bb681f2bf3dd0649142005f032
:101ab0009bf800bf1037bd4680bd00bff8a30020d3
:101ac00038a40020d463000180b582b000af7860f4
:101ad0006b49142005f034f87b681b88dbb29ab29e
:101ae000684b1a807b681b8903f07f039ab2654bb1
:101af0001a817b68da88634bda807b689a88614b4d
:101b00009a807b689b8903f007039ab25d4b9a81a8
:101b10007b685b8903f007039ab25a4b5a817b6852
:101b20005a88584b5a807b68db8903f001039ab2cc
:101b3000544bda817b681b8a534aa2fb0312520979
:101b4000642101fb02f29b1a9ab24e4b1a827b6807
:101b50005b8a03f001039ab24a4b5a827b689b8ae4
:101b600003f003039ab2474b9a827b68db8a03f047
:101b700001039ab2434bda827b681b8b03f00703a5
:101b80009ab2404b1a837b685b8b03f001039ab2d5
:101b90003c4b5a837b689b8b03f001039ab2394b11
:101ba0009a837b68db8b03f001039ab2354bda83af
:101bb0007b681b8c03f001039ab2324b1a847b685a
:101bc0005b8c03f001039ab22e4b5a847b689b8c8a
:101bd00003f001039ab22b4b9a847b68db8c03f0f1
:101be0001f039ab2274bda847b681b8d03f07f03b7
:101bf0009ab2244b1a857b685b8d244aa2fb0312a0
:101c0000991a49080a44520a40f28f2101fb02f254
:101c10009b1a9ab21b4b5a857b689b8d1b4aa2fb71
:101c20000312991a49080a44520a40f28f2101fb13
:101c300002f29b1a9ab2134b9a857b68d98d144b8a
:101c4000a3fb0123da0813465b019b1a9b00134494
:101c5000cb1a9ab20b4bda857b68198e0c4ba3fb1f
:101c60000123da0813465b019b1a9b001344cb1a2d
:101c70009ab2044b1a8600bf0837bd4680bd00bf2c
:101c8000f063000178a400201f85eb51eb473890ea
:101c9000d34d621080b487b000af78603960002304
:101ca000fb7500233b6121e03b697a6813441a7895
:101cb000fb7d5340fb750823fb6011e097f917305b
:101cc000002b07dafb7d5b005bb283f007035bb29e
:101cd000fb7502e0fb7d5b00fb75fb68013bfb6075
:101ce000fb68002bead13b6901333b613b693a68f1
:101cf0009a42d9d8fb7d18461c37bd465df8047b57
:101d0000704780b584b000af0346fb711e4b1b8942
:101d1000dbb25b00dbb23b72fb797b720023bb72f0
:101d200007f108030233fb6007f10803022118469c
:101d3000fff7b0ff03461a46fb681a70124b18896a
:101d400007f1080301330222194606f0d9fa0346c7
:101d5000fb720d4bdb881846fef75efbfb7a002b0f
:101d600008d0094b1b891a467b7a0849142004f0d5
:101d7000e7fe03e00649142004f0defffb7a184674
:101d80001037bd4680bd00bf78a400200864000164
:101d90002864000190b58db004af03460a46fb717c
:101da0001346bb802d4b1b89dbb25b00dbb23b7360
:101db000fb797b730023bb730023fb7300233b740d
:101dc00007f10c030233fb6107f10c030333bb6122
:101dd00007f10c0304337b61bb88dab2fb691a702c
:101de000bb881b0a9bb2dab2bb691a7007f10c03fd
:101df00004211846fff74eff03461a467b691a7006
:101e0000164b188907f10c0301330422194606f01a
:101e100077fa0346fb74114bdb881846fef7fcfa91
:101e2000fb7c002b11d00d4b1b8918467b7b1c467d
:101e3000bb7bfa7b397c02910192009323460246d8
:101e40000749142004f07cfe03e00649142004f046
:101e500073fffb7c18462437bd4690bd78a4002054
:101e6000446400017464000190b58db004af034672
:101e70003960fb713a4b1b89dbb25b00dbb23b7212
:101e8000fb797b72364b1b89dbb25b00dbb2013323
:101e9000dbb2bb720023fb7200233b7300237b7316
:101ea0002f4b188907f10803da1c07f10803591ca6
:101eb000032300931346012206f0b8f90346fb778b
:101ec000274bdb881846fef7a7fafb7f002b3ed096
:101ed00007f108030333bb6107f1080304337b6197
:101ee00007f1080305333b617b691b781b021ab2bb
:101ef000bb691b781bb213431bb29ab23b681a80b2
:101f0000174b1b8918467b7a1c46fb7a3a7b797bf8
:101f1000029101920093234602461249142004f0d4
:101f20000ffe07f1080305211846fff7b3fe03462d
:101f30001a463b691b789a4205d10b49142004f0dc
:101f4000fffd012308e00949142004f0f5fe0849cb
:101f5000142004f0f1fe002318462437bd4690bd3e
:101f600078a400208c640001bc640001dc640001e2
:101f7000f864000180b584b000af03460a46fb71e7
:101f80001346bb8097f9073003f01f035bb243f0a1
:101f900020035bb2fb73ba88fb7b11461846fff740
:101fa000f9fe034618461037bd4680bd80b584b0a3
:101fb00000af03463960fb7197f9073003f01f0348
:101fc0005bb243f020035bb2fb73fb7b39681846be
:101fd000fff74aff034618461037bd4680bd80b55f
:101fe00084b000af03463960fb71fb7903f01f0337
:101ff000fb73fb7b39681846fff736ff034618462c
:102000001037bd4680bd80b582b000af00237b6035
:1020100019e07b68d8b27b685b000f4a134419460d
:10202000fff7ddff034683f00103dbb2002b07d08f
:10203000094a7b684ff6ff7122f81310002306e06f
:102040007b6801337b607b681f2be2dd0123184630
:102050000837bd4680bd00bf38a4002080b582b0df
:1020600000af00237b6019e07b68d8b27b685b001f
:102070000e4a13441946fff799ff034683f0010304
:10208000dbb2002b07d0094a7b684ff6ff7122f8bc
:102090001310002306e07b6801337b607b681f2bf5
:1020a000e2dd012318460837bd4680bdf8a30020b5
:1020b00080b582b000af03463a60fb800b467b716f
:1020c0007b7900211846fff755ff0346002b1dd0f2
:1020d000fa887b7911461846fff74cff0346002b20
:1020e00014d07b7939681846fff760ff0346002b50
:1020f0000cd03b681b88fa889a4201d101230ae080
:10210000fa887b790649142004f016fe3b684ff6e6
:10211000ff721a80002318460837bd4680bd00bff5
:102120001065000180b584b000af03463960fb80c4
:102130001346bb800c4b5a89fb881340fb81ba883d
:102140003b6802fa03f31ab2b7f90e3013431bb21d
:10215000fb81fb89054a05211846fff7a9ff0346c5
:1021600018461037bd4680bdf8a3002002a4002009
:1021700080b584b000af0346fb80114b5b891b1216
:102180009bb203f00703fb81fa89fb889a4212d0c5
:10219000fb881a4608214ff6ff00fff7c3ff0346ee
:1021a000002b06d0fb881a460649142004f01cfdbb
:1021b00001e0002300e0012318461037bd4680bd32
:1021c000f8a300204065000180b584b000af03464d
:1021d000fb80104b5b8903f00703fb81fa89fb88c6
:1021e0009a4212d0fb881a4600214ff6f870fff78a
:1021f00099ff0346002b06d0fb881a460649142097
:1022000004f0f2fc01e0002300e00123184610373f
:10221000bd4680bdf8a300205865000180b584b09c
:1022200000af0346fb80114b5b899b119bb203f00f
:102230000103fb81fa89fb889a4212d0fb881a4677
:1022400006214ff6bf70fff76dff0346002b06d047
:10225000fb881a460649142004f0c6fc01e000235e
:1022600000e0012318461037bd4680bdf8a30020ca
:102270007065000180b584b000af0346fb80114b50
:102280005b89db109bb203f00103fb81fa89fb88b9
:102290009a4212d0fb881a4603214ff6f770fff7d7
:1022a00041ff0346002b06d0fb881a46064914203e
:1022b00004f09afc01e0002300e0012318461037e7
:1022c000bd4680bdf8a300208c65000180b584b0b8
:1022d00000af0346fb80114b5b891b119bb203f0df
:1022e0000303fb81fa89fb889a4212d0fb881a46c5
:1022f00004214ff6cf70fff715ff0346002b06d0e1
:10230000fb881a460649142004f06efc01e0002305
:1023100000e0012318461037bd4680bdf8a3002019
:10232000b465000180b584b000af0346fb80114b5b
:102330005b89db119bb203f00103fb81fa89fb8807
:102340009a4212d0fb881a4607214ff67f70fff79a
:10235000e9fe0346002b06d0fb881a4606491420e6
:1023600004f042fc01e0002300e00123184610378e
:10237000bd4680bdf8a30020d065000180b584b0c3
:1023800000af0346fb80114b5b89db129bb203f06d
:102390000703fb81fa89fb889a4212d0fb881a4610
:1023a0000b214cf2ff70fff7bdfe0346002b06d059
:1023b000fb881a460649142004f016fc01e00023ad
:1023c00000e0012318461037bd4680bdf8a3002069
:1023d000ec65000180b584b000af0346fb80114b73
:1023e0005b899b139bb203f00103fb81fa89fb8895
:1023f0009a4212d0fb881a460e214bf6ff70fff767
:1024000091fe0346002b06d0fb881a46064914208d
:1024100004f0eafb01e0002300e001231846103736
:10242000bd4680bdf8a300200466000180b584b0dd
:1024300000af0346fb80104b5b89db0bfb81fa8905
:10244000fb889a4212d0fb881a460f2147f6ff708c
:10245000fff768fe0346002b06d0fb881a460749a3
:10246000142004f0c1fb01e0002300e00123184622
:102470001037bd4680bd00bff8a3002020660001d4
:1024800090b585b000af0346fb80fb88184608f086
:10249000cbfd2da3d3e9002307f0e6fb03460c4652
:1024a000184621464ff00002214b06f0cffb0346b1
:1024b0000c461846214608f093fd0346fb811d4b50
:1024c0001b89fa899a4201d101232de06020fff790
:1024d00018fc0346002b20d0fb89174a042118461c
:1024e000fff7e6fd0346002b17d0124bdb8b134a98
:1024f0000f211846fff7dcfd0346002b0dd06120ad
:10250000fff7fffb0346002b07d0fb881a460c4958
:10251000142004f069fb012306e0fb881a460949f0
:10252000142004f009fc002318461437bd4690bd62
:102530000000e03ff8a3002000a4002016a4002023
:102540004466000164660001cdcccccccc7a8440da
:1025500080b582b000af0346fb80134b9b8bfa889b
:102560009a4201d101231ae0fb88104a0e21184635
:10257000fff79efd034683f00103dbb2002b07d07b
:10258000fb881a460a49142004f0d6fb002306e013
:10259000fb881a460749142004f026fb012318463d
:1025a0000837bd4680bd00bff8a3002014a400205a
:1025b00088660001b066000180b582b000af0346b6
:1025c000fb80fb881a46920013441a4691001a4673
:1025d0000b4613449b00fb80124b1b88fa889a42df
:1025e00001d101231ae0fb880e4a00211846fff7ab
:1025f0005ffd034683f00103dbb2002b07d0fb88ad
:102600001a460949142004f097fb002306e0fb88d2
:102610001a460649142004f0e7fa01231846083741
:10262000bd4680bdf8a30020d0660001f066000121
:1026300080b582b000af0346fb80fb881a4692004b
:1026400013441a4691001a460b4613449b00fb8024
:10265000124b5b88fa889a4201d101231ae0fb8869
:102660000f4a01211846fff723fd034683f00103bb
:10267000dbb2002b07d0fb881a460a49142004f06d
:102680005bfb002306e0fb881a460749142004f090
:10269000abfa012318460837bd4680bdf8a30020d9
:1026a000faa300200c6700012c67000190b585b0eb
:1026b00000af0346fb80fb88184608f0b5fc2ba34f
:1026c000d3e9002306f0c2fa03460c461846214619
:1026d0004ff00002204b07f0c7fa03460c4618469d
:1026e000214608f07dfc0346fb80fb88dbb2fb80c3
:1026f0001a4bdb88dbb2fb81fb881b021ab2b7f9ed
:102700000e3013431bb2fb81144bdb88fa899a42cb
:1027100001d101231ae0fb89114a03211846fff772
:10272000c7fc034683f00103dbb2002b07d0fb8814
:102730001a460c49142004f0fffa002306e0fb8837
:102740001a460949142004f04ffa01231846143799
:10275000bd4690bdaff300800000f93ff8a3002014
:10276000fea3002048670001686700019a999999c3
:102770009919434090b585b000af0346fb80fb88b4
:10278000184608f051fc2ba3d3e9002306f05efaab
:1027900003460c46184621464ff00002204b07f036
:1027a00063fa03460c461846214608f019fc034616
:1027b000fb80fb88dbb2fb801a4bdb8823f0ff0336
:1027c000fb81b7f90630dbb21ab2b7f90e3013430a
:1027d0001bb2fb81134bdb88fa899a4201d101239a
:1027e0001ae0fb89104a03211846fff761fc0346f3
:1027f00083f00103dbb2002b07d0fb881a460b499c
:10280000142004f099fa002306e0fb881a460849d0
:10281000142004f0e9f9012318461437bd4690bd91
:102820000000f93ff8a30020fea300208467000108
:10283000a46700019a9999999919434080b584b089
:1028400000af03463960fb801346bb800e4b9a886d
:10285000fb881340fb81ba88fb88db439bb21a409c
:102860003b6802fa03f31ab2b7f90e3013431bb2f6
:10287000fb81fb89054a02211846fff719fc034634
:1028800018461037bd4680bdf8a30020fca30020e9
:1028900080b584b000af0346fb80104b9b8803f0eb
:1028a0000103fb81fa89fb889a4212d0fb881a4601
:1028b00000214ff6fe70fff7c1ff0346002b06d044
:1028c000fb881a460649142004f08ef901e0002323
:1028d00000e0012318461037bd4680bdf8a3002054
:1028e000c067000180b584b000af0346fb80114b88
:1028f0009b885b109bb203f00103fb81fa89fb8884
:102900009a4212d0fb881a4601214ff6fd70fff75c
:1029100095ff0346002b06d0fb881a460649142073
:1029200004f062f901e0002300e0012318461037ab
:10293000bd4680bdf8a30020e067000180b584b0eb
:1029400000af0346fb80114b9b889b109bb203f0aa
:102950000103fb81fa89fb889a4212d0fb881a4650
:1029600002214ff6fb70fff769ff0346002b06d0ec
:10297000fb881a460649142004f036f901e00023ca
:1029800000e0012318461037bd4680bdf8a30020a3
:10299000fc67000180b584b000af0346fb80114b9b
:1029a0009b88db109bb203f00103fb81fa89fb8853
:1029b0009a4212d0fb881a4603214ff6f770fff7b0
:1029c0003dff0346002b06d0fb881a46064914201b
:1029d00004f00af901e0002300e001231846103753
:1029e000bd4680bdf8a300201468000180b584b006
:1029f00000af0346fb80114b9b881b119bb203f079
:102a00001f03fb81fa89fb889a4212d0fb881a4681
:102a100004214ff60f60fff711ff0346002b06d08d
:102a2000fb881a460649142004f0def801e0002372
:102a300000e0012318461037bd4680bdf8a30020f2
:102a40003068000180b584b000af0346fb80104bb6
:102a50009b885b0afb81fa89fb889a4212d0fb882b
:102a60001a4609214ff48070fff7e8fe0346002b59
:102a700006d0fb881a460749142004f0b5f801e097
:102a8000002300e0012318461037bd4680bd00bf7b
:102a9000f8a300205868000180b584b000af7860ca
:102aa0000123fb737868fef7dbfffef7a2fffff759
:102ab000d5fa034683f00103dbb2002b01d00123da
:102ac000e2e0fff7a0fa034683f00103dbb2002b3c
:102ad00001d00223d8e0fb7b002b06d06c4b5b8936
:102ae0001846fff745fb0346fb73fb7b002b06d024
:102af000674b9b891846fff767fb0346fb73fb7b1d
:102b0000002b06d0624bdb891846fff787fb034694
:102b1000fb73fb7b002b06d05d4b5b8a1846fff7ef
:102b2000a9fb0346fb73fb7b002b06d0584b9b8a0b
:102b30001846fff7cbfb0346fb73fb7b002b06d04d
:102b4000534bdb8a1846fff7edfb0346fb73fb7b19
:102b5000002b06d04e4b5b8b1846fff73bfc034621
:102b6000fb73fb7b002b06d0494b9b8b1846fff772
:102b70005dfc0346fb73fb7b002b06d0444b1b8b99
:102b80001846fff7fbfb0346fb73fb7b002b06d0cd
:102b90003f4bdb8b1846fff77bfe0346fb73fb7b4b
:102ba000002b06d03a4b1b8c1846fff79bfe0346c2
:102bb000fb73fb7b002b06d0354b5b8c1846fff775
:102bc000bdfe0346fb73fb7b002b06d0304b9b8c7a
:102bd0001846fff7dffe0346fb73fb7b002b06d096
:102be0002b4bdb8c1846fff701ff0346fb73fb7b87
:102bf000002b06d0264b1b8d1846fff723ff0346fc
:102c0000fb73fb7b002b06d0214b5b8d1846fff737
:102c1000d3fc0346fb73fb7b002b06d01c4b9b8d28
:102c20001846fff705fd0346fb73fb7b002b06d020
:102c3000174bdb8d1846fff739fd0346fb73fb7b13
:102c4000002b06d0124b1b8e1846fff793fd034650
:102c5000fb73fb7b002b06d00d4b1b8a1846fff73e
:102c60000ffc0346fb73fb7b83f00103dbb2002bfd
:102c700001d0042308e0fef7d7fefef7bafe0549af
:102c8000142003f0b1ff002318461037bd4680bd65
:102c900078a400207c68000180b500affef7c4fe78
:102ca0000249142003f0a0ff00bf80bda06800010e
:102cb00090b583b000af78602b490620fff78ff9fd
:102cc000034683f00103dbb2002b05d0274b4ff600
:102cd000ff729a8102233ee0244b9b891bb29bb278
:102ce000db0bdab2214b9b8942f2ac718b4294bf71
:102cf00001230023dbb21343dbb2002b01d00823f6
:102d000029e01a4b9b8907ee903af8ee677a9fed1f
:102d1000187a67ee877a17ee900a08f069f810a320
:102d2000d3e9002308f084fa03460c4618462146ee
:102d300007f004ff02467b681a607b681b68184630
:102d400008f056f803460c461a4623460949142053
:102d500003f04aff002318460c37bd4690bd00bf64
:102d6000666666666612714044a4002038a400209e
:102d70000ad7a33cac68000190b583b000af78607f
:102d80002b490720fff72bf9034683f00103dbb241
:102d9000002b05d0274b4ff6ff72da8102233ee06d
:102da000244bdb891bb29bb2db0bdab2214bdb89f4
:102db00042f2ac718b4294bf01230023dbb2134378
:102dc000dbb2002b01d0082329e01a4bdb8907ee88
:102dd000903af8ee677a9fed187a67ee877a17eee9
:102de000900a08f005f810a3d3e9002308f020fab0
:102df00003460c461846214607f0a0fe02467b68b3
:102e00001a607b681b68184607f0f2ff03460c4601
:102e10001a4623460949142003f0e6fe002318460b
:102e20000c37bd4690bd00bf66666666661271408f
:102e300046a4002038a400200ad7a33cc46800019f
:102e400090b583b000af7860314b5b8903f04003ed
:102e5000002b05d17b684ff000021a6000234ee082
:102e60002c490820fff7bbf8034683f00103dbb2cf
:102e7000002b05d0284b4ff6ff721a8202233ee04a
:102e8000254b1b8a1bb29bb2db0bdab2224b1b8a8f
:102e900042f2ac718b4294bf01230023dbb2134397
:102ea000dbb2002b01d0082329e01b4b1b8a07ee65
:102eb000903af8ee677a9fed197a67ee877a17ee07
:102ec000900a07f095ff10a3d3e9002308f0b0f9aa
:102ed00003460c461846214607f030fe02467b6842
:102ee0001a607b681b68184607f082ff03460c4691
:102ef0001a4623460a49142003f076fe002318469a
:102f00000c37bd4690bd00bf6666666666127140ae
:102f1000f8a3002048a4002038a400200ad7a33c2e
:102f2000dc68000180b582b000af78600f490420f2
:102f3000fff755f8034683f00103dbb2002b05d001
:102f40000b4b4ff6ff721a8102230be0084b1a89d4
:102f50007b681a807b681b881a460649142003f098
:102f600043fe002318460837bd4680bd40a400201c
:102f700038a40020f468000180b582b000af78600a
:102f8000154b5b8903f04003002b04d17b680022c2
:102f90001a8000231be011490520fff720f80346a3
:102fa00083f00103dbb2002b05d00d4b4ff6ff720f
:102fb0005a8102230be00a4b5a897b681a807b688e
:102fc0001b881a460749142003f00efe00231846fa
:102fd0000837bd4680bd00bff8a3002042a40020f2
:102fe00038a4002010690001f0b585b000af4ff0a3
:102ff00000014ff00002c7e9021200227a6024e0cb
:1030000017497a681c3231f8122091b24ff0000251
:103010007868c000a0f1200ec0f1200c02fa00f484
:1030200001fa0efe44ea0e0421fa0cfc44ea0c04f8
:1030300001fa00f3d7e9021241ea030542ea040665
:10304000c7e902567a6801327a607a68032ad7ddc6
:10305000d7e90234184621461437bd46f0bd00bffb
:04306000f8a30020b1
:020000040000fa
:020000040100f9
:1030640080b483b000af0346fb80fb880133fb8050
:10307400fb884ff6ff72934201d10123fb80fb884a
:1030840018460c37bd465df8047b704780b483b0a6
:1030940000af03460a46fb801346bb80fb881a0434
:1030a400bb88134318460c37bd465df8047b704754
:1030b40080b500af0f4b93f83030002b16d14ff68c
:1030c400ff710d4804f09dfe0346012b0cd1094b02
:1030d40093f90830184606f041fc03461a46054b9e
:1030e40083f83120012302e0002300e00123184685
:1030f40080bd00bf18a3002050a3002080b500affe
:10310400094b93f90820084b93f8313019461046bf
:1031140006f046fc044b93f83030002b02d10348f0
:1031240004f092fe00bf80bd18a3002050a300202d
:1031340080b485b000af78600023fb607b68b3f196
:10314400ff3f17d07b68002b14d07b689bb2042b05
:1031540010d87b689bb25b010a4a1344fb60fb688e
:10316400db697a689a4205d1fb681b78002b01d091
:10317400fb6800e0002318461437bd465df8047b65
:10318400704700bf58a300202de9f04f8db000af69
:103194004ff000034ff00004c7e90a34464bfb61cb
:1031a400fb695b6bbb61fb695a69fb691a61bb69ab
:1031b400002b2ad0bb699b68002b11dafb695b6981
:1031c4004ff000046ff000414ff000025818b8604f
:1031d40044eb0203fb60d7e90234c7e90a3422e076
:1031e400bb699b687b61fb695b6919464ff0000210
:1031f4007b694ff00004c818386042eb04037b601d
:10320400d7e90034c7e90a340de0fb695b694ff084
:1032140000046ff000414ff0000213eb010a44eb8d
:10322400020bc7e90aabfb695b689b6998470346d5
:103234004ff00004c7e90834fb691b694ff0000430
:10324400d7e90812a24208bf994207d2d7e9083445
:1032540013f1ff3844f10009c7e90889fb691b6ac7
:1032640019464ff00002d7e90834cd1842eb0406a2
:10327400d7e90a34b44208bfab4206d23a6afb69c2
:103284001b6a1a44fb69da6102e0ba6afb69da6113
:10329400fb69db69002b02d1fb690122da61fb695e
:1032a4005b685b69fa69d2691046984700bf343796
:1032b400bd46bde8f08f00bf18a3002080b489b0dc
:1032c40000af7860224b3b613b695b6bfb61002381
:1032d400bb610023fb753b695b6bfb6104e0fb692d
:1032e400bb61fb699b69fb61fb69002b03d0fa6935
:1032f4007b689a42f3d1fb69002b01d1fb7d21e06d
:103304007b689b69002b0ad07b689b68fb607b68a9
:103314009b6999687b689b69fa680a449a60bb69ef
:10332400002b07d13b695b6b9a693b695a630123a4
:10333400fb7503e07b689a69bb699a617b6800222c
:103344009a61fb7d18462437bd465df8047b7047bf
:1033540018a300202de9f0038ab000af78604ff085
:1033640000034ff00004c7e90834394b3b613b6963
:103374005b6bfb610023bb610023fb757b68002b47
:1033840001d1fb7d5de07b689b68fb60fb69002be2
:103394002ad17b68fa689a603b697a685a63012388
:1033a400fb754de0fb699b6819464ff00002d7e9b5
:1033b4000834cd1842eb0406fb684ff00004b44215
:1033c40008bfab4214d3fb699b684ff00004d7e9f4
:1033d400081211eb030842eb0409c7e90889fb69e9
:1033e400bb61fb699b69fb61fb69002bdad100e0df
:1033f40000bfbb69002b08d13b697a685a637b68bc
:10340400fa699a610123fb7506e0bb699a697b68d6
:103414009a61bb697a689a613b6afa68d21a7b68d6
:103424009a607b689b69002b0ad07b689b68fb6071
:103434007b689b6999687b689b69fa688a1a9a60b9
:10344400fb7d18462837bd46bde8f003704700bf32
:1034540018a3002080b487b000af78600d4b3b61a7
:1034640000237b613b691b69fb607a68fb689a42b5
:1034740004d97a68fb68d31a7b6103e07a68fb6835
:10348400d31a7b617b6918461c37bd465df8047b03
:10349400704700bf18a3002080b588b000af7860e3
:1034a400264b3b613b695b6bfb610023bb610023e3
:1034b4007b617b685b7883f00103dbb2002b0ad06d
:1034c40000237b6134e0fb699b68ba691344bb61e8
:1034d400fb699b69fb61fb69002b03d0fa697b687c
:1034e4009a42f0d1fb699b68ba691344bb613b699a
:1034f4005b689b699847f860f868fff7abff7861f1
:10350400ba697b699a4204d3ba697b69d31abb61ed
:1035140001e00023bb61fb695b68ba699a4205d884
:10352400fb695a68bb69d31a7b6101e000237b61a4
:103534007b6918462037bd4680bd00bf18a3002014
:1035440080b485b000af7860184bbb600023fb608b
:10355400bb685b6bfb6018e0fb689b687a689a4207
:1035640008d8fb689a687b68d21afb689a600023c3
:103574007b6007e0fb689b687a68d31a7b60fb6812
:1035840000229a60fb689b69fb60fb68002b02d0f9
:103594007b68002be0d1bb685a69bb681a6100bf25
:1035a4001437bd465df8047b704700bf18a30020a4
:1035b400f0b587b000af78601f4b7b6100233b619f
:1035c4000023fb737b695b689b69984702467b69b0
:1035d4005a617b695b691846fff73cff38613869bb
:1035e400fff7aeff06f0a6f90346bb737b69d3e988
:1035f4000a123b694ff00004cd1842eb04067b69c4
:10360400c3e90a56bb7b184606f09bf97868fff7b6
:10361400a1fe0346fb73fb7b002b09d006f08af95d
:103624000346bb73fff7b0fdbb7b184606f089f970
:1036340000bf1c37bd46f0bd18a3002080b582b082
:1036440000af1f4b3b603b685b6b7b602ee07b688d
:103654009b68002b2ed17b6801221a757b6801229e
:103664005a757b689b78002b09d17b68db68002b3b
:1036740005d07b68db69184600f0e2fb09e0786856
:10368400fff71cfe7b689b78002b02d17b6800222d
:103694005a707b68db68002b05d07b68db687a682e
:1036a4001269104698473b685b6b7b607b68002b14
:1036b400cdd100e000bf00bf0837bd4680bd00bfcc
:1036c40018a3002080b584b000af78607868fff755
:1036d40037fffff7b3ff0023fb732de0fb7b1a4a90
:1036e4005b01134415331b78dbb2002b21d0fb7b29
:1036f400154a5b011344153300221a70fb7b124aee
:103704005b01134402331b78012b12d1fa7bfb7b40
:103714000d4952010a44043212680b495b010b44ff
:1037240008331a60fb7b5b01074a13441846fff712
:1037340011fefb7b0133fb73fb7b042bced900bf53
:103744001037bd4680bd00bf58a30020f0b587b038
:1037540000af78603960224b7b617b695b6b3b61b6
:103764000023fb607b695b689b69984702467b6921
:103774005a617b695b691846fff76cfef8607b69e8
:10378400d3e90a12fb684ff00004cd1842eb04069b
:103794007b69c3e90a563b69002b12d07b6993f815
:1037a40030300133dab27b6983f83020f868fff7f0
:1037b40089ff7b6993f83030013bdab27b6983f887
:1037c400302006f0b7f80346fb72fff7ddfcfb7a06
:1037d400184606f0b6f800bf1c37bd46f0bd00bf62
:1037e40018a3002080b588b000aff860b9607a6093
:1037f4003b604ff0ff33fb6100237b61fff758fc14
:10380400034683f00103dbb2002b01d0fb6958e0cf
:103814002e4b93f90030022b50d1bb68002b4dd0b6
:10382400ba68fb689a4249d3294bbb6142e0bb6941
:103834001b7883f00103dbb2002b35d0bb69012276
:103844001a70bb6900225a70bb6900221a75bb69e1
:1038540000225a75bb6997f828209a70bb69ba6828
:103864005a60bb697a68da60bb693a681a61ba68f7
:10387400fb68d21abb699a60164b1b887a6992b2ac
:1038840011461846fff702fc0246bb69da61114b88
:103894001b881846fff7e4fb03461a460d4b1a80b3
:1038a400bb69db69fb6109e07b6901337b61bb694f
:1038b4002033bb61bb69084a9342b8d3fff71efcaf
:1038c400fb6918462037bd4680bd00bf18a3002001
:1038d40058a30020aaa40020f8a300202de9f04f4b
:1038e40089b000af7860434bfb617b68bb61bb6907
:1038f4001a68fb695a60fb695b68db689847024693
:10390400fb69da60fb69db681d464ff000062b4655
:1039140034464ff000014ff00002e20042ea5372d5
:10392400d9000b4614465b1b64eb06044ff0000100
:103934004ff00002620142ead36259015b1842eb84
:10394400040413eb050a44eb060bc7e904abd7e9ff
:103954000401294a4ff0000307f0acfa03460c4671
:1039640013f1020844f10009c7e90289ba68fb6946
:103974001a62bb6993f90420fb691a72fb6900227d
:103984001a61fb694ff0ff329a61fb696ff00042e4
:10399400da61fa694ff000034ff00004c2e90a3417
:1039a400fb6900225a63fb69002283f83020fb691b
:1039b4005b681b68002111489847fb695b681b69b9
:1039c400002b06d0fb695b681b69fa699269104693
:1039d4009847fb695b685b69fa69d2691046984746
:1039e400fb695b685b68984700bf2437bd46bde848
:1039f400f08f00bf18a30020006cdc0251370001d7
:103a040080b582b000af03463960fb803b68002b71
:103a140002d0fb88002b02d04ff0ff3314e00c4897
:103a240004f0c3f90346012b02d04ff0ff330be03f
:103a34003868fff753ffa0220021064807f096fbe1
:103a4400054b02221a70044b18460837bd4680bd48
:103a540050a3002058a3002018a3002080b584b0f0
:103a640000af78600e4bfb607b68fa689a4212d113
:103a7400fb685b689b689847a0220021094807f00f
:103a840075fb40220021064807f070fbfb6800220a
:103a94001a7000bf00e000bf1037bd4680bd00bff4
:103aa40018a3002058a3002080b485b000af78602c
:103ab400094bbb600023fb737b68ba689a4202d14e
:103ac400bb681b78fb7397f90f3018461437bd4653
:103ad4005df8047b704700bf18a3002080b400afda
:103ae400034bdb681846bd465df8047b704700bf96
:103af40018a30020f0b587b000af154b7b614ff0e1
:103b040000034ff00004c7e9023405f013ff034635
:103b1400fb717b695b689b69984703461846fff70e
:103b240099fc38607b69d3e90a123b684ff00004c2
:103b3400cd1842eb0406c7e90256fb79184605f096
:103b440000ffd7e90234184621461c37bd46f0bdb4
:103b540018a3002090b583b000affff7cbff034656
:103b64000c467b607b6818460c37bd4690bd90b50b
:103b740085b000af786005f0ddfe0346fb737b681b
:103b84004ff00004054ac2e90a34fb7b184605f0ed
:103b9400d8fe00bf1437bd4690bd00bf18a3002057
:103ba4002de9f04383b000af78607b681d464ff089
:103bb40000062b4634464ff000014ff0000262012c
:103bc40042ead36259010b4614465b1b64eb0604bc
:103bd4004ff000014ff00002620242ead352590250
:103be4000b4614465b1946eb04044ff000014ff0fa
:103bf4000002a20142ea93629901c91a62eb04022b
:103c040011eb050842eb0609084bdb684ff0000492
:103c14001a4623464046494607f04cf903460c46eb
:103c240018460c37bd46bde8f08300bf18a300203a
:103c3400f0b583b000af78607b6819464ff000029e
:103c44000b4614464ff000054ff00006660146eaa5
:103c5400d3665d012b4634465b1a64eb02044ff0d5
:103c640000054ff00006a60046ea93769d002b4619
:103c740034465b1842eb04044ff000014ff000029d
:103c8400e20042ea5372d9000b4614461846214614
:103c9400064bdb684ff000041a46234607f00af986
:103ca40003460c4618460c37bd46f0bd18a3002049
:103cb400b0b582b000af78607b6819464ff000025f
:103cc4000b4bdb684ff0000403fb02f501fb04f02f
:103cd4000544a1fb03016b181946064a4ff0000383
:103ce40007f0e8f803460c4618460837bd46b0bd51
:103cf40018a3002040420f00b0b582b000af786036
:103d04007b6819464ff000020c4bdb684ff000044f
:103d140003fb02f501fb04f00544a1fb03016b184e
:103d240019464ff47a724ff0000307f0c3f80346c4
:103d34000c4618460837bd46b0bd00bf18a3002086
:103d440080b586b002aff860b9607a603b603b7eb4
:103d5400002b05d17b68002b02d14ff0ff3308e024
:103d64003b7e00933b687a68b968f868fff73afdd0
:103d7400034618461037bd4680bd80b586b000aff7
:103d8400f860b9607a603b6000233b610123fb75f6
:103d9400fff78ef9034683f00103dbb2002b01d059
:103da400fb7d47e097f82430002b06d13b68002bbd
:103db40003d1fff7a3f9fb7d3ce0f868fff7b8f9fe
:103dc40038613b69002b32d07b68002b2fd07a6896
:103dd400bb689a422bd33869fff770fa3b6900221b
:103de4001a753b6900225a753b6997f824209a702a
:103df4003b697a685a607a68bb68d21a3b699a60f0
:103e04003b693a68da603b693a6a1a610b4b93f88a
:103e14003030002b03d13869fff7cafb02e0386960
:103e2400fff798fa3b6901225a700023fb75fff7ec
:103e340065f9fb7d18461837bd4680bd18a30020e0
:103e440080b584b000af78600023bb600123fb73ae
:103e5400fff72ef9034683f00103dbb2002b01d0f8
:103e6400fb7b1ee07868fff763f9b860bb68002b42
:103e740014d0bb685b78002b05d0b868fff71efa36
:103e8400bb6800225a70bb6800221a75bb68002206
:103e94005a75bb6800221a700023fb73fff72ef9d2
:103ea400fb7b18461037bd4680bd80b584b000af9b
:103eb40078600023bb600123fb73fff7f9f8034626
:103ec40083f00103dbb2002b01d0fb7b2fe0786889
:103ed400fff72ef9b860bb68002b25d0bb685b7870
:103ee40083f00103dbb2002b1cd0bb689b68002b62
:103ef40003d1bb685a68bb689a600f4b93f83030a3
:103f0400002b03d1b868fff753fb02e0b868fff752
:103f140021fabb6800221a75bb6800225a75bb6877
:103f240001225a700023fb73fff7e8f8fb7b184665
:103f34001037bd4680bd00bf18a3002080b584b0f3
:103f440000af78600023bb600123fb73fff7b0f878
:103f5400034683f00103dbb2002b01d0fb7b1fe09f
:103f64007868fff7e5f8b860bb68002b15d0bb682c
:103f74005b78002b0fd0b868fff7a0f9bb6800226c
:103f84001a75bb6800225a75bb6800225a70bb6858
:103f94005a68bb689a600023fb73fff7aff8fb7b9a
:103fa40018461037bd4680bd80b586b000af786036
:103fb400396000233b610123fb75fff779f8034661
:103fc40083f00103dbb2002b01d0fb7d15e03b68dd
:103fd400002b0fd07868fff7abf838613b69002bf2
:103fe40008d03869fff758faf8603b68fa681a6035
:103ff4000023fb75fff782f8fb7d18461837bd4692
:1040040080bd80b584b000af78600023bb6000231e
:10401400fb73fff74df8034683f00103dbb2002b7b
:1040240001d0fb7b0fe07868fff782f8b860bb68cb
:10403400002b05d0bb681b7dfb73bb6800221a757f
:10404400fff75cf8fb7b18461037bd4680bd80b592
:1040540086b002af786039600123fb733b68002ba4
:1040640002d07b68002b01d1fb7b1ae07868fff754
:104074001ffe014600230093002300220020fff7c7
:10408400b1fb02463b681a603b681b68b3f1ff3f13
:1040940006d03b681b681846fff707ff0023fb7335
:1040a400fb7b18461037bd4680bd80b586b002af95
:1040b400786039600123fb733b68002b02d07b6876
:1040c400002b01d1fb7b1ae07868fff715fe01464f
:1040d40000230093002300220020fff783fb024605
:1040e4003b681a603b681b68b3f1ff3f06d03b682e
:1040f4001b681846fff7d9fe0023fb73fb7b1846a9
:104104001037bd4680bd80b584b000af7860002311
:10411400fb737868fff775ff0346002b04d07868bb
:10412400fff78efe0123fb73fb7b18461037bd4659
:1041340080bd80b588b002aff860b9607a60fb706a
:104144004ff0ff337b61fb78002b04d1fb68002b1d
:1041540001d17b6916e07b68002b12d07868fff7e9
:10416400a7fd0146fb780093bb68fa680020fff7bf
:1041740039fb78617b69b3f1ff3f02d07869fff7bf
:1041840094fe7b6918461837bd4680bd80b588b05b
:1041940002aff860b9607a60fb704ff0ff337b6167
:1041a400fb78002b04d1fb68002b01d17b6916e05e
:1041b4007b68002b12d07868fff79efd0146fb78e0
:1041c4000093bb68fa680020fff70cfb78617b69f9
:1041d400b3f1ff3f02d07869fff767fe7b691846a9
:0841e4001837bd4680bd00bf85
:020000040000fa
:020000040100f9
:1041ec0080b584b000af786039607b68fb6004f008
:1041fc0058fbfb681a68fb68db6bf968096c01fb00
:10420c0003f31a44fb689a60fb6800229a63fb680c
:10421c001a68fb685a60fb681a68fb68db6b013b29
:10422c00f968096c01fb03f31a44fb68da60fb685c
:10423c00ff2283f84420fb68ff2283f845203b686b
:10424c00002b14d1fb681b69002b1ad0fb681033b0
:10425c001846fcf765fd0346002b12d00c4b4ff0b3
:10426c0080521a60bff34f8fbff36f8f09e0fb686a
:10427c001033184605f040fafb682433184605f055
:10428c003bfa04f027fb012318461037bd4680bdce
:10429c0004ed00e080b58ab002aff860b960134657
:1042ac00fb71fb68ba6802fb03f3fb61fb694833e3
:1042bc00184605f079feb861bb69002b0dd0bb69bf
:1042cc007b617b6948337b61fa79bb690093134648
:1042dc007a69b968f86800f005f8bb6918462037a8
:1042ec00bd4680bd80b584b000aff860b9607a601f
:1042fc00fb70bb68002b03d1bb69ba691a6002e082
:10430c00bb697a681a60bb69fa68da63bb69ba6818
:10431c001a640121b869fff763ff00bf1037bd466f
:10432c0080bd80b582b000af78607b68002b0ed06a
:10433c007b6800229a607b6800221a607b680022ee
:10434c00da60002300220021786800f060f800bfda
:10435c000837bd4680bd80b586b000af0346fb7103
:10436c0001237b6100233b61fb791a46396978692b
:10437c00fff790fff860f868fff7d3fffb6818466b
:10438c001837bd4680bd80b584b000af78607b68bf
:10439c00bb6004f086fabb681b68002b03d1bb68ba
:1043ac009b68fb6001e00023fb6004f093fafb6860
:1043bc0018461037bd4680bd80b485b000af78601c
:1043cc007b681b68002b03d17b689b68fb6001e05a
:1043dc000023fb60fb6818461437bd465df8047b70
:1043ec00704780b584b000af78603960022200213c
:1043fc007868fff74ffff860fb68002b02d0fb6872
:10440c003a689a63fb6818461037bd4680bd80b584
:10441c008ab000aff860b9607a603b6000237b62c1
:10442c00fb683b6204f03dfa3b6a9a6b3b6adb6bc0
:10443c009a4202d33b68022b29d13a68b968386a90
:10444c0000f030fcf8613b6a5b6a002b10d03b6ad1
:10445c0024331846fcf764fc0346002b13d0404b66
:10446c004ff080521a60bff34f8fbff36f8f0ae08b
:10447c00fb69002b07d03a4b4ff080521a60bff308
:10448c004f8fbff36f8f04f025fa012363e07b6835
:10449c00002b03d104f01efa00235ce07b6a002b96
:1044ac0006d107f114031846fcf7e8fc01237b62e4
:1044bc0004f010fafcf7f4f904f0f3f93b6a93f802
:1044cc0044305bb2b3f1ff3f03d13b6a002283f867
:1044dc0044203b6a93f845305bb2b3f1ff3f03d104
:1044ec003b6a002283f8452004f0f4f93a1d07f1e9
:1044fc00140311461846fcf7d7fc0346002b24d1b5
:10450c00386a00f0ddfc0346002b18d03b6a1033f0
:10451c007a6811461846fcf7cffb386a00f052fc5b
:10452c00fcf7ccf90346002b7ff47caf0c4b4ff01f
:10453c0080521a60bff34f8fbff36f8f72e7386ae8
:10454c0000f040fcfcf7baf96ce7386a00f03afc72
:10455c00fcf7b4f9002318462837bd4680bd00bfd0
:10456c0004ed00e080b58cb000aff860b9607a6003
:10457c003b60fb68bb62eff311824ff0200383f3c7
:10458c001188bff36f8fbff34f8fba617b61bb692b
:10459c007b62bb6a9a6bbb6adb6b9a4202d33b6849
:1045ac00022b2fd1bb6a93f8453087f82330bb6ab6
:1045bc009b6bfb613a68b968b86a00f073fb97f9ba
:1045cc002330b3f1ff3f12d1bb6a5b6a002b16d0cc
:1045dc00bb6a24331846fcf7a3fb0346002b0ed012
:1045ec007b68002b0bd07b6801221a6007e097f8e0
:1045fc0023300133dbb25ab2bb6a83f84520012366
:10460c00fb6201e00023fb627b6a3b613b6983f345
:10461c001188fb6a18463037bd4680bd80b58ab01c
:10462c0000af786039607b683b62eff311824ff02a
:10463c00200383f31188bff36f8fbff34f8f3a6161
:10464c00fb603b69fb613b6a9b6bbb613b6adb6b51
:10465c00ba699a4229d23b6a93f84530fb75bb691b
:10466c005a1c3b6a9a6397f91730b3f1ff3f12d18a
:10467c003b6a5b6a002b15d03b6a24331846fcf767
:10468c004ffb0346002b0dd03b68002b0ad03b6838
:10469c0001221a6006e0fb7d0133dbb25ab23b6aa1
:1046ac0083f8452001237b6201e000237b62fb69d8
:1046bc00bb60bb6883f311887b6a18462837bd46fc
:1046cc0080bd80b58ab000aff860b9607a60002315
:1046dc007b62fb683b6204f0e4f83b6a9b6bfb611a
:1046ec00fb69002b1fd0b968386a00f045fbfb69e9
:1046fc005a1e3b6a9a633b6a1b69002b0fd03b6abc
:10470c0010331846fcf70cfb0346002b07d03d4b2f
:10471c004ff080521a60bff34f8fbff36f8f04f0ce
:10472c00d9f8012369e07b68002b03d104f0d2f89f
:10473c00002362e07b6a002b06d107f114031846b4
:10474c00fcf79cfb01237b6204f0c4f8fcf7a8f88f
:10475c0004f0a7f83b6a93f844305bb2b3f1ff3f27
:10476c0003d13b6a002283f844203b6a93f845301e
:10477c005bb2b3f1ff3f03d13b6a002283f84520c3
:10478c0004f0a8f83a1d07f1140311461846fcf77b
:10479c008bfb0346002b23d1386a00f065fb0346e4
:1047ac00002b17d03b6a24337a6811461846fcf765
:1047bc0083fa386a00f006fbfcf780f80346002bfe
:1047cc0089d1104b4ff080521a60bff34f8fbff35b
:1047dc006f8f80e7386a00f0f5fafcf76ff87ae72c
:1047ec00386a00f0effafcf769f8386a00f03cfb25
:1047fc000346002b3ff46faf002318462837bd4605
:10480c0080bd00bf04ed00e080b58ab000af7860d9
:10481c00396000237b627b68fb6100233b6204f000
:10482c0040f8fb699b6bbb61bb69002b24d0bb6957
:10483c005a1efb699a63fb691b68002b04d1fcf7b9
:10484c00a9fd0246fb699a60fb691b69002b0fd01e
:10485c00fb6910331846fcf763fa0346002b07d0ac
:10486c004c4b4ff080521a60bff34f8fbff36f8fda
:10487c0004f030f8012389e03b68002b03d104f0ed
:10488c0029f8002382e07b6a002b06d107f10c0388
:10489c001846fcf7f3fa01237b6204f01bf8fbf7d4
:1048ac00ffff03f0fefffb6993f844305bb2b3f1fa
:1048bc00ff3f03d1fb69002283f84420fb6993f886
:1048cc0045305bb2b3f1ff3f03d1fb69002283f8a3
:1048dc00452003f0ffff3a4607f10c03114618463a
:1048ec00fcf7e2fa0346002b32d1f86900f0bcfa6f
:1048fc000346002b26d0fb691b68002b09d103f063
:10490c00d0fffb699b681846fcf7e4fb386203f0a8
:10491c00e1fffb6924333a6811461846fcf7ccf9e1
:10492c00f86900f04ffafbf7c9ff0346002b7ff440
:10493c0076af184b4ff080521a60bff34f8fbff316
:10494c006f8f6ce7f86900f03dfafbf7b7ff66e78d
:10495c00f86900f037fafbf7b1fff86900f084fa58
:10496c000346002b3ff45baf3b6a002b0dd003f0ea
:10497c0098fff86900f07ef97861fb699b687969aa
:10498c001846fcf781fc03f0a5ff002318462837d6
:10499c00bd4680bd04ed00e080b58ab000aff86084
:1049ac00b9607a6000237b62fb683b6203f079ff9d
:1049bc003b6a9b6bfb61fb69002b21d03b6adb687c
:1049cc00bb61b968386a00f0d7f93b6aba69da603a
:1049dc003b6a5b6a002b0fd03b6a24331846fcf70a
:1049ec009ff90346002b07d03c4b4ff080521a60c6
:1049fc00bff34f8fbff36f8f03f06cff012369e0a0
:104a0c007b68002b03d103f065ff002362e07b6a17
:104a1c00002b06d107f110031846fcf72ffa0123df
:104a2c007b6203f057fffbf73bff03f03aff3b6a57
:104a3c0093f844305bb2b3f1ff3f03d13b6a0022e1
:104a4c0083f844203b6a93f845305bb2b3f1ff3fe7
:104a5c0003d13b6a002283f8452003f03bff3a1d4b
:104a6c0007f1100311461846fcf71efa0346002bfb
:104a7c0023d1386a00f0f8f90346002b17d03b6ab3
:104a8c0024337a6811461846fcf716f9386a00f098
:104a9c0099f9fbf713ff0346002b87d10f4b4ff00f
:104aac0080521a60bff34f8fbff36f8f7ee7386a67
:104abc0000f088f9fbf702ff78e7386a00f082f91a
:104acc00fbf7fcfe386a00f0cff90346002b3ff4ed
:104adc006daf002318462837bd4680bd04ed00e0bd
:104aec0080b58cb000aff860b9607a60fb68bb62cf
:104afc00eff311824ff0200383f31188bff36f8f14
:104b0c00bff34f8fba617b61bb697b62bb6a9b6be6
:104b1c003b623b6a002b2dd0bb6a93f84430fb7789
:104b2c00b968b86a00f028f93b6a5a1ebb6a9a63e6
:104b3c0097f91f30b3f1ff3f12d1bb6a1b69002bf1
:104b4c0015d0bb6a10331846fcf7eaf80346002b65
:104b5c000dd07b68002b0ad07b6801221a6006e01e
:104b6c00fb7f0133dbb25ab2bb6a83f844200123ca
:104b7c00fb6201e00023fb627b6a3b613b6983f3d0
:104b8c001188fb6a18463037bd4680bd80b58ab0a7
:104b9c0000af786039607b683b62eff311824ff0b5
:104bac00200383f31188bff36f8fbff34f8f7a61ac
:104bbc003b617b69fb613b6a9b6b002b0cd03b6ab6
:104bcc00db68bb613968386a00f0d6f83b6aba69b1
:104bdc00da6001237b6201e000237b62fb69fb60ee
:104bec00fb6883f311887b6a18462837bd4680bd65
:104bfc0080b584b000af786003f053fe7b689b6b8c
:104c0c00fb6003f067fefb6818461037bd4680bd9d
:104c1c0080b584b000af78607b68fb6003f041fe28
:104c2c00fb68da6bfb689b6bd31abb6003f052fe1c
:104c3c00bb6818461037bd4680bd80b485b000af48
:104c4c0078607b68fb60fb689b6bbb60bb6818463d
:104c5c001437bd465df8047b704780b584b000af57
:104c6c0078607b68fb60f86805f0e8f900bf1037e6
:104c7c00bd4680bd80b485b000af78607b685b6a50
:104c8c00002b06d07b681b6b1b68c3f10503fb6014
:104c9c0001e00023fb60fb6818461437bd465df845
:104cac00047b704780b586b000aff860b9607a605d
:104cbc0000237b61fb689b6b3b61fb681b6c002bcf
:104ccc000dd1fb681b68002b4dd1fb689b68184607
:104cdc00fcf776fa7861fb6800229a6043e07b6807
:104cec00002b19d1fb685868fb681b6c1a46b96815
:104cfc0006f0e4f9fb685a68fb681b6c1a44fb6805
:104d0c005a60fb685a68fb689b689a422bd3fb6815
:104d1c001a68fb685a6026e0fb68d868fb681b6c55
:104d2c001a46b96806f0caf9fb68da68fb681b6cae
:104d3c005b421a44fb68da60fb68da68fb681b6844
:104d4c009a4207d2fb689a68fb681b6c5b421a4458
:104d5c00fb68da607b68022b05d13b69002b02d023
:104d6c003b69013b3b613b695a1cfb689a637b695d
:104d7c0018461837bd4680bd80b582b000af78604c
:104d8c0039607b681b6c002b18d07b68da687b68f9
:104d9c001b6c1a447b68da607b68da687b689b68fa
:104dac009a4203d37b681a687b68da607b68d9689f
:104dbc007b681b6c1a46386806f080f900bf083710
:104dcc00bd4680bd80b584b000af786003f069fd4e
:104ddc007b6893f84530fb7311e07b685b6a002bb2
:104dec0012d07b6824331846fbf79aff0346002b3e
:104dfc0001d0fcf79ff8fb7b013bdbb2fb7397f90f
:104e0c000f30002be9dc00e000bf7b68ff2283f849
:104e1c00452003f05ffd03f044fd7b6893f84430bc
:104e2c00bb7311e07b681b69002b12d07b681033bd
:104e3c001846fbf775ff0346002b01d0fcf77af8f8
:104e4c00bb7b013bdbb2bb7397f90e30002be9dc6b
:104e5c0000e000bf7b68ff2283f8442003f03afd9a
:104e6c0000bf1037bd4680bd80b584b000af786000
:104e7c0003f017fd7b689b6b002b02d10123fb60b9
:104e8c0001e00023fb6003f025fdfb68184610379a
:104e9c00bd4680bd80b485b000af78607b68bb60d8
:104eac00bb689b6b002b02d10123fb6001e000234c
:104ebc00fb60fb6818461437bd465df8047b7047f1
:104ecc0080b584b000af786003f0ebfc7b689a6b24
:104edc007b68db6b9a4202d10123fb6001e000236b
:104eec00fb6003f0f7fcfb6818461037bd4680bd2d
:104efc0080b485b000af78607b68bb60bb689a6b90
:104f0c00bb68db6b9a4202d10123fb6001e00023fa
:104f1c00fb60fb6818461437bd465df8047b704790
:020000040000fa
:020000040100f9
:104f2c0098b500af2a4bd3ed087af5ee407af1ee46
:104f3c0010fa16d1264b9b6c254ad361254804f0f8
:104f4c0069fd034683f00103dbb2002b04d0204b38
:104f5c00ff225a60032338e01d4b9b6c1c4a5362a2
:104f6c0028e01b4b1b6a1a4ad361194a184b02f1f1
:104f7c00280438330fcb84e80f00154b1b6a144af6
:104f8c005362134b93ed097a114bd3ed126a104b0c
:104f9c00d3ed097a36eee76a0d4b1b6d013307ee44
:104fac00903af8eee76ac6ee267a77ee277a084b47
:104fbc00c3ed097a064b1b6d0133054a1365044b8f
:104fcc005b691846fbf722fa0123184698bd00bf0f
:104fdc00aca40020d4a4002080b500af124b93edfc
:104fec00097a114bd3ed126a0f4bd3ed097a36eed9
:104ffc00e76a0d4b1b6d013307ee903af8eee76a4a
:10500c00c6ee267a77ee277a074bc3ed097a064b64
:10501c001b6d0133044a1365034b5b691846fbf7a0
:10502c00f5f90123184680bdaca4002080b500af73
:10503c00164804f0effc034683f00103dbb2002baf
:10504c0004d0134bff225a6003231de0104b93ed49
:10505c00097a0f4bd3ed126a0d4bd3ed097a36ee6c
:10506c00e76a0b4b1b6d013307ee903af8eee76adb
:10507c00c6ee267a77ee277a054bc3ed097a044bf8
:10508c009b6c034a13620223184680bde4a40020e3
:10509c00aca4002080b400af1a4b00225a60194b0c
:1050ac0000221a72174b00221a72164b4ff0000294
:1050bc00da61144b4ff000021a62124b4ff00002ef
:1050cc005a62104b00221a650e4b00229a620d4b4d
:1050dc000022da620b4b00221a630a4b00225a633d
:1050ec00084b00229a63074b0022da63054b00221f
:1050fc001a64044b00225a6400bfbd465df8047b61
:10510c00704700bfaca4002080b483b000af7860bf
:10511c00964b974ada60954b4ff081421a61934b4c
:10512c004ff4fa725a61914b0a229a617b68002bf8
:10513c0000f020817b681b681a468c4b5a658b4ba0
:10514c00b3f854304ff6ff72934203d1874b0722ca
:10515c00a3f85420854bb3f856304ff6ff729342a8
:10516c0004d1824b4ff45272a3f856207f4bb3f804
:10517c0058304ff6ff72934203d17c4b0a22a3f8ae
:10518c0058207a4bb3f85a304ff6ff72934203d142
:10519c00764b0a22a3f85a20744bb3f85c304ff6c6
:1051ac00ff72934203d1714b5a22a3f85c206f4bd0
:1051bc00b3f85e304ff6ff72934203d16b4b04226f
:1051cc00a3f85e20694bb3f860304ff6ff72934240
:1051dc0003d1664b0422a3f86020644bb3f8623011
:1051ec004ff6ff72934203d1604b0022a3f862206a
:1051fc005e4bb3f864304ff6ff72934203d15b4bb6
:10520c004622a3f86420594bb3f866304ff6ff7270
:10521c00934203d1554b0022a3f86620534bb3f8ad
:10522c0068304ff6ff72934203d1504b0322a3f820
:10523c0068204e4bb3f86a304ff6ff72934203d19d
:10524c004a4b0022a3f86a20484bb3f86c304ff657
:10525c00ff72934203d1454b0322a3f86c20434bbe
:10526c00b3f86e304ff6ff72934203d13f4b0122dd
:10527c00a3f86e203d4bb3f870304ff6ff7293429b
:10528c0003d13a4b0022a3f87020384bb3f872309c
:10529c004ff6ff72934203d1344b0122a3f87220d4
:1052ac00324bb3f874304ff6ff72934203d12f4b4d
:1052bc000022a3f874202d4bb3f876304ff6ff7212
:1052cc00934203d1294b0022a3f87620274bb3f845
:1052dc0078304ff6ff72934203d1244b0022a3f88f
:1052ec007820224bb3f87a304ff6ff72934203d1f9
:1052fc001e4b0022a3f87a201c4bb3f87c304ff6df
:10530c00ff72934203d1194b0122a3f87c20174b57
:10531c00b3f87e304ff6ff72934204d1134b40f238
:10532c007512a3f87e20114bb3f880304ff6ff7244
:10533c00934204d10d4b40f21112a3f880200b4b79
:10534c00b3f882304ff6ff72934203d1074b7822a9
:10535c00a3f88220054bb3f884304ff6ff729342ca
:10536c006fd1024b0022a3f884206ae0aca4002089
:10537c000000c040374b0722a3f85420354b4ff4a4
:10538c005272a3f85620334b0a22a3f85820314b03
:10539c000a22a3f85a202f4b5a22a3f85c202d4b3b
:1053ac000422a3f85e202b4b0422a3f86020294b87
:1053bc000022a3f86220274b4622a3f86420254b39
:1053cc000022a3f86620234b0322a3f86820214b6c
:1053dc000022a3f86a201f4b0322a3f86c201d4b5c
:1053ec000122a3f86e201b4b0022a3f87020194b4e
:1053fc000122a3f87220174b0022a3f87420154b3e
:10540c000022a3f87620134b0022a3f87820114b2e
:10541c000022a3f87a200f4b0122a3f87c200d4b1d
:10542c0040f27512a3f87e200a4b40f21112a3f839
:10543c008020084b7822a3f88220064b0022a3f888
:10544c008420044b00221a6000bf0c37bd465df867
:10545c00047b7047aca400202de9f04395b00caf51
:10546c00934b1b68032b00f2188101a252f823f016
:10547c008d540001c1540001df5500018d5600010f
:10548c008c49282001f0aafb8b48fdf7fffa034654
:10549c001a46874b5b681343854a5360844b5b68a1
:1054ac00002b01dd032300e00123814a1360fff789
:1054bc00f1fdf7e08148fdf7f5fb03461a467c4bfe
:1054cc005b6813437a4a53607d48fdf74ffc0346f3
:1054dc001a46774b5b681343754a5360744b5b6891
:1054ec00002b72d1724bdb6c184605f07bfc054629
:1054fc000e466f4b9b6c184605f074fc03460c462d
:10550c00cde900342a4633466e49282001f012fbbf
:10551c00674b1b6d002b06d1fff702fd03461a46a5
:10552c00634b1a600be0624b1a6d614b9b699a429c
:10553c0005dafff751fd03461a465d4b1a605c4bca
:10554c001b68032b00f0ab80594b93ed127a584b30
:10555c00d3ed136a564bd3ed037a76eea77ab4eefd
:10556c00e77af1ee10fa10dd514b1b7a83f0010350
:10557c00dbb2002b1cd04e4b01221a72fff756fdea
:10558c0003461a464a4b1a608ce0494b93ed127a4b
:10559c00474bd3ed136a464bd3ed047a76eea77adc
:1055ac00b4eee77af1ee10fa02d5414b00221a72f2
:1055bc003f4b1a6d3e4b9b699a4272dbfff736fdef
:1055cc0003461a463a4b1a606be0394b03221a60b9
:1055dc0068e0374b1b7a002b06d0354b1b7a1a46ea
:1055ec003949282001f0fafa314b9b6afb61304ba8
:1055fc00d96ab9612e4b186b78612d4b5c6b3c6191
:10560c002b4b9d6bfd602a4bde6bbe60284b1a6cde
:10561c007a60274b596c3960254bdb69184605f0cd
:10562c00e1fb80468946224b1b6a184605f0dafbe3
:10563c0005460e461e4b5b6a184605f0d3fb034627
:10564c000c46cde90a34cde90856cde9068939680e
:10565c0005917a680492be680396fd6802953c69d0
:10566c00019478690090bb69fa691849282001f007
:10567c00b5fa0f4b00221a650d4b01221a6011e08e
:10568c000b4b5b681a461249282001f04ffbfdf7c3
:10569c00fdfa074b00221a6004e000bf02e000bfd5
:1056ac0000e000bf00bf2437bd46bde8f08300bf5b
:1056bc00aca400205ca1000100a50020f8a40020ef
:1056cc00f4a400206ca1000198a10001b0a100017c
:0456dc0004a2000123
:020000040000fa
:020000040100f9
:1056e00080b400af194b01221a6000bf174bdb6971
:1056f000002bfbd1154b4ff480725a6000bf134b47
:10570000db69002bfbd1114be822da600f4b104a0a
:105710001a6000bf0d4bdb69002bfbd10b4b102235
:105720005a8300bf094bdb69002bfbd1094b0022d8
:1057300083f82120074b002283f82020034b83228b
:105740009a7500bfbd465df8047b7047000c0042af
:105750001600100084a5002080b489b000aff86066
:10576000b9607a600023fb61fb6807ee903af8eebf
:10577000677ac7ed067abb6807ee903af8ee677a6b
:10578000c7ed057a4ff000033b61bb685b00fa6828
:105790009a4201d2002357e0bb682e4a93421fd899
:1057a000d7ed066ad7ed057a86eea77ad7ed067aa9
:1057b000dfed296a67eea67af2ee046a77eea67a42
:1057c00077ee677ac7ed047ad7ed047afceee77ad4
:1057d00017ee903afb61bb68204a934213d801e070
:1057e000002331e0fb69b3f5ff7f02d9ff23fb61a2
:1057f00026e0fb69012b02d80123fb6120e0fb6955
:105800005b08fb611ce0fb69b3f5bf7f03d34ff678
:105810007f73fb6114e0fb69032b03d840f2012383
:10582000fb610de0fb695b000d4aa2fb03235b08f3
:105830001a02fb690a49a1fb03135b081343fb61ce
:105840007b68fa691a60012318462437bd465df863
:10585000047b704740420f0095bfd633801a060084
:10586000abaaaaaa80b586b000af786039600023e1
:105870007b617b68002b01d1002349e07b681b68ba
:105880003b613b68002b01d1234b3b6007f10c03cc
:105890001a4639693868fff75fff034683f0010352
:1058a000dbb2002b01d0002332e03b691b4a93425c
:1058b00001d901237b611a4b1b68194a23f00203ab
:1058c000136000bf164bdb69002bfbd1144afb6849
:1058d000d360134b1b6823f040727b691b0603f0f7
:1058e00040730f4913430b600d4b1b680c4a43f088
:1058f0000203136000bf0a4bdb69002bfbd1084b8e
:1059000010225a8300bf064bdb69002bfbd1012319
